:020000040800F2
:1000000000000220DD4B00088D1300088F1300084C
:1000100091130008931300089513000800000000D6
:10002000000000000000000000000000971300081E
:1000300099130008000000009B1300089D1300089E
:100040002D4C00082D4C00082D4C00082D4C0008AC
:100050002D4C00082D4C0008A51300082D4C00085D
:100060002D4C00082D4C00082D4C00082D4C00088C
:100070002D4C00082D4C00082D4C00082D4C00087C
:100080002D4C00082D4C00082D4C00082D4C00086C
:100090002D4C00082D4C00082D4C00082D4C00085C
:1000A0002D4C00082D4C00082D4C00082D4C00084C
:1000B000B113000871150008591700082D4C0008ED
:1000C0002D4C00082D4C00082D4C00082D4C00082C
:1000D0002D4C000869170008791700082D4C0008FE
:1000E0002D4C00082D4C00082D4C00082D4C00080C
:1000F0002D4C00082D4C00082D4C00082D4C0008FC
:100100002D4C00082D4C00082D4C00082D4C0008EB
:100110002D4C00082D4C00082D4C00082D4C0008DB
:100120002D4C00082D4C00082D4C00082D4C0008CB
:100130002D4C00082D4C00082D4C00082D4C0008BB
:100140002D4C00082D4C00082D4C00082D4C0008AB
:100150002D4C00082D4C00082D4C00082D4C00089B
:100160002D4C00082D4C00082D4C00082D4C00088B
:100170002D4C00082D4C00082D4C000800000000FC
:080180002D4C00082D4C000875
:1001900001F0FF01102A2BDB10F0070F08D010F838
:1001A000013B013A8B422DD010F0070F42B3F6D13C
:1001B000F0B441EA012141EA014122F007047FF055
:1001C00000070023F0E80256083C85EA010586EAAC
:1001D000010685FA47F5A3FA87F586FA47F6A5FAE8
:1001E00087F68EB9EED1F0BC01F0FF0102F00702F4
:1001F00032B110F8013B013A83EA010313B1F8D19F
:100200000020704701387047002D06BF354603387F
:10021000073815F0010F07D1013015F4807F02BFB8
:10022000013015F4C03F0130F0BC0138704700BF09
:1002300081F0004102E000BF83F0004330B54FEA97
:1002400041044FEA430594EA050F08BF90EA020F04
:100250001FBF54EA000C55EA020C7FEA645C7FEA97
:10026000655C00F0E2804FEA5454D4EB5555B8BFBA
:100270006D420CDD2C4480EA020281EA030382EA2B
:10028000000083EA010180EA020281EA0303362DBD
:1002900088BF30BD11F0004F4FEA01314FF4801C90
:1002A0004CEA113102D0404261EB410113F0004FA2
:1002B0004FEA03334CEA133302D0524263EB430359
:1002C00094EA050F00F0A780A4F10104D5F1200EF7
:1002D0000DDB02FA0EFC22FA05F2801841F1000152
:1002E00003FA0EF2801843FA05F359410EE0A5F126
:1002F00020050EF1200E012A03FA0EFC28BF4CF057
:10030000020C43FA05F3C01851EBE37101F000450C
:1003100007D54FF0000EDCF1000C7EEB00006EEB19
:100320000101B1F5801F1BD3B1F5001F0CD34908A3
:100330005FEA30004FEA3C0C04F101044FEA4452FA
:1003400012F5800F80F09A80BCF1004F08BF5FEA81
:10035000500C50F1000041EB045141EA050130BD61
:100360005FEA4C0C404141EB0101013C28BFB1F573
:10037000801FE9D291F0000F04BF01460020B1FABE
:1003800081F308BF2033A3F10B03B3F120020CDA91
:100390000C3208DD02F1140CC2F10C0201FA0CF06F
:1003A00021FA02F10CE002F11402D8BFC2F1200CD4
:1003B00001FA02F120FA0CFCDCBF41EA0C0190408A
:1003C000E41AA2BF01EB0451294330BD6FEA0404D3
:1003D0001F3C1CDA0C340EDC04F11404C4F12002BE
:1003E00020FA04F001FA02F340EA030021FA04F3D0
:1003F00045EA030130BDC4F10C04C4F1200220FA27
:1004000002F001FA04F340EA0300294630BD21FA64
:1004100004F0294630BD94F0000F83F4801306BF2A
:1004200081F480110134013D4EE77FEA645C18BF1E
:100430007FEA655C29D094EA050F08BF90EA020FB5
:1004400005D054EA000C04BF1946104630BD91EAAD
:10045000030F1EBF0021002030BD5FEA545C05D1B0
:100460004000494128BF41F0004130BD14F58004EF
:100470003CBF01F5801130BD01F0004545F0FE4163
:1004800041F470014FF0000030BD7FEA645C1ABF98
:10049000194610467FEA655C1CBF0B46024650EACF
:1004A000013406BF52EA033591EA030F41F40021FB
:1004B00030BD00BF90F0000F04BF0021704730B581
:1004C0004FF4806404F132044FF000054FF0000156
:1004D00050E700BF90F0000F04BF0021704730B517
:1004E0004FF4806404F1320410F0004548BF4042EC
:1004F0004FF000013EE700BF42004FEAE2014FEA41
:1005000031014FEA02701FBF12F07F4393F07F4F1B
:1005100081F06051704732F07F4208BF704793F01E
:100520007F4F04BF41F40021704730B54FF4607431
:1005300001F0004521F000411CE700BF50EA010234
:1005400008BF704730B54FF000050AE050EA0102DD
:1005500008BF704730B511F0004502D5404261EB4D
:1005600041014FF4806404F132045FEA915C3FF48E
:10057000D8AE4FF003025FEADC0C18BF03325FEA2B
:10058000DC0C18BF033202EBDC02C2F1200300FADC
:1005900003FC20FA02F001FA03FE40EA0E0021FA01
:1005A00002F11444BDE600BF70B54FF0FF0C4CF4EF
:1005B000E06C1CEA11541DBF1CEA135594EA0C0FA1
:1005C00095EA0C0F00F0DEF82C4481EA030621EADC
:1005D0004C5123EA4C5350EA013518BF52EA033517
:1005E00041F4801143F4801338D0A0FB02CE4FF0C9
:1005F0000005E1FB02E506F00042E0FB03E54FF0F9
:100600000006E1FB03569CF0000F18BF4EF0010EF0
:10061000A4F1FF04B6F5007F64F5407404D25FEAEC
:100620004E0E6D4146EB060642EAC62141EA55519F
:100630004FEAC52040EA5E504FEACE2EB4F1FD0CE1
:1006400088BFBCF5E06F1ED8BEF1004F08BF5FEA5F
:10065000500E50F1000041EB045170BD06F0004611
:1006600046EA010140EA020081EA0301B4EB5C04BE
:10067000C2BFD4EB0C0541EA045170BD41F48011B6
:100680004FF0000E013C00F3AB8014F1360FDEBFDB
:10069000002001F0004170BDC4F10004203C35DAB7
:1006A0000C341BDC04F11404C4F1200500FA05F33A
:1006B00020FA04F001FA05F240EA020001F00042DB
:1006C00021F0004110EBD37021FA04F642EB060151
:1006D0005EEA430E08BF20EAD37070BDC4F10C047B
:1006E000C4F1200500FA04F320FA05F001FA04F23F
:1006F00040EA020001F0004110EBD37041F100012B
:100700005EEA430E08BF20EAD37070BDC4F1200535
:1007100000FA05F24EEA020E20FA04F301FA05F29D
:1007200043EA020321FA04F001F0004121FA04F245
:1007300020EA020000EBD3705EEA430E08BF20EA15
:10074000D37070BD94F0000F0FD101F0004640004F
:1007500041EB010111F4801F08BF013CF7D041EAD1
:10076000060195F0000F18BF704703F000465200D5
:1007700043EB030313F4801F08BF013DF7D043EAA6
:100780000603704794EA0C0F0CEA135518BF95EA5C
:100790000C0F0CD050EA410618BF52EA4306D1D1E3
:1007A00081EA030101F000414FF0000070BD50EA02
:1007B000410606BF1046194652EA430619D094EA8C
:1007C0000C0F02D150EA013613D195EA0C0F05D176
:1007D00052EA03361CBF104619460AD181EA0301CA
:1007E00001F0004141F0FE4141F470014FF0000082
:1007F00070BD41F0FE4141F4780170BD70B54FF01D
:10080000FF0C4CF4E06C1CEA11541DBF1CEA13559C
:1008100094EA0C0F95EA0C0F00F0A7F8A4EB05047E
:1008200081EA030E52EA03354FEA013100F0888075
:100830004FEA03334FF0805545EA131343EA12633E
:100840004FEA022245EA111545EA10654FEA0026F3
:100850000EF000419D4208BF964244F1FD0404F5AC
:10086000407402D25B084FEA3202B61A65EB030508
:100870005B084FEA32024FF480104FF4002CB6EBC5
:10088000020E75EB030E22BFB61A754640EA0C0045
:100890005B084FEA3202B6EB020E75EB030E22BF85
:1008A000B61A754640EA5C005B084FEA3202B6EBC6
:1008B000020E75EB030E22BFB61A754640EA9C0085
:1008C0005B084FEA3202B6EB020E75EB030E22BF55
:1008D000B61A754640EADC0055EA060E18D04FEA13
:1008E000051545EA16754FEA06164FEAC30343EAB3
:1008F00052734FEAC2025FEA1C1CC0D111F4801F80
:100900000BD141EA00014FF000004FF0004CB6E778
:1009100011F4801F04BF01430020B4F1FD0C88BF17
:10092000BCF5E06F3FF6AFAEB5EB030C04BFB6EB22
:10093000020C5FEA500C50F1000041EB045170BD15
:100940000EF0004E4EEA113114EB5C04C2BFD4EB42
:100950000C0541EA045170BD41F480114FF0000EC6
:10096000013C90E645EA060E8DE60CEA135594EA42
:100970000C0F08BF95EA0C0F3FF43BAF94EA0C0F45
:100980000AD150EA01347FF434AF95EA0C0F7FF4BA
:1009900025AF104619462CE795EA0C0F06D152EA0E
:1009A00003353FF4FDAE1046194622E750EA4106F2
:1009B00018BF52EA43067FF4C5AE50EA41047FF403
:1009C0000DAF52EA43057FF4EBAE12E74A0011D2B5
:1009D00012F5001211D20DD56FF47873B3EB625299
:1009E0000ED44FEAC12343F0004343EA505323FAA5
:1009F00002F070474FF00000704750EA013002D11A
:100A00004FF0FF3070474FF0000070474FEA41024F
:100A1000B2F1E04324BFB3F5001CDCF1FE5C0DD95C
:100A200001F0004C4FEAC0024CEA5070B2F1004FA6
:100A300040EB830008BF20F00100704711F0804FA9
:100A400021D113F13872BCBF01F00040704741F46E
:100A500080114FEA5252C2F11802C2F1200C10FA72
:100A60000CF320FA02F018BF40F001004FEAC12356
:100A70004FEAD32303FA0CFC40EA0C0023FA02F3FA
:100A80004FEA4303CCE77FEA625307D150EA0133D0
:100A90001EBF4FF0FE4040F44000704701F00040A0
:100AA00040F0FE4040F40000704700BF53B94AB91F
:100AB000002908BF00281CBF4FF0FF314FF0FF3066
:100AC00000F00CB8ADF1080C6DE904CE04F018FD8F
:100AD000DDF804E0DDE9022304B07047704700BF91
:100AE00010B5054C237833B9044B13B10448AFF368
:100AF00000800123237010BDFC00002000000000D6
:100B0000C457000808B5034B1BB103490348AFF3B2
:100B1000008008BD0000000000010020C45700084C
:100B200072B6FEE700B595B03022002108A804F0A7
:100B3000B1F800230393049305930693079301935D
:100B40001E4A116C41F080511164126C02F0805207
:100B50000192019A02931A4B1A6842F480421A6079
:100B60001B6803F480430293029B012308934FF414
:100B70008033099302230E934FF480030F930823CD
:100B80001093C023119304231293139308A801F028
:100B9000C7F878B90F2303930223049380230593A6
:100BA00000210691079103A801F01CFB20B915B0A4
:100BB0005DF804FBFFF7B4FFFFF7B2FF0038024017
:100BC0000070004000B583B001F0D8FDFFF7AAFF28
:100BD00000F044F800F0E2F800F016F900F092F9A5
:100BE00000F0B0F900F034FA00F06AFA00F0A0FA70
:100BF00000F026FB00F03EFB134B00934FF4E13373
:100C0000124A0121002003F0C9FA03F021FB03F08E
:100C1000AFFD002003F06CFE0D4801F0EFFF0D4822
:100C200001F0ECFF0C4C01228021204601F09AFCDF
:100C300001221021204601F095FC142001F0CAFD8C
:100C400003F018FBF9E700BF3C0300205804002024
:100C5000CC03002084030020001002402DE9F0475F
:100C60008AB000240594069407940894099400948B
:100C7000454B1A6B42F080021A631A6B02F0800235
:100C80000092009A01941A6B42F001021A631A6BE7
:100C900002F001020192019A02941A6B42F00402DE
:100CA0001A631A6B02F004020292029A03941A6BFE
:100CB00042F002021A631A6B02F002020392039AD4
:100CC00004941A6B42F010021A631B6B03F01003BA
:100CD0000493049B2D4E22460221304601F042FC33
:100CE000DFF8B09022463021484601F03BFCDFF8A7
:100CF000A880224641F20201404601F033FC244F15
:100D000022464FF42071384601F02CFC0125059550
:100D10004FF4881306934FF0020ACDF81CA005A9E2
:100D2000304601F035FBCDF814A0069507940894E1
:100D300005A9304601F02CFB302305930695079456
:100D4000089405A9484601F023FB41F202030593EC
:100D500006950794089405A9404601F019FB4FF445
:100D60002073059306950794089405A9384601F069
:100D70000FFB22462146062001F082FC062001F0EE
:100D8000B3FC0AB0BDE8F087003802400000024022
:100D900000100240000802400004024000B585B087
:100DA000002300930193029303931448144A0260B2
:100DB000436083600361037680F82030C362114A88
:100DC0008262C3600122C26180F83030426100F06B
:100DD00091FD68B91023009301230193002302932E
:100DE0006946064800F0D4FE28B905B05DF804FB5A
:100DF000FFF796FEEEE7FFF793FEF6E744020020CA
:100E0000002001400100000F00B585B000230093D1
:100E10000193029303931448144A02604360836071
:100E20000361037680F82030C362114A8262C36096
:100E30000122C26180F83030426100F05BFD68B988
:100E40000823009301230193002302936946064877
:100E500000F09EFE28B905B05DF804FBFFF760FEC8
:100E6000EEE7FFF75DFEF6E7FC0100200021014000
:100E70000100000F00B589B000230393049305938C
:100E80000693079303681B4A934205D01A4A93427C
:100E90000FD009B05DF804FB00230093174B5A6C88
:100EA00042F480725A645B6C03F480730093009B7D
:100EB000EFE700220192114B596C41F40071596423
:100EC000596C01F40071019101990292196B41F082
:100ED000020119631B6B03F002030293029B0123BF
:100EE000039303230493059203A9054801F050FAE4
:100EF000CFE700BF00200140002101400038024040
:100F00000004024008B50D480D4B03604FF4827396
:100F1000436000238360C360036143614FF4007248
:100F20008261C3610362436283620A23C36201F088
:100F300001FD00B908BDFFF7F3FDFBE7E402002067
:100F40000030014008B50D480D4B03604FF482732B
:100F5000436000238360C360036143614FF4007208
:100F60008261C3610362436283620A23C36201F048
:100F7000E1FC00B908BDFFF7D3FDFBE78C020020C0
:100F80000038004000B58BB000230593069307930B
:100F9000089309930368294A934205D0284A93424B
:100FA00026D00BB05DF804FB00220192254B596C52
:100FB00041F480515964596C01F4805101910199B7
:100FC0000292196B41F0010119631B6B03F00103DD
:100FD0000293029BE02305930223069307920323C7
:100FE00008930523099305A9174801F0D1F9D8E71B
:100FF00000220392134B196C41F480411964196C5F
:1010000001F48041039103990492196B41F00201AC
:1010100019631B6B03F002030493049B4FF46043BA
:10102000059302230693079203230893052309934C
:1010300005A9064801F0ACF9B3E700BF0030014054
:101040000038004000380240000002400004024026
:1010500000B587B000230293039304930593009394
:10106000019316484FF08042026040F65F124260E2
:10107000836041F28732C2600361836101F040FF07
:1010800090B94FF48053029302A90C4801F070FF0D
:1010900068B90023009301936946084801F0E8FF0E
:1010A00040B907B05DF804FBFFF73AFDE9E7FFF749
:1010B00037FDEEE7FFF734FDF3E700BFCC03002078
:1010C00000B587B000230293039304930593009324
:1010D00001931548154A026040F65F124260836032
:1010E00042F20F72C2600361836101F009FF90B99F
:1010F0004FF48053029302A90B4801F039FF68B9FD
:101100000023009301936946074801F0B1FF40B9FD
:1011100007B05DF804FBFFF703FDE9E7FFF700FD0B
:10112000EEE7FFF7FDFCF3E7840300200004004036
:1011300000B587B0002302930393049305930093B3
:1011400001931448144A02601722426083603122DE
:10115000C2600361836101F0D3FE90B94FF4805304
:10116000029302A90B4801F003FF68B90023009322
:1011700001936946074801F07BFF40B907B05DF86D
:1011800004FBFFF7CDFCE9E7FFF7CAFCEEE7FFF74A
:10119000C7FCF3E73C0300200008004000B585B021
:1011A0000368B3F1804F08D0224A93421AD0224AF2
:1011B00093422BD005B05DF804FB0021019103F5AB
:1011C0000E331A6C42F001021A641B6C03F0010327
:1011D0000193019B0A461C2001F052FA1C2001F0E9
:1011E00083FAE7E700210291144B1A6C42F00202E5
:1011F0001A641B6C03F002030293029B0A461D2033
:1012000001F03EFA1D2001F06FFAD3E700210391AF
:101210000A4B1A6C42F004021A641B6C03F00403BC
:101220000393039B0A461E2001F02AFA1E2001F0B8
:101230005BFABFE7000400400008004000380240AD
:1012400008B50A480A4B03604FF4E13343600023BA
:101250008360C36003610C2242618361C36102F059
:1012600039F800B908BDFFF75BFCFBE71404002068
:101270000010014008B50A480A4B03604FF4E133FF
:10128000436000238360C36003610C224261836179
:10129000C36102F01FF800B908BDFFF741FCFBE78E
:1012A000580400200044004010B58AB00023059384
:1012B00006930793089309930368304A934204D036
:1012C0002F4A93422ED00AB010BD002401942D4B1A
:1012D0005A6C42F010025A645A6C02F010020192E9
:1012E000019A02941A6B42F001021A631B6B03F01D
:1012F00001030293029B4FF4C063059302230693FC
:101300000794032308930723099305A91E4801F0B6
:101310003FF822462146252001F0B2F9252001F0B0
:10132000E3F9D0E700240394164B1A6C42F4003220
:101330001A641A6C02F400320392039A04941A6B32
:1013400042F001021A631B6B03F001030493049B38
:101350000C23059302230693079403230893072382
:10136000099305A9084801F013F8224621462620D2
:1013700001F086F9262001F0B7F9A4E7001001403A
:10138000004400400038024000000240FEE7FEE753
:10139000FEE7FEE7FEE770477047704708B501F0CB
:1013A00007FA08BD08B5012001F0ECF808BD0000FF
:1013B000F0B52DED028B85B04FF400715C4801F063
:1013C000D7F8002414E0284600F0DEFB07EE900A70
:1013D000F8EE677A574BC3ED007AFCEEE77A564B8E
:1013E00017EE902A23F81420284600F051FB013410
:1013F000042C0ADC514D284600F0A8FA6421284646
:1014000000F066FB0028F2D1DDE74D4B00221A60A8
:101410000023042B0FDC484A32F8132007EE902AF1
:10142000474AF8EEE77A92ED007A77EE877AC2EDD6
:10143000007A0133EDE7424B93ED007AB1EE048A76
:10144000C7EE087A3F4BC3ED007A9FED3F7A67EE17
:10145000877A17EE900AFFF74FF833A3D3E90023FA
:10146000FFF7A2F8FFF7D2FA07EE900A374C206098
:1014700067EE887AFCEEE77A17EE903A9BB202228A
:101480006421002003F086FB4FF6FF7294ED000A02
:101490000021692003F054FAD4ED007ABCEEE78A0B
:1014A000B8EE487A77EEC77A17EE900AFFF724F87D
:1014B0000022274BFFF778F8FFF788FA254E83B212
:1014C00018EE102A2449304603F0ECFB234D00248B
:1014D00002944FF4FC6301936B6800932B68204ADD
:1014E0002146204603F07EF902944FF6FF770197DC
:1014F0006B6800932B681B4A0A21282003F072F9BD
:10150000029401976B6800932B6832460A212046AB
:1015100003F068F9144801F0D2FB05B0BDEC028B72
:10152000F0BD00BFAFF300806666666666660A407F
:101530000010024070010020AC040020FC010020DB
:101540006C0100207801002000008039800100201B
:1015500000408F4018010020DC5700089000002058
:10156000E8570008F4570008CC03002000000000F2
:10157000F0B52DED028B85B00221654800F0F8FF33
:10158000002414E0284600F0FFFA07EE900AF8EE77
:10159000677A604BC3ED007AFCEEE77A5E4B17EE9C
:1015A000902A23F81420284600F072FA0134042C03
:1015B0000ADC5A4D284600F0C9F96421284600F09B
:1015C00087FA0028F2D1DDE7554B00221A6000238C
:1015D000042B0FDC504A32F8132007EE902A504AB1
:1015E000F8EEE77A92ED007A77EE877AC2ED007A2C
:1015F0000133EDE74A4BD3ED006AB1EE047AC6EE53
:10160000877A484BC3ED007A9FED477A67EE877A79
:1016100017EE900AFEF770FF37A3D3E90023FEF719
:10162000C3FFFFF7F3F9414B1860FEF765FF34A3E2
:10163000D3E90023FEF700FE33A3D3E90023FFF72D
:10164000DDF800223A4BFEF7F9FDFFF7DFF900EE77
:10165000100A384B18602F4C2060002002F082FFE7
:10166000D4ED007ABCEEE78AB8EE487A77EEC77A16
:1016700017EE900AFEF740FF00222F4BFEF794FF73
:10168000FFF7A4F92D4E83B218EE102A2C493046EC
:1016900003F008FB2B4C0025029540F2FF730193E9
:1016A000636800932368284A1921284603F09AF8B2
:1016B00002954FF6FF770197636800932368234AEA
:1016C00023212D2003F08EF8029501976368009383
:1016D000236832462321284603F084F81C4A938865
:1016E000013393801B4801F0EAFA05B0BDEC028B90
:1016F000F0BD00BFAFF300806666666666660A40AE
:1017000052B81E85EB51E83F7B14AE47E17A643F47
:1017100000000240700100209C04002044020020D0
:101720006801002074010020000080397C01002045
:1017300000003940A804002000408F4040010020F4
:10174000DC57000890000020F857000808580008EF
:10175000F80500208403002008B5024801F0AFFA24
:1017600008BD00BF3C03002008B5024801F044FF5B
:1017700008BD00BF1404002008B5024801F03CFF7A
:1017800008BD00BF5804002082B0002100910B4B1F
:101790005A6C42F480425A645A6C02F480420092BD
:1017A000009A01911A6C42F080521A641B6C03F08B
:1017B00080530193019B02B0704700BF0038024084
:1017C0004A4B5A6822F440325A605A6841680A43C8
:1017D0005A600268536823F4807353600268536848
:1017E000016943EA012353600268536823F04073A0
:1017F00053600268536881680B43536002689368C2
:1018000023F40063936002689368C1680B4393609C
:10181000826A374B9A4257D00268936823F070630C
:10182000936002689368816A0B43936002689368CF
:1018300023F04053936002689368C16A0B4393603E
:101840000268936823F00203936002689368017E44
:1018500043EA4103936090F82030002B3FD00268A8
:10186000536843F4006353600268536823F4604391
:10187000536001684B68426A013A43EA42334B6065
:101880000268D36A23F47003D3620168CB6AC26929
:10189000013A43EA0253CB620268936823F400736F
:1018A00093600268936890F8301043EA4123936094
:1018B0000268936823F480639360026893684169C7
:1018C00043EA8123936070470268936823F0706352
:1018D00093600268936823F040539360B0E7026816
:1018E000536823F400635360CAE700BF002301403C
:1018F0000100000F38B310B50446036C43B1236CEC
:1019000013F0100F0BD00120002384F83C3010BDE1
:10191000FFF7B0FA0023636484F83C30EFE7236CF0
:1019200023F4885323F0020343F002032364204688
:10193000FFF746FF00206064236C23F0030343F0AD
:1019400001032364E0E701207047000082B0002318
:10195000019390F83C30012B00F08980012380F83E
:101960003C3003689A6812F0010F13D19A6842F074
:1019700001029A60414B1B68414AA2FB03239B0C66
:1019800003EB4303019302E0019B013B0193019BA5
:10199000002BF9D10268936813F0010F5CD0036C3F
:1019A00023F4E06323F0010343F48073036453687A
:1019B00013F4806F05D0036C23F4405343F4805339
:1019C0000364036C13F4805F1BD0436C23F00603A5
:1019D0004364002380F83C306FF022031360294BEE
:1019E0005B6813F01F0F27D10368274A934211D079
:1019F00002F58072934207D0244A934214D000200B
:101A000033E000234364E4E702F50072526812F009
:101A10001F0FF1D19A6812F0405F2AD19A6842F004
:101A200080429A60002020E002F58072526812F035
:101A3000100FEFD0002018E00368134A934201D042
:101A4000002012E09A6812F0405F14D19A6842F0C8
:101A500080429A60002008E0036C43F010030364A6
:101A6000436C43F001034364002002B0704702203E
:101A7000FBE70020F9E70020F7E700BF080000209F
:101A800083DE1B430023014000200140002201406F
:101A900090F83C30012B19D0012380F83C300268CB
:101AA000936823F00103936003689B6813F0010FB0
:101AB00007D1036C23F4885323F0010343F001039F
:101AC0000364002380F83C301846704702207047BA
:101AD00070B504460D4603689A6812F4806F03D00F
:101AE0009B6813F4807F19D100F06EFE06462368D0
:101AF0001A6812F0020F20D1B5F1FF3FF7D0B5B947
:101B000023681B6813F0020FF1D1236C43F0040328
:101B10002364002384F83C30032032E0036C43F05C
:101B200020030364002380F83C30012029E000F00A
:101B30004BFE801BA842DAD9E2E76FF012021A606E
:101B4000236C43F40073236423689A6812F0405FA7
:101B500016D1207EB0B9DA6A12F4700F03D09B68F8
:101B600013F4806F0DD1236C23F480732364236CF2
:101B700013F4805F05D1236C43F00103236400E07C
:101B8000002070BD0020FCE70368D86C704700009F
:101B900030B482B00023019390F83C30012B00F068
:101BA000B780012380F83C300B68092B3ED90568CB
:101BB000EA689BB203EB43031E3B072404FA03F3DA
:101BC00022EA0303EB600568EA688C680B8803EB84
:101BD00043031E3B04FA03F31343EB604B68062BED
:101BE0003AD805686A6B03EB8303053B1F2404FAAC
:101BF00003F322EA03036B6305686A6B4B6803EB2C
:101C00008303053B0C8804FA03F313436B630268F8
:101C1000404B9A4250D002683E4B9A4255D0002326
:101C200080F83C30184602B030BC704705682A691D
:101C30009BB203EB4303072404FA03F322EA0303F2
:101C40002B6105682A698C680B8803EB430304FA4F
:101C500003F313432B61C1E70C2B16D805682A6BDD
:101C600003EB8303233B1F2404FA03F322EA030359
:101C70002B6305682A6B4B6803EB8303233B0C88BB
:101C800004FA03F313432B63C1E70568EA6A03EB25
:101C90008303413B1F2404FA03F322EA0303EB62AC
:101CA0000568EA6A4B6803EB8303413B0C8804FA3E
:101CB00003F31343EB62AAE70B68122BABD1164A6E
:101CC000536843F480035360A5E70B68103B012B76
:101CD000A5D8114A536843F4000353600B68102BD6
:101CE0009DD10E4B1B6802F1467202F52E3202F2B4
:101CF0008332A2FB03239B0C03EB83035B00019362
:101D000002E0019B013B0193019B002BF9D186E787
:101D1000022088E700200140002301400800002045
:101D2000002800F0DF8170B582B00446036813F02C
:101D3000010F3BD0A64B9B6803F00C03042B2CD067
:101D4000A34B9B6803F00C03082B21D06368B3F509
:101D5000803F4FD0B3F5A02F52D09D4B1A6822F48C
:101D600080321A601A6822F480221A606368002B9D
:101D700050D000F029FD0546954B1B6813F4003F39
:101D800014D100F021FD401B6428F5D90320B0E1F7
:101D90008F4B5B6813F4800FD8D08D4B1B6813F406
:101DA000003F03D06368002B00F09E81236813F08E
:101DB000020F54D0864B9B6813F00C0F3ED0844B1F
:101DC0009B6803F00C03082B33D0E368002B67D02B
:101DD000804B01221A6000F0F7FC05467C4B1B6823
:101DE00013F0020F53D100F0EFFC401B0228F5D98D
:101DF00003207EE1764A136843F480331360B5E72D
:101E0000734B1A6842F480221A601A6842F48032D6
:101E10001A60ABE700F0D8FC05466D4B1B6813F465
:101E2000003FC3D000F0D0FC401B6428F5D903204C
:101E30005FE1674B5B6813F4800FC6D1644B1B688E
:101E400013F0020F03D0E368012B40F04F81604A8A
:101E5000136823F0F803216943EAC1031360236880
:101E600013F0080F40D0636963B35B4B01221A6023
:101E700000F0AAFC0546564B5B6F13F0020F33D1FE
:101E800000F0A2FC401B0228F5D9032031E1504AA2
:101E9000136823F0F803216943EAC1031360DEE706
:101EA0004C4B00221A6000F08FFC0546484B1B6823
:101EB00013F0020FD3D000F087FC401B0228F5D9A5
:101EC000032016E1444B00221A6000F07DFC054619
:101ED0003F4B5B6F13F0020F06D000F075FC401B08
:101EE0000228F5D9032004E1236813F0040F78D009
:101EF000374B1B6C13F0805F0DD100230193344BE3
:101F00001A6C42F080521A641B6C03F080530193E8
:101F1000019B012500E00025304B1B6813F4807FF6
:101F200021D0A368012B32D0052B36D0284B1A6F55
:101F300022F001021A671A6F22F004021A67A368DE
:101F4000002B34D000F040FC0646214B1B6F13F0F1
:101F5000020F45D100F038FC801B41F288339842D3
:101F6000F3D90320C5E01D4A136843F4807313605E
:101F700000F02AFC0646194B1B6813F4807FD0D171
:101F800000F022FC801B0228F5D90320B1E0104AA2
:101F9000136F43F001031367D1E70D4B1A6F42F043
:101FA00004021A671A6F42F001021A67C7E700F0CD
:101FB0000BFC0646064B1B6F13F0020F10D000F00F
:101FC00003FC801B41F288339842F3D9032090E050
:101FD0000038024000004742800E47420070004037
:101FE000EDB9A369002B00F08380494A926802F0A2
:101FF0000C02082A51D0022B17D0464B00221A603F
:1020000000F0E2FB0446424B1B6813F0007F42D015
:1020100000F0DAFB001B0228F5D9032069E03C4AF6
:10202000136C23F080531364DBE73A4B00221A60F1
:1020300000F0CAFB0546364B1B6813F0007F06D044
:1020400000F0C2FB401B0228F5D9032051E0E369F0
:10205000226A1343626A43EA8213A26A5208013A6F
:1020600043EA0243E26A43EA0263294A5360294B86
:1020700001221A6000F0A8FB0446254B1B6813F0F0
:10208000007F06D100F0A0FB001B0228F5D9032039
:102090002FE000202DE000202BE0012B2BD01C4B4B
:1020A0005B6803F48001E269914226D103F03F02AC
:1020B000216A8A4223D1616A47F6C0721A40B2EBA4
:1020C000811F1ED103F44031A26A5208013AB1EBDC
:1020D000024F18D103F07063E26AB3EB026F14D1C0
:1020E000002006E001207047012002E0012000E00E
:1020F000002002B070BD0120FBE70120F9E70120BC
:10210000F7E70120F5E70120F3E70120F1E700BF41
:102110000038024060004742F8B52F4B9B6803F03F
:102120000C03042B53D0082B53D12B4B5A6802F0CD
:102130003F025B6813F4800F28D0274B5B68C3F322
:10214000881358010021C01A61F100018E0146EA8E
:10215000906687013C1A66EB0105E90041EA54717B
:10216000E000C01841F100014B0243EAD0534402A1
:10217000204619460023FEF799FC174B5B68C3F312
:10218000014301335B00B0FBF3F023E0124B5B68CB
:10219000C3F388135C010025E41A65F10005AE0164
:1021A00046EA9466A701381B66EB0501CC0044EAB9
:1021B0005074C500E81844F100018B0243EA9053C3
:1021C0008402204619460023FEF770FCD5E7034839
:1021D00000E00348F8BD00BF0038024000127A005A
:1021E0000024F400002800F09B8070B50D460446E2
:1021F0004F4B1B6803F007038B4208D2CBB24C4A0B
:102200001370136803F007038B4240F08B80236840
:1022100013F0020F17D013F0040F04D0454A93684F
:1022200043F4E0539360236813F0080F04D0414A4D
:10223000936843F4604393603E4A936823F0F0034D
:10224000A1680B439360236813F0010F32D06368D9
:10225000012B21D09A1E012A25D9364A126812F084
:10226000020F61D033498A6822F0030213438B6066
:1022700000F0AAFA06462F4B9B6803F00C03626835
:10228000B3EB820F16D000F09FFA801B41F2883327
:102290009842F0D9032042E0264A126812F4003F27
:1022A000E0D101203BE0234A126812F0007FD9D12F
:1022B000012034E01E4B1B6803F00703AB4207D933
:1022C000EAB21B4B1A701B6803F00703AB422DD117
:1022D000236813F0040F06D0164A936823F4E053E2
:1022E000E1680B439360236813F0080F07D0114A8D
:1022F000936823F46043216943EAC1039360FFF7C5
:102300000BFF0C4B9B68C3F303130B4AD35CD84001
:102310000A4B18600A4B186800F00AFA002070BDDA
:10232000012070470120FAE70120F8E70120F6E7D5
:10233000003C0240003802400C5800080800002011
:1023400004000020014B1868704700BF08000020FF
:1023500008B5FFF7F7FF044B9B68C3F38223034ADA
:10236000D35CD84008BD00BF003802401C580008AC
:1023700008B5FFF7E7FF044B9B68C3F34233034AFA
:10238000D35CD84008BD00BF003802401C5800088C
:1023900000230F2B00F2DD80F0B482B05DE0866890
:1023A0005F000324BC4026EA0406CC68BC403443EA
:1023B0008460466826EA02064C68C4F300129A401C
:1023C0003243426057E0DC08083450F8247003F0D0
:1023D000070296000F22B24027EA02070A69B240BC
:1023E0003A4340F824205AE0072200E00022B2409D
:1023F0003A430234574E46F82420574A1468EA43B9
:1024000024EA05064F6817F4803F01D045EA040628
:10241000514C2660646802EA04064F6817F4003FD6
:1024200001D045EA04064C4C6660A46802EA040642
:102430004F6817F4801F01D045EA0406464CA66099
:10244000E46822404E6816F4001F01D045EA0402F9
:10245000414CE26001330F2B78D801229A400C687E
:1024600004EA020532EA0404F4D14C6804F00304DF
:10247000013C012C93D94A6802F00302032A09D0D7
:10248000C4685E000322B24024EA02048A68B240B3
:102490002243C2604A6802F00302022A93D0046811
:1024A0005E000322B24024EA02044A6802F00302FA
:1024B000B240224302604A6812F4403FCAD0002270
:1024C0000192264A546C44F480445464526C02F4E1
:1024D00080420192019A9C08A61C1E4A52F826705E
:1024E00003F0030296000F22B24027EA02071C4ABB
:1024F00090423FF47BAF02F5806290421AD002F521
:102500008062904218D002F58062904216D002F5A7
:102510008062904214D002F58062904212D002F59F
:102520008062904210D002F5806290423FF45CAF2E
:1025300008225CE701225AE7022258E7032256E705
:10254000042254E7052252E7062250E702B0F0BC0D
:102550007047704700380140003C0140003802409D
:10256000000002400AB1816170470904816170472F
:10257000436901EA030221EA030141EA0241816160
:102580007047704708B5054B5B69034200D108BD31
:10259000024B5861FFF7F5FFF9E700BF003C01402F
:1025A00070B50446866D00F00FF994F83530DBB253
:1025B000022B06D080236365002384F83430012089
:1025C00070BD05462268136823F016031360226865
:1025D000536923F080035361236CE3B122681368CD
:1025E00023F0080313602268136823F001031360CB
:1025F00023681B6813F0010F11D000F0E5F8431BAE
:10260000052BF5D920236365032084F835000023CA
:1026100084F83430D4E7A36C002BDFD1E3E7E26D1C
:102620003F239340B360012384F83530002084F8C1
:102630003400C5E790F83530DBB2022B03D080239D
:10264000436501207047052380F835300268136820
:1026500023F001031360002070470000074AD3688D
:1026600023F4E0631B041B0C000200F4E06003434E
:1026700043F0BF6343F40033D360704700ED00E0E4
:1026800030B4174BDB68C3F30223C3F10704042CF7
:1026900028BF04241D1D062D18D9033B4FF0FF351C
:1026A00005FA04F421EA0401994005FA03F322EA49
:1026B0000303194300280BDB0901C9B200F1604094
:1026C00000F5614080F8001330BC70470023E5E757
:1026D00000F00F000901C9B2024B1954F4E700BF22
:1026E00000ED00E014ED00E0002807DB00F01F0221
:1026F000400901239340024A42F82030704700BF4E
:1027000000E100E00138B0F1807F0AD2064B58604A
:10271000064AF02182F823100020986007221A60F0
:1027200070470120704700BF10E000E000ED00E0BE
:1027300010B504460E4B18784FF47A73B3FBF0F3E0
:102740000C4A1068B0FBF3F0FFF7DCFF68B90F2C00
:1027500001D901200AE0002221464FF0FF30FFF7A7
:102760008FFF054B1C60002000E0012010BD00BF62
:1027700000000020080000200400002008B50B4BDA
:102780001A6842F400721A601A6842F480621A6091
:102790001A6842F480721A600320FFF75FFF00207E
:1027A000FFF7C6FFFEF7F0FF002008BD003C024027
:1027B000034A1168034B1B780B441360704700BF3A
:1027C000B804002000000020014B1868704700BFCB
:1027D000B804002038B50446FFF7F6FF0546B4F10B
:1027E000FF3F02D0044B1B781C44FFF7EDFF401B5A
:1027F000A042FAD338BD00BF000000202DE9F04709
:1028000082B00546884617461E46FFF7DDFF0A9B45
:102810001B1A03EB0609FFF7D7FF82462A4B1B68FA
:10282000C3F3CB3309FB03F301932B689C6838EAAD
:1028300004030CBF01240024BC4240D0B6F1FF3F8A
:10284000F3D0FFF7C1FFA0EB0A0048450AD2B9F167
:10285000000F07D0019A02B14A46019B013B019348
:102860009146E2E72A68536823F0E00353606B68FF
:10287000B3F5827F0BD0AB6AB3F5005F14D00123B0
:1028800085F85130002385F85030032018E0AB68FC
:10289000B3F5004F02D0B3F5806FECD12A6813680E
:1028A00023F040031360E6E72A68136823F400531B
:1028B00013602A68136843F400531360DFE70020B5
:1028C00002B0BDE8F08700BF0800002030B585B039
:1028D0000446164B1868164BA3FB0030400D4FF40E
:1028E0007A7505FB00F003906368B3F5827F0BD027
:1028F000039BBBB1039B013B039323689B6813F0CD
:10290000800FF5D100200EE000920B4600228021BE
:102910002046FFF773FF30B1636D43F0200363651A
:10292000032000E0002005B030BD00BF08000020FB
:10293000819F5E1600285AD010B50446436A33B909
:102940004368B3F5827F05D00023C36102E0002312
:10295000036143610023A36294F85130002B40D0FF
:10296000022384F851302268136823F04003136077
:10297000636803F48273A26802F404421343E268BA
:1029800002F400621343226902F0020213436269F7
:1029900002F001021343A26902F400721343E269D8
:1029A00002F038021343226A02F080021343A26A43
:1029B00002F40052216813430B60638B03F004039D
:1029C000626A02F01002216813434B602268D369E7
:1029D00023F40063D36100206065012384F8513043
:1029E00010BD84F850302046FEF7CCFAB8E701203D
:1029F00070472DE9F04383B01D4690F85030012B0D
:102A000000F0CC80044688469146012380F850307F
:102A1000FFF7DAFE074694F85160F6B2012E40F057
:102A2000AA80B8F1000F00F0A780B9F1000F00F004
:102A3000A380032384F8513000236365C4F83080F9
:102A4000A4F83490A4F83690A363A387E387636463
:102A50002364A368B3F5004F1ED023681A6812F0F0
:102A6000400F03D11A6842F040021A60E368B3F5E0
:102A7000006F1CD0636813B1B9F1010F52D1226B02
:102A8000236812781A73236B01332363E38E9BB29E
:102A9000013B9BB2E38645E02268136823F04003C4
:102AA00013602268136843F480431360D5E76368BA
:102AB00013B1B9F1010F16D1226B23681288DA60C5
:102AC000236B02332363E38E9BB2013B9BB2E3860D
:102AD00009E0FFF779FEC01BA84202D3B5F1FF3F22
:102AE00054D1002D54D0E38E9BB2002B2ED02368FE
:102AF0009A6812F0020FECD0226B1288DA60236B16
:102B000002332363E38E9BB2013B9BB2E386EAE789
:102B1000FFF75AFEC01BA84202D3B5F1FF3F39D1DF
:102B2000002D39D0E38E9BB283B123689A6812F0EE
:102B3000020FEDD0226B12781A73236B01332363DB
:102B4000E28E92B2013A92B2E286EBE73A46294629
:102B50002046FFF7BBFE08B120236365A36833B9A5
:102B600001932368DA6801929B680193019B636D6E
:102B700013B9002600E00226012384F85130002317
:102B800084F85030304603B0BDE8F0830326F3E705
:102B90000326F1E70326EFE70326EDE70226F1E738
:102BA00030B4036A056A25F001050562846924F0E2
:102BB000F00444EA021423F00A030B438461036225
:102BC00030BC704730B4056A25F010050562846991
:102BD000036A24F4704444EA023423F0A00343EA75
:102BE00001138461036230BC7047836823F0700373
:102BF0000B4343F0070383607047000090F83D30BB
:102C0000DBB2012B37D1022380F83D300268D36854
:102C100043F00103D3600368194A934220D0B3F113
:102C2000804F1DD0A2F57C42934219D002F58062FC
:102C3000934215D002F58062934211D002F578429A
:102C400093420DD002F57052934209D0A2F594320E
:102C5000934205D01A6842F001021A6000207047C2
:102C60009A6802F00702062A07D01A6842F00102A9
:102C70001A6000207047012070470020704700BF95
:102C8000000001400268D36823F00103D3600368A9
:102C9000196A41F21112114208D1196A40F24442F4
:102CA000114203D11A6822F001021A60012380F850
:102CB0003D3000207047704770477047704710B52F
:102CC000044603681A6912F0020F11D0DA6812F094
:102CD000020F0DD06FF002021A610123037703681F
:102CE0009B6913F0030F70D0FFF7E6FF00232377F3
:102CF00023681A6912F0040F12D0DA6812F0040F78
:102D00000ED06FF004021A610223237723689B69B7
:102D100013F4407F5FD02046FFF7CEFF00232377D8
:102D200023681A6912F0080F12D0DA6812F0080F3F
:102D30000ED06FF008021A61042323772368DB6941
:102D400013F0030F4ED02046FFF7B6FF0023237782
:102D500023681A6912F0100F12D0DA6812F0100FFF
:102D60000ED06FF010021A61082323772368DB6905
:102D700013F4407F3DD02046FFF79EFF00232377CA
:102D800023681A6912F0010F03D0DA6812F0010FFC
:102D900036D123681A6912F0800F03D0DA6812F076
:102DA000800F34D123681A6912F0400F03D0DA681B
:102DB00012F0400F32D123681A6912F0200F03D0AD
:102DC000DA6812F0200F30D110BDFFF774FF2046F3
:102DD000FFF773FF8AE72046FFF76DFF2046FFF7F6
:102DE0006CFF9BE72046FFF766FF2046FFF765FF75
:102DF000ACE72046FFF75FFF2046FFF75EFFBDE729
:102E00006FF001021A61204601F038F8C1E76FF057
:102E100080021A61204600F070F9C3E76FF04002AB
:102E20001A612046FFF74AFFC5E76FF020021A61DA
:102E3000204600F061F9C7E70368304A904212D09B
:102E4000B0F1804F0FD0A2F57C4290420BD002F53A
:102E50008062904207D002F58062904203D002F572
:102E60007842904203D123F070034A681343234A07
:102E700090422AD0B0F1804F27D0A2F57C429042F8
:102E800023D002F5806290421FD002F5806290420A
:102E90001BD002F57842904217D002F57052904252
:102EA00013D002F5806290420FD002F5806290420A
:102EB0000BD0A2F59832904207D002F58062904282
:102EC00003D002F58062904203D123F44073CA68B4
:102ED000134323F080034A69134303608B68C36282
:102EE0000B688362054B984203D003F580639842D8
:102EF00001D10B6903630123436170470000014066
:102F000040B310B5044690F83D30F3B1022384F885
:102F10003D30214651F8040BFFF78EFF012384F862
:102F2000463084F83E3084F83F3084F8403084F8EE
:102F3000413084F8423084F8433084F8443084F8D7
:102F4000453084F83D30002010BD80F83C30FEF75D
:102F500025F9DBE70120704710B4846824F47F442E
:102F600042EA03220A43224382605DF8044B704721
:102F700090F83C30012B78D010B50446012380F83E
:102F80003C30022380F83D300268936823F47F438D
:102F900023F0770393600B68602B4CD029D8402B2B
:102FA00054D00CD9502B22D1CA6849680068FFF769
:102FB000F7FD50212068FFF718FE002005E0202BC8
:102FC0000DD009D9302B0AD00120012384F83D30DF
:102FD000002384F83C3010BD0BB1102B05D11946ED
:102FE0002068FFF702FE0020EFE70120EDE7012057
:102FF000EBE7B3F5805F34D0B3F5005F0CD1CB685D
:103000004A6889680068FFF7A7FF2268936843F45D
:10301000804393600020D8E7702B24D1CB684A68A6
:1030200089680068FFF798FF2268936843F0770388
:1030300093600020C9E7CA6849680068FFF7C2FDCD
:1030400060212068FFF7D1FD0020BEE7CA6849680B
:103050000068FFF7A5FD40212068FFF7C6FD0020AE
:10306000B3E70020B1E70120AFE70220704700007E
:1030700090F83C30012B3BD030B4012380F83C3039
:10308000022380F83D3003685C689D6824F070047A
:103090000A6822435A600368164A93421AD0B3F171
:1030A000804F17D0A2F57C42934213D002F5806284
:1030B00093420FD002F5806293420BD002F5784222
:1030C000934207D002F57052934203D0A2F5943296
:1030D000934204D125F080054A6815439D60012381
:1030E00080F83D30002380F83C30184630BC7047F3
:1030F000022070470000014070477047026802F1EB
:103100000C0353E8003F23F490730C3242E8003183
:103110000029F3D1026802F1140353E8003F23F0C1
:103120000103143242E800310029F3D1036B012B73
:1031300005D0202380F83E300023036370470268E7
:1031400002F10C0353E8003F23F010030C3242E875
:1031500000310029F3D1ECE790F83D30DBB2212BB0
:1031600001D0022070478368B3F5805F17D0036AEF
:103170005A1C02621A7803685A60C38C9BB2013BE6
:103180009BB2C3844BB90268D36823F08003D36039
:103190000268D36843F04003D3600020704703699E
:1031A000002BE4D1036A1B880268C3F30803536051
:1031B000036A02330362E0E770B5044602681369EC
:1031C00023F44053C1680B431361836802691343BE
:1031D00042691343C2691A430168CB6823F416435A
:1031E00023F00C031343CB600268536923F440734C
:1031F00081690B4353610368344A934206D002F558
:103200008062934202D0FFF7A3F801E0FFF7B0F825
:10321000E369B3F5004F2AD00026051846EB0601F6
:103220002D1846EB0101CB0043EA5573EA00154621
:10323000194663689A009B0F281846EB0101FDF7B9
:1032400035FC234DA5FB00325109642303FB110318
:103250001B013233A5FB03235B0903F0F00202EBF1
:10326000011203F00F03216813448B6070BD002628
:10327000051846EB06012D1846EB0101CB0043EA89
:103280005573EA001546194662683346921846EBB4
:103290000303281846EB0101FDF708FC0C4DA5FBC4
:1032A00000325109642303FB1103DB003233A5FB19
:1032B00003235B095A0002F4F87202EB011203F0D7
:1032C0000703216813448B60D0E700BF0010014062
:1032D0001F85EB5158B310B5044690F83D300BB341
:1032E000242384F83D302268D36823F40053D3604C
:1032F0002046FFF761FF2268136923F490431361AE
:103300002268536923F02A0353612268D36843F487
:103310000053D36000202064202384F83D3084F8DB
:103320003E3010BD80F83C30FDF7BEFFD8E70120ED
:10333000704790F83D30DBB2202B16D1B9B1C2B145
:1033400090F83C30012B16D001628284C2840023A5
:103350000364212280F83D2080F83C300168CA686F
:1033600042F08002CA601846704702207047012070
:103370007047012070470220704708B50168CA688D
:1033800022F04002CA60202280F83D2000F046FD75
:10339000002008BD704708B5806B0023C385C38437
:1033A000FFF7F8FF08BD704710B50446226802F128
:1033B0000C0353E8003F23F0C0030C3242E8003115
:1033C0000029F3D123685B6913F0800F20D02268B5
:1033D00002F1140353E8003F23F08003143242E863
:1033E00000310029F3D1636B4BB10E4A1A65606B53
:1033F000FFF720F9A0B1606B036D984710E0002340
:10340000E384202384F83D302046FFF7CCFF07E01B
:103410000023E384202384F83D302046FFF7C3FFD8
:10342000002010BD2934000808B5806B0023C38438
:10343000202380F83D30FFF7B6FF08BD704700003D
:1034400010B50446226802F10C0353E8003F23F450
:1034500090730C3242E800310029F3D1226802F166
:10346000140353E8003F23F00103143242E8003113
:103470000029F3D1236B012B1CD023685B6913F067
:10348000400F2ED0226802F1140353E8003F23F0CE
:103490004003143242E800310029F3D1A36BB3B1E9
:1034A000154A1A65A06BFFF7C5F818B3A06B036D3A
:1034B00098471FE0226802F10C0353E8003F23F015
:1034C00010030C3242E800310029F3D1D5E7002384
:1034D000E385202284F83E2023632046FFF7AEFFD9
:1034E00008E00023E385202284F83E202363204661
:1034F000FFF7A4FF002010BDFD34000808B5806B65
:103500000023C385202280F83E200363FFF796FF47
:1035100008BD704790F83E30DBB2222B67D183683C
:10352000B3F5805F4DD0826AB3F5805F04D0002B85
:1035300054D10369002B51D103685B681370836A0F
:1035400001338362C38D9BB2013B9BB2C385002BC9
:103550004FD100B583B00268D36823F02003D36055
:103560000268D36823F48073D3600268536923F040
:1035700001035361202380F83E30036B012B33D1CC
:1035800000230363026802F10C0353E8003F23F0B9
:1035900010030C3242E800310029F3D103681A68A5
:1035A00012F0100F06D0002201921A6801925B6897
:1035B0000193019B818DFFF7ACFF002003B05DF804
:1035C00004FB0269002AAED1826A03685B68C3F318
:1035D00008031380836A02338362B3E703685B687E
:1035E00003F07F031370AAE700F000FCE5E7022078
:1035F000704700207047000030B583B00446026871
:103600001368D068516913F00F0505D113F0200F2E
:1036100002D010F0200F19D12DB111F0010119D1F4
:1036200010F4907F16D1216B01297DD013F0800F0B
:1036300003D010F0800F40F0158113F0400F03D03D
:1036400010F0400F40F0128103B030BD2046FFF76C
:1036500061FFF9E713F0010F06D010F4807F03D06B
:10366000226C42F00102226413F0040F04D019B15D
:10367000226C42F00202226413F0020F04D019B14E
:10368000226C42F00402226413F0080F07D010F0FD
:10369000200F00D119B1226C42F008022264226C82
:1036A000002AD1D013F0200F02D010F0200F29D122
:1036B00023685B6903F04003226C12F0080F00D10D
:1036C00063B32046FFF71AFD23685B6913F0400FD0
:1036D00020D0226802F1140353E8003F23F0400396
:1036E000143242E800310029F3D1A36B73B1614A6F
:1036F0001A65A06BFEF79EFF0028A5D0A06B036D96
:103700009847A1E72046FFF705FFD1E72046FFF7DE
:1037100041FE99E72046FFF73DFE95E72046FFF77B
:1037200039FE002323648FE713F0100F3FF47EAFC0
:1037300010F0100F3FF47AAF002301931368019348
:1037400053680193019B536913F0400F50D0A26B53
:1037500013685B689BB2002B3FF476AFA18D994252
:103760007FF672AFE385D369B3F5807F37D02268E7
:1037700002F10C0353E8003F23F480730C3242E85B
:1037800000310029F3D1226802F1140353E8003F0D
:1037900023F00103143242E800310029F3D12268FA
:1037A00002F1140353E8003F23F04003143242E8CF
:1037B00000310029F3D1202384F83E300023236315
:1037C000226802F10C0353E8003F23F010030C328F
:1037D00042E800310029F3D1A06BFEF7E1FEA18D94
:1037E000E38D9BB2C91A89B22046FFF792FE2BE700
:1037F000A18DE38D9BB2C91A89B2E38D9BB2002BD8
:103800003FF422AF00293FF41FAF226802F10C03FE
:1038100053E8003F23F490730C3242E80030002854
:10382000F3D1226802F1140353E8003F23F00103AF
:10383000143242E800300028F3D1202384F83E30CF
:1038400000232363226802F10C0353E8003F23F0B6
:1038500010030C3242E800300028F3D12046FFF775
:1038600058FEF1E62046FFF777FCEDE62046FFF72D
:1038700084FDE9E697330008034681628285C285AC
:1038800000201864222283F83E2083F83C00196847
:10389000CA6842F48072CA6019684A6942F001023B
:1038A0004A611A68D36843F02003D360704708B5B3
:1038B00090F83E30DBB2202B0DD171B17AB190F887
:1038C0003C30012B0DD0012380F83C3000230363F2
:1038D000FFF7D2FF00E0022008BD0120FCE7012035
:1038E000FAE70220F8E70000034AD2F8883043F4F0
:1038F0007003C2F88830704700ED00E038B50B88DF
:10390000052B01D0032038BD0C464378817841EA6D
:103910000321013189B2C378027942EA0322531E9E
:103920009BB240F2CE75AB4220D800232380012306
:10393000037023880133238012F0070F10D0C2F3E5
:10394000C7030133DDB24570238801332380002390
:10395000023000F071FD30B923882B442380D2E778
:10396000C2F3C705EFE700F0D9F9CCE70320CAE7B7
:103970000B88052B01D0032070474378817841EAFA
:103980000321013189B20379F3B9C278531EDBB246
:10399000FD2B1BD900B583B000238DF80530FF2A1D
:1039A0000BD000238DF8043001231A4601A800F043
:1039B00043FD30B903B05DF804FB01238DF80430FA
:1039C000F2E700F0ABF9F5E70320704703207047FA
:1039D0000B88052B2AD970B50C464178837843EAC9
:1039E0000123013399B2C278037943EA022246796E
:1039F00013F0070F0CD0C2F3C7050135EDB2531E0B
:103A00009BB2B3F5F66F13D2B54204D0032070BD5C
:103A1000C2F3C705F3E70123063000F00DFD10B92E
:103A200005232380F3E700F079F9F0E703207047DE
:103A30000320ECE738B50B88052B01D0032038BDF7
:103A40000C464378817841EA0321013189B2C37879
:103A5000027942EA0322531E9BB240F2CE75AB427A
:103A60001FD800232380022303702388013323807F
:103A700012F0070F0FD0C2F3C7030133DDB2457058
:103A8000238801332380023000F034FD30B92388CD
:103A90002B442380D3E7C2F3C705F0E700F03EF9DB
:103AA000CDE70320CBE708B50B88052B01D0032019
:103AB00008BD4378817841EA0321013101231A4688
:103AC00089B2033000F07AFC0028F1D000F026F92A
:103AD000EEE738B50B88052B20D90C464178837862
:103AE00043EA0123013399B2C378027942EA0322FF
:103AF0004579531E9BB2772B12D85300DBB2AB42F1
:103B000001D003200BE00123063000F057FC10B970
:103B10000523238003E000F001F900E0032038BD15
:103B20000320FCE70B88052B01D00320704770B5FC
:103B30000C464378817841EA0321013189B2C37888
:103B4000057945EA03256B1E9BB27C2B01D9032026
:103B500070BD002323800646032206F8022B22882C
:103B6000013222806A0042702288013222802A4675
:103B7000304600F023FC20B9238803EB450525805F
:103B8000E6E700F0CBF8E3E7F8B50B88092B45D959
:103B900004460D464378817841EA032101318EB213
:103BA000C378077947EA03274379817941EA0321FA
:103BB000013189B2C379027A42EA0322407A7B1E3C
:103BC0009BB27C2B2CD86AB3792A2DD8B0EB420F4C
:103BD00001D0032023E0012304F10A0000F0EEFBF2
:103BE000034618B1D8B100F099F818E028802046B3
:103BF000172200F8022B2A8801322A807A0062708C
:103C00002A8801322A803A46314600F0D7FB002844
:103C1000E8D12B8803EB47072F80E3E70020F8BDAE
:103C20000320FCE70320FAE70320F8E738B50B8808
:103C3000052B01D0032038BD0C464378817841EA3A
:103C40000321013189B2C378057945EA03256B1E4A
:103C50009BB27B2B01D90320EDE700232380034691
:103C6000042203F8022B2288013222806A0042706B
:103C70002288013222802A46184600F07BFB20B9B8
:103C8000238803EB45052580D5E700F047F8D2E708
:103C900038B50D46054B1C8822460549013000F019
:103CA000EBFF01342C80002038BD00BFA4010020B0
:103CB0008401002070B4CD0801F0070403FA04F673
:103CC000012404FA02F39BB2013B9BB201F007010D
:103CD00003FA01F1435D2A19845C43EA04231BB211
:103CE00023EA01031BB233434355C3F30723835431
:103CF00070BC704710B4CC08012393409BB2013BC9
:103D0000025D2044407842EA002001F007010841AA
:103D100080B21840C0B25DF8044B7047012805D04E
:103D2000072805D008B1042070477047022070476B
:103D300006207047024B00221A700120704700BF16
:103D4000A70100200123034A1370034A107018468C
:103D5000704700BFA7010020A60100200346054AC6
:103D6000107830B1044A12781A70024B00221A708F
:103D700001207047A7010020A6010020014B186018
:103D800001207047BC04002010B50C4650B1012240
:103D900009490A4B1868FFF78AFD44B1084B1B68B4
:103DA000984710BD054B1868FFF74AFBF5E7034B32
:103DB0001868FFF7F9FAF4E7A8010020BC04002016
:103DC000C805002008B50A460146034B1868FFF7EE
:103DD000B0FA012008BD00BFBC040020024B1B78D4
:103DE00003700120704700BFA801002008B50268D9
:103DF000074B1B681B689A4200D008BD054B1B6827
:103E0000984701220449024B1868FFF750FDF4E778
:103E1000BC040020D0050020A801002008B50268DD
:103E2000044B1B681B689A4200D008BD024B1B68FC
:103E30009847FAE7BC040020C8050020024B19602F
:103E4000024B188001207047C0040020AC01002004
:103E500008B5044B00221A80034B1868FEF7CEFE0B
:103E600008BD00BFAA010020C004002008B5024B15
:103E70001868FEF707FF08BDC004002008B50268F7
:103E8000084B9A4200D008BD074A13889BB2013301
:103E90009BB21380054A12889342F4D3044B1B68EB
:103EA0009847F0E700080040AA010020AC0100207C
:103EB000CC05002072B6024A1368013313607047C4
:103EC000B0010020034A1368013B136003B962B6D6
:103ED000704700BFB001002030B4FF2215464B1ED2
:103EE0009CB249B110F8013B5340054AD25C6A408C
:103EF0000449CD5C2146F2E742EA052030BC704718
:103F0000245800082459000870B50E4614461D4672
:103F1000FFF7D0FF2A4621463046FFF72FFF012842
:103F200004D00324FFF7CEFF204670BDB4F5964FB2
:103F30000BD864000748B0FBF4F0294680B2FFF7C5
:103F40007DFF012803D00324ECE72320F5E70024BC
:103F5000E8E700BFA07F170008B5FFF7ABFF00211F
:103F6000044B19700120FFF70FFFFFF771FFFFF7F8
:103F7000A9FF08BDB401002008B5FFF79BFF002191
:103F80000846FFF701FFFFF771FFFFF79BFF08BD32
:103F900070B506460D461446FFF78CFF0F4B1B8885
:103FA0009BB2032B04D80524FFF78CFF204670BD7D
:103FB0000A4B198889B20A48FFF78EFF58B9084A98
:103FC00012F8013B3370054B1B889BB2033B2380E7
:103FD0002A600024E8E70524E6E700BFBC010020D2
:103FE000C80400202DE9F04106460F461446FFF7AD
:103FF00061FF1C4B1B78DBB2012B05D00524FFF7BA
:1040000061FF2046BDE8F081781E174B1860174D00
:104010004FF00108A5F8008007F8016C2A8814FA0F
:1040200082F292B22A80298889B2FFF755FF2B8845
:104030009BB203EB080292B22A80C2B20C49CA5466
:104040002B889BB203EB080292B22A80C0F30720B0
:10405000C854084B83F8008041460020FFF794FEC7
:104060000024CCE7B4010020B8010020BE010020EC
:10407000C8040020B501002000B583B00DF1070091
:10408000FFF7ACFE1C4B1B78DBB2032B05D8DFE837
:1040900003F0020B1D08FFF7DBFE002003B05DF804
:1040A00004FBFFF7D5FEF8E7144A002313801388BA
:1040B0009BB2591C89B211809DF80710104AD15447
:1040C0000D4B02221A70FFF7C3FEE6E70B4B1B886D
:1040D0009BB2FF2B0CD809490B889BB25A1C92B299
:1040E0000A809DF80710064AD154FFF7B1FED4E7C5
:1040F000014B03221A70F8E7B4010020BC01002034
:10410000C804002038B5144B1B7803F0FF0423B11A
:10411000012C07D00024204638BD00210120FFF7E4
:1041200033FEF8E70D4B1B889BB24BB10B4D298832
:1041300089B20B4B1868FFF745FE00242C80EAE794
:104140000820FFF7FFFD044600210120FFF71CFEB9
:10415000014B00221A70DEE7B5010020BE010020ED
:10416000B801002010B50C4B1B785BB103F0FF02C7
:10417000022A0CD00024FFF779FE074B01221A70A7
:10418000204610BD0120FFF7DDFD0446F3E70220C5
:10419000FFF7D8FD0446EEE7B401002038B5054628
:1041A00008464C1EE4B2F62C2AD811461A46174B84
:1041B00018700DB1022424E0154B164C1C60164BF0
:1041C000164C1C60164B174C1C60174B174C1C6090
:1041D000174B00241C60174B174C1C60174B184CD6
:1041E0001C60184B184C1C60049BFFF78DFE0446A6
:1041F00038B9FFF79FFD30B1144B01221A7000E06F
:104200000224204638BD0324FBE700BFD90100206B
:10421000D0010020593F0008D4010020793F000858
:10422000C8010020E53F0008C4010020913F0008BC
:10423000CC010020D005002079400008C8050020EE
:1042400005410008CC050020654100080C00002055
:1042500008B5064B1B78012B01D0062008BD044B86
:104260001B6898470020014B1870F7E70C000020EE
:10427000D001002070B582B0344B1C78002C5ED188
:104280000DF10700FFF76AFD012802D0204602B0B9
:1042900070BD9DF80730022B0BD0042BF6D12C4BB0
:1042A000186801782B4B19702B4B01221A700023D0
:1042B00016E02A4B1B682A4A25492A489847054692
:1042C0000028E3D1274B1B78274A1278934201D06C
:1042D000002B36D10420FFF735FD2C46D6E70133FD
:1042E0000F2B0DDC214A12F833204AB19142F6D14E
:1042F0001E4A02EBC3035B6819499847164B1870B6
:10430000184B1B78FBB1144B1B7873B1114A117811
:104310000F480568124A0126168041F08001297075
:10432000006811888D1915804354114B1B680C4A85
:104330001288074909680C4800789847A6E70624C0
:10434000A4E70446A2E71C46A0E700BF0C0000203B
:10435000DC010020D8010020C0010020C4010020A1
:10436000E2010020E0010020D9010020100000201F
:10437000C801002030B40F4B1C884B1E9BB299180B
:104380000A2915DC1B1B9BB27AB10B4D35F8134083
:10439000240A014601F8024B15F81340447001331A
:1043A0009BB2013A92B20846EEE7002030BC70475B
:1043B0000120FBE7EA010020F805002070B41C4C46
:1043C0002588013989B28C180A2C2DDC491B89B249
:1043D00093B1012B24D0002027E0164E36F811505F
:1043E0002D0A044604F8025B16F81150457001319D
:1043F00089B2013A92B22046002AEED1184614E062
:10440000044614F8023B0B4D1B0225F8113040788E
:10441000034325F81130013189B2013A92B22046A6
:10442000002AEDD1002000E0012070BC704700BFE1
:10443000E8010020E40500202DE9F04716461F465C
:10444000D4082A4B1A88013989B28B190A2B4ADC05
:104450000134891AC1F3CC0501F00708A7B1012F77
:1044600032D0002040E005F1010A1FFA8AFA8146A5
:10447000082241461E482844FFF73CFC09F8010B7E
:10448000013CA4B255464846002CECD106F0070288
:1044900010F8016CC2F108029640F6B2164100F81D
:1044A000016C384620E005F101091FFA89F9074639
:1044B00017F8013B082241460D482844FFF7FAFB54
:1044C000013CA4B24D463846012CECD816F0070248
:1044D00001D1002008E00378414605482844FFF751
:1044E000E9FB002000E00120BDE8F087E4010020A6
:1044F000DC0500202DE9F0419046D508174B1A88BD
:104500004F1EBFB207EB08030A2B25DC044601351A
:10451000BF1AC7F3CC0307F007076DB15E1CB6B234
:10452000082239460E481844FFF7E4FB04F8010B53
:10453000013DADB23346F0E708F0070814F8013C3E
:10454000C8F1080803FA08F3DBB243FA08F804F8E4
:10455000018C0020BDE8F0810120FBE7E60100208E
:10456000E005002082B08DED010A074B01AA1A6018
:10457000BDF80420054B23F810200130BDF80620BB
:1045800023F8102002B07047EC010020F80500204D
:1045900008B500224FF480510148FDF7E3FF08BD44
:1045A0000004024010B5074C002202212046FDF70E
:1045B000D9FF0520FEF70EF9012202212046FDF762
:1045C000D1FF10BD0004024000B583B08DF8070094
:1045D000002220210648FDF7C5FF4FF0FF330122DE
:1045E0000DF107010348FEF704FA03B05DF804FB80
:1045F000000802408C02002038B504460D46012216
:1046000020210548FDF7AEFF4FF0FF33AAB2214647
:104610000248FEF7EEF938BD000802408C02002087
:10462000F8B5064616F8012B09E039462046FFF793
:10463000E3FF3C440FE0FEF7CDF82A462646531E22
:10464000DDB292B1344614F8020BFFF7BDFF767865
:1046500016F07F07E9D116F0800FEED014F8010BA9
:10466000FF28E8D14FF4FA70E5E7F8BDF0B583B064
:1046700007460D4616461C462A20FFF7A5FF0023D5
:104680008DF8043002378DF805708DF8063002364B
:104690008DF8076004210DEB0100FFF7ADFF2B2023
:1046A000FFF792FF03358DF8055003348DF807406E
:1046B00004210DEB0100FFF79FFF2C20FFF784FF83
:1046C00003B0F0BD82B02DE9F04F83B093460D9357
:1046D000BDF83C80BDF84070C0B2C9B2DDB242192D
:1046E000D2B2C3F3072A01EB0A03DBB2013B013A62
:1046F000DBB2D2B2FFF7BAFF4FF000091DE03B0A70
:104700008DF804308DF80570022101A8FFF774FFC1
:104710000134A5420FD906FA04F313F4004FEED08A
:104720004FEA18238DF804308DF80580022101A886
:10473000FFF762FFECE709F10109CA4508D9ABF1BF
:1047400020030AFB03930E9A32F813600024E0E77B
:1047500003B0BDE8F04F02B07047000008B5012279
:104760004FF480510148FDF7FDFE08BD00040240F2
:1047700008B5FFF70DFFFFF715FF0648FFF750FFDD
:104780000548FFF74DFF0548FFF74AFFFFF7E6FF33
:1047900008BD00BF245A0008605A0008705A00087B
:1047A0007F281ED870B582B004460D4616467F2974
:1047B00001D902B070BDFFF7EBFEE0B2E9B24B1CCD
:1047C000421CDBB2D2B2FFF751FF330A8DF804303E
:1047D0008DF80560022101A8FFF70EFFFFF7BEFF6D
:1047E000E7E7704782B02DE9F04385B006460D46F5
:1047F00017460D93BDF83C90BDF84080FFF7C8FE0A
:1048000010E0013700260DE0CDF80880CDF80490C7
:104810000E9B00930D9B29463046FFF753FF34440F
:10482000A6B201373A787AB19DF8344033197F2B1C
:10483000EADD9DF835301D44ADB22B447F2B03DCFF
:10484000202ADED00026DFE7FFF788FF05B0BDE8AD
:10485000F04302B0704700002DE9F04182B0BDF88E
:1048600020707F283DD880460C4616461D467F297D
:1048700037D88318802B02DDC0F18006B6B26319E9
:10488000802B02DDC4F18005ADB2FFF781FE5FFA37
:1048900088F0E1B28219D2B24B19DBB2013B013A86
:1048A000DBB2D2B2FFF7E2FE3B0A8DF804308DF89E
:1048B0000570012220210C48FDF754FE0CE04FF05A
:1048C000FF33022201A90948FEF793F8013CA4B284
:1048D000002CF4D1013DADB20DB13446F8E7FFF73D
:1048E0003DFF02B0BDE8F081000802408C020020CC
:1048F00000B583B0009080231A4600210846FFF7D8
:10490000ABFF03B05DF804FB2DE9F04780460F468E
:1049100092461E46BDF8209000250BE0391908EBA1
:1049200005004A4689B280B2FFF73AFF0134A64239
:10493000F4DC0135AA4501DD0024F8E7BDE8F08785
:104940002DE9F0432DED028B83B006460F46B0EE05
:10495000408A15464FF00008B8F1120F11DC06EB43
:104960000804A4B22A4639462046FFF719FF07F18A
:1049700009012A4689B22046FFF712FF08F1010813
:10498000EAE74FF00008B8F1090F2ADC07EB08044A
:10499000A4B22A4621463046FFF702FF06F113096A
:1049A0001FFA89F906F112002A46214680B2FFF764
:1049B000F7FE08F1FF3303EBD37407EB6404A4B2F2
:1049C0000234A4B22A4621464846FFF7E9FE06F122
:1049D00014002A46214680B2FFF7E2FE08F10108E2
:1049E000D1E7DFED697A68EE277A17EE900AFBF7D8
:1049F00083FD63A3D3E90023FBF700FFFCF706F870
:104A000008EE100AB5EEC08AF1EE10FA06DDF2EEFD
:104A1000047AB4EEE78AF1EE10FA3CD9F2EE047AA9
:104A2000B4EEE78AF1EE10FA06DDF3EE097AB4EEA1
:104A3000E78AF1EE10FA44D9F3EE097AB4EEE78A88
:104A4000F1EE10FA06DDDFED517AB4EEE78AF1EE11
:104A500010FA66D9DFED4D7AB4EEE78AF1EE10FA7E
:104A600006DDDFED4B7AB4EEE78AF1EE10FA74D989
:104A7000DFED477AB4EEE78AF1EE10FA06DDDFEDFE
:104A8000427AB4EEE78AF1EE10FA77D903B0BDECC2
:104A9000028BBDE8F083BC1CA4B2B01C4FF4784379
:104AA000009306230222214680B2FFF72DFF301D1E
:104AB0000023009306230E22214680B2FFF724FF35
:104AC000ACE7BC1CA4B2B01C4FF6FF7300930623E6
:104AD0000322214680B2FFF717FF701D00230093C9
:104AE00006230D22214680B2FFF70EFFA4E7B91C72
:104AF00030194FF6FF7300930623032289B280B268
:104B0000FFF702FF0434062CF1DDB91C06F10900A1
:104B1000002300930623092289B280B2FFF7F4FE36
:104B200098E70224EFE7B91C30194FF6FF730093A2
:104B30000623032289B280B2FFF7E6FE04340A2C72
:104B4000F1DDB91C06F10D000023009306230522B8
:104B500089B280B2FFF7D8FE8AE70224EFE7B91CDA
:104B600030194FF6FF7300930623032289B280B2F7
:104B7000FFF7CAFE04340E2CF1DD87E70224FAE7C2
:104B80006666666666660A400000C84200004842E3
:104B90000000AA422DE9F047814688469A46002740
:104BA00015E009EB0506B6B2A8EB0704A4B24FF670
:104BB000FF7221463046FFF7F3FD611E002289B2E5
:104BC0003046FFF7EDFD0135012DEADD0137BA452D
:104BD00001DB0025F8E7BDE8F0870000DFF834D0FE
:104BE0000D480E490E4A002302E0D458C450043345
:104BF000C4188C42F9D30B4A0B4C002301E013601C
:104C00000432A242FBD3FEF76FFE00F011F8FBF76F
:104C1000D9FF70470000022000000020FC000020A7
:104C20004C620008FC0000201C060020FEE700008B
:104C300070B50D4D0D4C641BA4100026A64209D181
:104C40000B4D0C4C00F0BEFD641BA4100026A642C8
:104C500005D170BD55F8043B98470136EEE755F88D
:104C6000043B98470136F2E74462000844620008BA
:104C700044620008486200080A44914200F1FF3390
:104C800000D1704710B511F8014B03F8014F914264
:104C9000F9D110BD02440346934200D1704703F896
:104CA000011BF9E70EB400B59CB01DAB0290069055
:104CB0006FF00041094807910491094953F8042B0A
:104CC00005910068019302A900F068F8029B002298
:104CD0001A701CB05DF804EB03B070479800002018
:104CE0000802FFFF2DE9F0478E689E4282460C467F
:104CF00090461F4638D88A8912F4906F32D02568C2
:104D00000969A5EB0109656905EB450505EBD57555
:104D100001334B446D109D4238BF1D46530531D5BC
:104D2000294600F039FB064650B90C23CAF800307A
:104D3000A38943F04003A3814FF0FF30BDE8F08723
:104D400021694A46FFF798FFA38923F4906343F053
:104D50008003A381266165614E44A5EB09052660A9
:104D6000A5603E46BE4200D93E46324620684146D6
:104D700000F0A8FAA36822689B1B3244A36022605B
:104D80000020DBE72A4600F061FB06460028E1D15F
:104D90002169504600F0B0FAC7E700002DE9F04F56
:104DA00098468B891B069DB007460D4614460ED5C6
:104DB0000B6963B9402100F0EFFA2860286120B93F
:104DC0000C233B604FF0FF30D1E040236B610023A8
:104DD000099320238DF82930CDF80C803023DFF89B
:104DE000A8818DF82A304FF0010923469A4613F81E
:104DF000012B0AB1252AF9D1BAEB040B0BD05B4683
:104E0000224629463846FFF76DFF013000F0AA80A0
:104E1000099A5A4409929AF80030002B00F0A280B7
:104E200000234FF0FF32CDE905230AF1010A049374
:104E300007938DF853301A935446052214F8011B3A
:104E40005148FBF7A5F9049AD8B9D00644BF2023EE
:104E50008DF85330110744BF2B238DF853309AF847
:104E600000302A2B15D0079A544600204FF00A0C28
:104E7000214611F8013B303B092B4ED9B0B10792C6
:104E800014E0A0EB080309FA03F313430493A246CA
:104E9000D2E7039B191D1B680391002BBBBF5B422C
:104EA00042F0020207930793B8BF049223782E2B97
:104EB0000CD163782A2B35D1039B1A1D1B680392F2
:104EC000002BB8BF4FF0FF3302340593DFF8C8A0C2
:104ED000217803225046FBF75BF940B14023A0EB59
:104EE0000A0003FA00F0049B03430134049314F80E
:104EF000011B26488DF828100622FBF749F90028E7
:104F000038D0234B1BBB039B073323F00703083325
:104F10000393099B3344099367E70CFB02320C4669
:104F20000120A5E700230134059319464FF00A0C30
:104F3000204610F8012B303A092A03D9002BC5D09E
:104F40000591C3E70CFB012104460123F0E703AB05
:104F500000932A460F4B04A93846AFF30080421C49
:104F60000646D6D1AB895B063FF52CAF09981DB03C
:104F7000BDE8F08F03AB00932A46064B04A93846E0
:104F800000F07AF8EBE700BF086200081262000840
:104F900000000000E54C00080E6200082DE9F04713
:104FA000164699468A680B69DDF820809342B8BF9F
:104FB0001346336091F8432007460C460AB101338B
:104FC00033602368990642BF336802333360256833
:104FD00015F0060506D104F1190AE36832689B1A38
:104FE000AB4226DC94F84320131E226818BF01232D
:104FF00092062BD404F1430249463846C04701309B
:105000001ED02368E568326803F00603042B08BF4E
:10501000AD1AA36822690CBF25EAE5750025934205
:10502000C4BF9B1AED1800261A34B5421AD10020CD
:1050300008E00123524649463846C047013003D1B3
:105040004FF0FF30BDE8F0870135C6E7E1185A1C84
:10505000302081F84300224494F8451082F8431030
:105060000233C7E70123224649463846C04701308C
:10507000E6D00136D9E700002DE9FF470C469146FE
:10508000277E0C99782F80469A4604F1430207D870
:10509000622F0AD8002F00F0D880582F00F0A3808C
:1050A00004F1420684F842703AE0A7F16303152B3D
:1050B000F6D801A050F823F011510008255100083E
:1050C000A1500008A1500008A1500008A1500008FC
:1050D00025510008A1500008A1500008A150000867
:1050E000A150000831520008555100081352000821
:1050F000A1500008A150000853520008A150000818
:1051000055510008A1500008A15000081B5200088A
:105110000B681A1D1B680A6004F1420684F84230CD
:105120000123A3E0256808682E0600F104030AD5D0
:1051300005680B60002D03DA2D236D4284F843309F
:105140005E480A2319E015F0400F05680B6018BF90
:105150002DB2EFE70B682568181D0860280601D5F9
:105160001D6802E06906FBD51D8854486F2F0CBFEF
:1051700008230A23002184F843106668A660002EE5
:10518000A2BF216821F0040121600DB9002E4DD08D
:105190001646B5FBF3F103FB1157C75D06F8017D19
:1051A0002F46BB420D46F4D9082B0BD12368DF07ED
:1051B00008D5236961689942DEBF302306F8013CB7
:1051C00006F1FF36921B2261CDF800A04B4603AAE0
:1051D00021464046FFF7E2FE01304CD14FF0FF3050
:1051E00004B0BDE8F087354884F8457023680E6840
:1051F0001F0656F8045B0E6014D5D90744BF43F070
:10520000200323601DB9236823F0200323601023AB
:10521000B0E7236843F0200323607823284884F80C
:105220004530E3E75E0648BFADB2E6E71646BBE7AA
:105230000B68266860691D1D0D6035061B6801D569
:10524000186002E07106FBD5188000232361164622
:10525000BAE70B681A1D0A601E68626800213046B2
:10526000FAF796FF08B1801B606063682361002332
:1052700084F84330A8E72369324649464046D04780
:105280000130ABD023689B0713D4E068039B98429E
:10529000B8BF1846A4E70123324649464046D047E6
:1052A00001309BD00135E36803995B1AAB42F2DC15
:1052B000EBE7002504F11906F5E700BF19620008C5
:1052C0002A620008884210B501EB020402D9844228
:1052D000234607D8431EA14208D011F8012B03F83A
:1052E000012FF8E7024401468A4200D110BD13F8AD
:1052F000014D02F8014DF7E737B5002948D051F8C4
:10530000043C0190002BA1F10404B8BFE41800F0A4
:10531000D3F8204A01981368154633B963601460C6
:1053200003B0BDE8304000F0CDB8A3420BD92168EE
:105330006218934204BF1A685B68636004BF521826
:1053400022602C60ECE71A465B680BB1A342FAD9E5
:1053500011685518A5420BD1246821445418A34262
:105360001160DDD11C685B68536021441160D7E790
:1053700002D90C230360D3E7256861198B4204BF6F
:1053800019685B68636004BF491921605460C7E70E
:1053900003B030BDF0010020F8B5CD1C25F00305A9
:1053A00008350C2D38BF0C25002D064601DBA9421F
:1053B00003D90C2333600020F8BD00F07DF82149AB
:1053C0000A6814469CB9204F3B6823B921463046F1
:1053D00000F062F838602946304600F05DF8431C62
:1053E00023D10C233360304600F06CF8E3E72368E8
:1053F0005B1B17D40B2B03D923601C44256004E0EE
:105400006368A2420CBF0B605360304600F05AF84C
:1054100004F10B00231D20F00700C21ACCD01B1A88
:10542000A350C9E722466468CCE7C41C24F00304F7
:10543000A042E3D0211A304600F02EF80130DDD131
:10544000CFE700BFF0010020F4010020F8B50746C7
:1054500014460E4621B9BDE8F8401146FFF79CBF3F
:1054600022B9FFF749FF25462846F8BD00F030F87D
:10547000A0420FD221463846FFF78EFF054600288E
:10548000F2D031462246FFF7F7FB31463846FFF7A8
:1054900033FFE9E73546E7E738B5064D0023044614
:1054A00008462B6000F01EF8431C02D12B6803B1A4
:1054B000236038BD0C060020014800F011B800BF81
:1054C00014060020014800F00CB800BF14060020AC
:1054D00051F8043C181F002BBCBF0B58C018704774
:1054E00070477047044A05491368002B08BF0B46F4
:1054F0001844106018467047F8010020200600206C
:105500002DE9F047089D04468C46002B40F083802F
:105510008A42174647D9B2FA82F242B1C2F120005C
:1055200024FA00F09140974040EA010C94404FEA81
:105530001748230CBCFBF8F61FFA87FE08FB16C1C0
:1055400043EA014306FB0EF1994209D9FB1806F123
:10555000FF3080F01981994240F21681023E3B44AF
:105560005B1AA4B2B3FBF8F008FB103344EA03441F
:1055700000FB0EFEA64509D93C1900F1FF3380F06F
:105580000581A64540F2028102383C4440EA0640CB
:10559000A4EB0E0400261DB1D4400023C5E900434E
:1055A0003146BDE8F08702B9FFDEB2FA82F2002A86
:1055B00050D1CB1B4FEA174E1FFA87F80126B3FBD9
:1055C000FEFC210C0EFB1C3341EA034108FB0CF3EB
:1055D0008B4207D979180CF1FF3002D28B4200F2CE
:1055E000E9808446C91AA3B2B1FBFEF00EFB10118C
:1055F00043EA014408FB00F8A04507D93C1900F133
:10560000FF3302D2A04500F2D9801846A4EB08046B
:1056100040EA0C40BFE78B4209D9002D00F0B18071
:105620000026C5E9000130463146BDE8F087B3FAEF
:1056300083F6002E4AD18B4202D3824200F2B88018
:10564000841A61EB030101208C46002DA8D0C5E926
:10565000004CA5E7C2F1200320FA03F6974001FAB7
:1056600002F04FEA174ED9403043030CB1FBFEF66F
:105670001FFA87F80EFB161143EA014306FB08F1F7
:10568000994204FA02F409D9FB1806F1FF3C80F0B4
:105690008D80994240F28A80023E3B445B1A81B27F
:1056A000B3FBFEF00EFB103341EA034100FB08F3AD
:1056B0008B4207D9791800F1FF3C73D28B4271D924
:1056C00002383944CB1A40EA064678E7C6F1200C86
:1056D00003FA06F422FA0CF31C4320FA0CF701FA41
:1056E00006F34FEA144E21FA0CF11F433B0CB1FBB9
:1056F000FEF91FFA84F80EFB191143EA014109FB78
:1057000008FA8A4502FA06F200FA06F308D9611887
:1057100009F1FF3048D28A4546D9A9F1020921444E
:10572000A1EB0A01BFB2B1FBFEF00EFB101147EA7C
:10573000014700FB08F8B84507D9E71900F1FF3128
:105740002ED2B8452CD90238274440EA0940A7EBAD
:105750000807A0FB02894F45C64649461AD317D011
:105760005DB1B3EB0E0267EB010707FA0CFCF240E8
:105770004CEA0202F740C5E9002700263146BDE8A1
:10578000F0872E4628460BE70646E9E61846FDE672
:105790004345E5D2B8EB020E69EB04010138DFE7BF
:1057A0000846D2E760468DE78146B9E7664675E769
:1057B00030464AE7ACF1020C394413E702383C4466
:1057C00024E700BFF8B500BFF8BC08BC9E46704790
:0C57D000F8B500BFF8BC08BC9E4670474E
:1057DC00256C642E253033640000000041444320C6
:1057EC00766F6C746167650056000000435055205D
:1057FC0074656D7065726174757261002A43000086
:10580C000000000000000000010203040607080964
:10581C00000000000102030400C1814001C080416E
:10582C0001C0804100C1814001C0804100C1814064
:10583C0000C1814001C0804101C0804100C1814054
:10584C0000C1814001C0804100C1814001C0804144
:10585C0001C0804100C1814001C0804100C1814034
:10586C0000C1814001C0804100C1814001C0804124
:10587C0001C0804100C1814000C1814001C0804114
:10588C0001C0804100C1814001C0804100C1814004
:10589C0000C1814001C0804101C0804100C18140F4
:1058AC0000C1814001C0804100C1814001C08041E4
:1058BC0001C0804100C1814000C1814001C08041D4
:1058CC0001C0804100C1814001C0804100C18140C4
:1058DC0000C1814001C0804100C1814001C08041B4
:1058EC0001C0804100C1814001C0804100C18140A4
:1058FC0000C1814001C0804101C0804100C1814094
:10590C0000C1814001C0804100C1814001C0804183
:10591C0001C0804100C1814000C0C101C30302C26B
:10592C00C60607C705C5C404CC0C0DCD0FCFCE0ED3
:10593C000ACACB0BC90908C8D81819D91BDBDA1A43
:10594C001EDEDF1FDD1D1CDC14D4D515D71716D6B3
:10595C00D21213D311D1D010F03031F133F3F23223
:10596C0036F6F737F53534F43CFCFD3DFF3F3EFE93
:10597C00FA3A3BFB39F9F83828E8E929EB2B2AEA03
:10598C00EE2E2FEF2DEDEC2CE42425E527E7E62673
:10599C0022E2E323E12120E0A06061A163A3A262E3
:1059AC0066A6A767A56564A46CACAD6DAF6F6EAE53
:1059BC00AA6A6BAB69A9A86878B8B979BB7B7ABAC3
:1059CC00BE7E7FBF7DBDBC7CB47475B577B7B67633
:1059DC0072B2B373B17170B05090915193535292A3
:1059EC0096565797559594549C5C5D9D5F9F9E5E13
:1059FC005A9A9B5B99595898884849894B8B8A4A83
:105A0C004E8E8F4F8D4D4C8C4484854587474686F2
:105A1C0082424383418180400F0180961180FFB107
:105A2C0003012C2DB203012C2DB306012C2D012CBE
:105A3C002DB40107C003A20284C101C5C2020A0031
:105A4C00C3028A2AC4028AEEC5010E20003601C8A0
:105A5C003A010500022A040000007F2B040000001C
:105A6C007F00000004E010021C07123732292D2998
:105A7C00252B3900010310E110031D07062E2C29DC
:105A8C002D2E2E373F0000021013800A298064004F
:105A9C0000000000000000000000000000000000FA
:105AAC00000000000010001000100010001000108A
:105ABC000000001000000000002800280028000052
:105ACC000000000000000000000000000024002482
