:020000040800F2
:1000000000000220B53500088103000883030008C2
:10001000850300088703000889030008000000002A
:100020000000000000000000000000008B0300083A
:100030008D030008000000008F03000891030008F2
:1000400005360008053600080536000805360008A4
:100050000536000805360008053600080536000894
:100060000536000805360008053600080536000884
:100070000536000805360008053600080536000874
:100080000536000805360008053600080536000864
:100090000536000805360008053600080536000854
:1000A0000536000805360008053600080536000844
:1000B00005360008053600089903000805360008D3
:1000C0000536000805360008053600080536000824
:1000D00005360008A9030008B90300080536000822
:1000E0000536000805360008053600080536000804
:1000F00005360008053600080536000805360008F4
:1001000005360008053600080536000805360008E3
:1001100005360008053600080536000805360008D3
:1001200005360008053600080536000805360008C3
:1001300005360008053600080536000805360008B3
:1001400005360008053600080536000805360008A3
:100150000536000805360008053600080536000893
:100160000536000805360008053600080536000883
:1001700005360008053600080536000800000000B6
:080180000536000805360008F1
:1001880053B94AB9002908BF00281CBF4FF0FF31F6
:100198004FF0FF3000F00CB8ADF1080C6DE904CE5B
:1001A80003F068FADDF804E0DDE9022304B07047E3
:1001B800704700BF10B5054C237833B9044B13B111
:1001C8000448AFF300800123237010BD9000002085
:1001D800000000004039000808B5034B1BB1034973
:1001E8000348AFF3008008BD000000009400002021
:1001F8004039000872B6FEE700B595B030220021FC
:1002080008A803F02FFA0023039304930593069399
:10021800079301931E4A116C41F080511164126CCE
:1002280002F080520192019A02931A4B1A6842F422
:1002380080421A601B6803F480430293029B0123E7
:1002480008934FF48033099302230E934FF48003ED
:100258000F9308231093C02311930423129313932D
:1002680008A800F09FFD78B90F2303930223049395
:100278008023059300210691079103A800F0F4FF5D
:1002880020B915B05DF804FBFFF7B4FFFFF7B2FF24
:10029800003802400070004000B593B001F098FAB1
:1002A800FFF7AAFF02F078FC02F0B6FC02F08EFD20
:1002B80002F0A6FD02F030FE02F046FD294B009345
:1002C8004FF4E133284A0121002002F081FA02F0BC
:1002D800D9FA1CE00421254800F056FC22E0244A03
:1002E8005189224A1268916320E004211F4800F0D6
:1002F800CDFC1DE01E4B00225A801921987903F08D
:10030800CFF819E0142001F08FFA02F0CDFA194B5A
:100318004FF4CA721A80164B40F2F9121A801B89E0
:10032800012BD7D0124B1B89022BD8D0032BDCD042
:100338000F4B5B880F2BDDD00D4B9B88192BE1D120
:1003480000210B4B998002913C2203A803F08AF903
:10035800192102A803F0E8F89DF80820054B5A80F7
:10036800D0E700BF680200203C030020B002002054
:100378004002002054020020FEE7FEE7FEE7FEE709
:10038800FEE770477047704708B501F03BFA08BDB3
:1003980008B5024800F053F908BD00BF6802002004
:1003A80008B5024801F07EFC08BD00BFF802002035
:1003B80008B5024801F076FC08BD00BF3C030020E8
:1003C80082B0002100910B4B5A6C42F480425A646F
:1003D8005A6C02F480420092009A01911A6C42F021
:1003E80080521A641B6C03F080530193019B02B086
:1003F800704700BF0038024030B4036A23F001039D
:100408000362056A4268846924F073040B681C431C
:1004180025F002058B682B43104DA84203D005F543
:100428008065A84205D123F00803CD682B4323F04B
:1004380004030A4DA84203D005F58065A84205D1FA
:1004480022F440724D6915438A692A4342608461E7
:100458004A684263036230BC704700BF0000014035
:1004680030B4036A23F480730362036A4268C46980
:1004780024F073040D682C4323F400738D6843EA59
:100488000523124DA84203D005F58065A84206D180
:1004980023F40063CD6843EA052323F480630B4DFE
:1004A800A84203D005F58065A84207D122F440523E
:1004B8004D6942EA05128D6942EA05124260C4613B
:1004C8004A68C263036230BC704700BF0000014045
:1004D80030B4036A23F480530362036A4468C26930
:1004E80022F4E6420D6842EA052223F400538D689F
:1004F80043EA0533094DA84203D005F58065A842B3
:1005080004D124F480444D6944EA85144460C261EE
:100518004A680264036230BC704700BF00000140B3
:1005280030B4036A056A25F001050562846924F080
:10053800F00444EA021423F00A030B4384610362C3
:1005480030BC704730B4056A25F01005056284692F
:10055800036A24F4704444EA023423F0A00343EA13
:1005680001138461036230BC7047836823F0700311
:100578000B4343F0070383607047000090F83D3059
:10058800DBB2012B37D1022380F83D300268D368F3
:1005980043F00103D3600368194A934220D0B3F1B2
:1005A800804F1DD0A2F57C42934219D002F580629B
:1005B800934215D002F58062934211D002F5784239
:1005C80093420DD002F57052934209D0A2F59432AD
:1005D800934205D01A6842F001021A600020704761
:1005E8009A6802F00702062A07D01A6842F0010248
:1005F8001A6000207047012070470020704700BF34
:10060800000001400268D36823F00103D360036847
:10061800196A41F21112114208D1196A40F2444292
:10062800114203D11A6822F001021A60012380F8EE
:100638003D3000207047704770477047704710B5CD
:10064800044603681A6912F0020F11D0DA6812F032
:10065800020F0DD06FF002021A61012303770368BD
:100668009B6913F0030F70D0FFF7E6FF0023237791
:1006780023681A6912F0040F12D0DA6812F0040F16
:100688000ED06FF004021A610223237723689B6956
:1006980013F4407F5FD02046FFF7CEFF0023237777
:1006A80023681A6912F0080F12D0DA6812F0080FDE
:1006B8000ED06FF008021A61042323772368DB69E0
:1006C80013F0030F4ED02046FFF7B6FF0023237721
:1006D80023681A6912F0100F12D0DA6812F0100F9E
:1006E8000ED06FF010021A61082323772368DB69A4
:1006F80013F4407F3DD02046FFF79EFF0023237769
:1007080023681A6912F0010F03D0DA6812F0010F9A
:1007180036D123681A6912F0800F03D0DA6812F014
:10072800800F34D123681A6912F0400F03D0DA68B9
:1007380012F0400F32D123681A6912F0200F03D04B
:10074800DA6812F0200F30D110BDFFF774FF204691
:10075800FFF773FF8AE72046FFF76DFF2046FFF794
:100768006CFF9BE72046FFF766FF2046FFF765FF13
:10077800ACE72046FFF75FFF2046FFF75EFFBDE7C7
:100788006FF001021A61204601F092FEC1E76FF096
:1007980080021A61204600F004FBC3E76FF04002B4
:1007A8001A612046FFF74AFFC5E76FF020021A6179
:1007B800204600F0F5FAC7E70368304A904212D0A5
:1007C800B0F1804F0FD0A2F57C4290420BD002F5D9
:1007D8008062904207D002F58062904203D002F511
:1007E8007842904203D123F070034A681343234AA6
:1007F80090422AD0B0F1804F27D0A2F57C42904297
:1008080023D002F5806290421FD002F580629042A8
:100818001BD002F57842904217D002F570529042F0
:1008280013D002F5806290420FD002F580629042A8
:100838000BD0A2F59832904207D002F58062904220
:1008480003D002F58062904203D123F44073CA6852
:10085800134323F080034A69134303608B68C36220
:100868000B688362054B984203D003F58063984276
:1008780001D10B6903630123436170470000014004
:1008880040B310B5044690F83D30F3B1022384F824
:100898003D30214651F8040BFFF78EFF012384F801
:1008A800463084F83E3084F83F3084F8403084F88D
:1008B800413084F8423084F8433084F8443084F876
:1008C800453084F83D30002010BD80F83C3002F0FF
:1008D800EFF9DBE70120704740B310B5044690F804
:1008E8003D30F3B1022384F83D30214651F8040B22
:1008F800FFF762FF012384F8463084F83E3084F81D
:100908003F3084F8403084F8413084F8423084F82D
:10091800433084F8443084F8453084F83D30002072
:1009280010BD80F83C3002F0ADF9DBE701207047DC
:1009380030B4036A23F010030362036A44688269CF
:1009480022F4E6420D6842EA052223F020038D686E
:1009580043EA0513114DA84203D005F58065A84266
:1009680006D123F08003CD6843EA051323F0400342
:100978000A4DA84203D005F58065A84207D124F4A2
:1009880040644D6944EA85048D6944EA85044460FD
:1009980082614A688263036230BC7047000001408C
:1009A80038B590F83C30012B60D004460D46012341
:1009B80080F83C300C2A1AD8DFE802F00719191918
:1009C8001D1919193119191944000068FFF714FD88
:1009D8002268936943F0080393612268936923F0BE
:1009E800040393612268936929690B43936100208A
:1009F80084F83C0038BD0068FFF79AFF22689369C5
:100A080043F4006393612268936923F480639361DC
:100A180022689369296943EA01239361E7E700683B
:100A2800FFF71EFD2268D36943F00803D3612268EB
:100A3800D36923F00403D3612268D36929690B437E
:100A4800D361D4E70068FFF743FD2268D36943F414
:100A58000063D3612268D36923F48063D361226879
:100A6800D369296943EA0123D361C0E70220C1E7BA
:100A780010B4846824F47F4442EA03220A432243E0
:100A880082605DF8044B704790F83C30012B66D0CB
:100A980010B50446012380F83C30022380F83D302D
:100AA8000268936823F47F4323F0770393600B680D
:100AB800602B40D022D8402B47D00BD9502B0ED1D9
:100AC800CA6849680068FFF72BFD50212068FFF7C6
:100AD8004CFD04E0202B0CD008D9302B09D0012381
:100AE80084F83D30002084F83C0010BD0BB1102B79
:100AF800F5D119462068FFF738FDF0E7702B0ED0C6
:100B0800B3F5005FEBD1CB684A6889680068FFF7E6
:100B1800AFFF2268936843F480439360DFE7CB68B4
:100B28004A6889680068FFF7A3FF2268936843F062
:100B380077039360D3E7CA6849680068FFF702FD46
:100B480060212068FFF711FDC9E7CA684968006895
:100B5800FFF7E6FC40212068FFF707FDBFE702200A
:100B6800704710B401F01F01012303FA01F4036A6E
:100B780023EA04030362036A02FA01F10B430362E6
:100B88005DF8044B7047000010B50446084600297C
:100B980042D194F83E30DBB2013B18BF0123002B51
:100BA8006ED1002851D1022384F83E30012201463B
:100BB8002068FFF7D6FF2368334A934203D002F533
:100BC8008062934203D15A6C42F400425A6423680B
:100BD8002D4A934249D0B3F1804F46D0A2F57C42CA
:100BE800934242D002F5806293423ED002F5806281
:100BF80093423AD002F57842934236D002F57052C9
:100C0800934232D0A2F5943293422ED01A6842F021
:100C180001021A60002032E0042908D008290DD00A
:100C280094F84130DBB2013B18BF0123B7E794F8D1
:100C38003F30DBB2013B18BF0123B0E794F84030E6
:100C4800DBB2013B18BF0123A9E7042805D0082817
:100C580007D0022384F84130A8E7022384F83F3004
:100C6800A4E7022384F84030A0E79A6802F007025C
:100C7800062A07D01A6842F001021A60002010BD47
:100C88000120FCE70020FAE70000014038B50446DF
:100C98000D4600220068FFF764FF23681D4A93424F
:100CA80018D002F58062934214D02368196A41F281
:100CB8001112114208D1196A40F24442114203D17B
:100CC8001A6822F001021A609DB9012384F83E30A7
:100CD800002038BD196A41F211121142E5D1196A92
:100CE80040F244421142E0D15A6C22F400425A6464
:100CF800DBE7042D05D0082D07D0012384F8413007
:100D0800E6E7012384F83F30E2E7012384F8403026
:100D1800DEE700BF0000014090F83C30012B3BD0DB
:100D280030B4012380F83C30022380F83D3003685A
:100D38005C689D6824F070040A6822435A6003685E
:100D4800164A93421AD0B3F1804F17D0A2F57C42CD
:100D5800934213D002F5806293420FD002F580626D
:100D680093420BD002F57842934207D002F57052B5
:100D7800934203D0A2F59432934204D125F0800522
:100D88004A6815439D60012380F83D30002380F8B0
:100D98003C30184630BC70470220704700000140C4
:100DA80070477047002800F0DF8170B582B00446B4
:100DB800036813F0010F3BD0A64B9B6803F00C03AC
:100DC800042B2CD0A34B9B6803F00C03082B21D0D9
:100DD8006368B3F5803F4FD0B3F5A02F52D09D4B39
:100DE8001A6822F480321A601A6822F480221A6083
:100DF8006368002B50D000F011FD0546954B1B6829
:100E080013F4003F14D100F009FD401B6428F5D904
:100E18000320B0E18F4B5B6813F4800FD8D08D4B63
:100E28001B6813F4003F03D06368002B00F09E8119
:100E3800236813F0020F54D0864B9B6813F00C0FF5
:100E48003ED0844B9B6803F00C03082B33D0E36837
:100E5800002B67D0804B01221A6000F0DFFC0546AA
:100E68007C4B1B6813F0020F53D100F0D7FC401BDA
:100E78000228F5D903207EE1764A136843F48033CB
:100E88001360B5E7734B1A6842F480221A601A6837
:100E980042F480321A60ABE700F0C0FC05466D4BA7
:100EA8001B6813F4003FC3D000F0B8FC401B642853
:100EB800F5D903205FE1674B5B6813F4800FC6D157
:100EC800644B1B6813F0020F03D0E368012B40F05A
:100ED8004F81604A136823F0F803216943EAC1038C
:100EE8001360236813F0080F40D0636963B35B4B4A
:100EF80001221A6000F092FC0546564B5B6F13F016
:100F0800020F33D100F08AFC401B0228F5D90320D8
:100F180031E1504A136823F0F803216943EAC10319
:100F28001360DEE74C4B00221A6000F077FC0546A0
:100F3800484B1B6813F0020FD3D000F06FFC401B26
:100F48000228F5D9032016E1444B00221A6000F06C
:100F580065FC05463F4B5B6F13F0020F06D000F0AF
:100F68005DFC401B0228F5D9032004E1236813F037
:100F7800040F78D0374B1B6C13F0805F0DD1002322
:100F88000193344B1A6C42F080521A641B6C03F0C4
:100F980080530193019B012500E00025304B1B681D
:100FA80013F4807F21D0A368012B32D0052B36D0D3
:100FB800284B1A6F22F001021A671A6F22F00402F6
:100FC8001A67A368002B34D000F028FC0646214B92
:100FD8001B6F13F0020F45D100F020FC801B41F27B
:100FE80088339842F3D90320C5E01D4A136843F4B7
:100FF8008073136000F012FC0646194B1B6813F44B
:10100800807FD0D100F00AFC801B0228F5D903208C
:10101800B1E0104A136F43F001031367D1E70D4B9A
:101028001A6F42F004021A671A6F42F001021A6737
:10103800C7E700F0F3FB0646064B1B6F13F0020FE1
:1010480010D000F0EBFB801B41F288339842F3D9B3
:10105800032090E00038024000004742800E4742DB
:1010680000700040EDB9A369002B00F08380494A65
:10107800926802F00C02082A51D0022B17D0464B76
:1010880000221A6000F0CAFB0446424B1B6813F0AA
:10109800007F42D000F0C2FB001B0228F5D90320D4
:1010A80069E03C4A136C23F080531364DBE73A4B46
:1010B80000221A6000F0B2FB0546364B1B6813F09D
:1010C800007F06D000F0AAFB401B0228F5D90320B8
:1010D80051E0E369226A1343626A43EA8213A26A0F
:1010E8005208013A43EA0243E26A43EA0263294AA0
:1010F8005360294B01221A6000F090FB0446254BEF
:101108001B6813F0007F06D100F088FB001B022843
:10111800F5D903202FE000202DE000202BE0012B43
:101128002BD01C4B5B6803F48001E269914226D105
:1011380003F03F02216A8A4223D1616A47F6C072EE
:101148001A40B2EB811F1ED103F44031A26A520843
:10115800013AB1EB024F18D103F07063E26AB3EBC6
:10116800026F14D1002006E001207047012002E040
:10117800012000E0002002B070BD0120FBE7012043
:10118800F9E70120F7E70120F5E70120F3E701205F
:10119800F1E700BF0038024060004742F8B52F4B26
:1011A8009B6803F00C03042B53D0082B53D12B4B13
:1011B8005A6802F03F025B6813F4800F28D0274B6F
:1011C8005B68C3F3881358010021C01A61F100015C
:1011D8008E0146EA906687013C1A66EB0105E90034
:1011E80041EA5471E000C01841F100014B0243EAA2
:1011F800D0534402204619460023FEF7C1FF174B7F
:101208005B68C3F3014301335B00B0FBF3F023E0F9
:10121800124B5B68C3F388135C010025E41A65F17F
:101228000005AE0146EA9466A701381B66EB050186
:10123800CC0044EA5074C500E81844F100018B0260
:1012480043EA90538402204619460023FEF798FF8C
:10125800D5E7034800E00348F8BD00BF0038024066
:1012680000127A000024F400002800F09B8070B57A
:101278000D4604464F4B1B6803F007038B4208D208
:10128800CBB24C4A1370136803F007038B4240F04B
:101298008B80236813F0020F17D013F0040F04D0CB
:1012A800454A936843F4E0539360236813F0080FAA
:1012B80004D0414A936843F4604393603E4A93687C
:1012C80023F0F003A1680B439360236813F0010F28
:1012D80032D06368012B21D09A1E012A25D9364ABB
:1012E800126812F0020F61D033498A6822F00302B3
:1012F80013438B6000F092FA06462F4B9B6803F06D
:101308000C036268B3EB820F16D000F087FA801BDB
:1013180041F288339842F0D9032042E0264A126805
:1013280012F4003FE0D101203BE0234A126812F09A
:10133800007FD9D1012034E01E4B1B6803F007035E
:10134800AB4207D9EAB21B4B1A701B6803F00703BC
:10135800AB422DD1236813F0040F06D0164A9368C8
:1013680023F4E053E1680B439360236813F0080FFC
:1013780007D0114A936823F46043216943EAC10303
:101388009360FFF70BFF0C4B9B68C3F303130B4AE7
:10139800D35CD8400A4B18600A4B186800F0F2F981
:1013A800002070BD012070470120FAE70120F8E70E
:1013B8000120F6E7003C0240003802405839000896
:1013C8000800002004000020014B1868704700BF87
:1013D8000800002008B5FFF7F7FF044B9B68C3F32C
:1013E8008223034AD35CD84008BD00BF00380240BE
:1013F8006839000808B5FFF7E7FF044B9B68C3F39B
:101408004233034AD35CD84008BD00BF00380240CD
:101418006839000800230F2B00F2DD80F0B482B099
:101428005DE086685F000324BC4026EA0406CC68B9
:10143800BC4034438460466826EA02064C68C4F31C
:1014480000129A403243426057E0DC08083450F8F2
:10145800247003F0070296000F22B24027EA020721
:101468000A69B2403A4340F824205AE0072200E0D3
:101478000022B2403A430234574E46F82420574AD5
:101488001468EA4324EA05064F6817F4803F01D040
:1014980045EA0406514C2660646802EA04064F686F
:1014A80017F4003F01D045EA04064C4C6660A46876
:1014B80002EA04064F6817F4801F01D045EA0406C3
:1014C800464CA660E46822404E6816F4001F01D01E
:1014D80045EA0402414CE26001330F2B78D801221F
:1014E8009A400C6804EA020532EA0404F4D14C6814
:1014F80004F00304013C012C93D94A6802F003026A
:10150800032A09D0C4685E000322B24024EA020418
:101518008A68B2402243C2604A6802F00302022A83
:1015280093D004685E000322B24024EA02044A68A9
:1015380002F00302B240224302604A6812F0805F60
:10154800CAD000220192264A546C44F48044546460
:10155800526C02F480420192019A9C08A61C1E4A11
:1015680052F8267003F0030296000F22B24027EAD1
:1015780002071C4A90423FF47BAF02F5806290421A
:101588001AD002F58062904218D002F5806290422B
:1015980016D002F58062904214D002F58062904223
:1015A80012D002F58062904210D002F5806290421B
:1015B8003FF45CAF08225CE701225AE7022258E7B1
:1015C800032256E7042254E7052252E7062250E791
:1015D80002B0F0BC7047704700380140003C014041
:1015E80000380240000002400AB1816170470904D6
:1015F8008161704770B50446866D00F00FF994F864
:101608003530DBB2022B06D080236365002384F8D3
:101618003430012070BD05462268136823F0160394
:1016280013602268536923F080035361236CE3B18C
:101638002268136823F0080313602268136823F0F4
:101648000103136023681B6813F0010F11D000F029
:10165800E5F8431B052BF5D920236365002384F89F
:101668003430032084F83500D4E7A36C002BDFD195
:10167800E3E7E26D3F239340B360002084F8340031
:10168800012384F83530C5E790F83530DBB2022BFA
:1016980003D08023436501207047052380F8353047
:1016A8000268136823F001031360002070470000EC
:1016B800074AD36823F4E0631B041B0C000200F400
:1016C800E060034343F0BF6343F40033D3607047E3
:1016D80000ED00E030B4174BDB68C3F30223C3F11D
:1016E8000704042C28BF04241D1D062D18D9033B0C
:1016F8004FF0FF3505FA04F421EA0401994005FA90
:1017080003F322EA0303194300280BDB0901C9B2DA
:1017180000F1604000F5614080F8001330BC70476C
:101728000023E5E700F00F000901C9B2024B195484
:10173800F4E700BF00ED00E014ED00E0002807DB4F
:1017480000F01F02400901239340024A42F820306A
:10175800704700BF00E100E00138B0F1807F0AD295
:10176800064B5860064AF02182F823100020986042
:1017780007221A6070470120704700BF10E000E0A0
:1017880000ED00E010B504460E4B18784FF47A735C
:10179800B3FBF0F30C4A1068B0FBF3F0FFF7DCFF83
:1017A80068B90F2C01D901200AE0002221464FF028
:1017B800FF30FFF78FFF054B1C60002000E0012081
:1017C80010BD00BF00000020080000200400002019
:1017D80008B50B4B1A6842F400721A601A6842F492
:1017E80080621A601A6842F480721A600320FFF758
:1017F8005FFF0020FFF7C6FFFEF7E2FD002008BDEF
:10180800003C0240034A1168034B1B780B441360E9
:10181800704700BF1401002000000020014B186829
:10182800704700BF1401002038B50446FFF7F6FFE3
:101838000546B4F1FF3F02D0044B1B781C44FFF768
:10184800EDFF401BA042FAD338BD00BF00000020C6
:101858000268D36823F49073D3600268536923F055
:1018680001035361036B012B05D0202380F83E3020
:101878000023036370470268D36823F01003D36022
:10188800F3E790F83D30DBB2212B01D002207047FE
:101898008368B3F5805F17D0036A5A1C02621A780E
:1018A80003685A60C38C9BB2013B9BB2C3844BB99B
:1018B8000268D36823F08003D3600268D36843F0DA
:1018C8004003D360002070470369002BE4D1036A0A
:1018D8001B880268C3F308035360036A0233036278
:1018E800E0E7000070B504460268136923F440532A
:1018F800C1680B4313618368026913434269134348
:10190800C2691A430168CB6823F4164323F00C0319
:101918001343CB600268536923F4407381690B4316
:1019280053610368344A934206D002F580629342B9
:1019380002D0FFF74FFD01E0FFF75CFDE369B3F567
:10194800004F2AD00026051846EB06012D1846EB55
:101958000101CB0043EA5573EA001546194663684E
:101968009A009B0F281846EB0101FEF709FC234D4E
:10197800A5FB00325109642303FB11031B01323319
:10198800A5FB03235B0903F0F00202EB011203F04D
:101998000F03216813448B6070BD0026051846EBC1
:1019A80006012D1846EB0101CB0043EA5573EA0006
:1019B8001546194662683346921846EB0303281801
:1019C80046EB0101FEF7DCFB0C4DA5FB003251098B
:1019D800642303FB1103DB003233A5FB03235B09FC
:1019E8005A0002F4F87202EB011203F007032168AF
:1019F80013448B60D0E700BF001001401F85EB51F6
:101A080058B310B5044690F83D300BB3242384F83E
:101A18003D302268D36823F40053D3602046FFF793
:101A280061FF2268136923F49043136122685369A4
:101A380023F02A0353612268D36843F40053D36028
:101A480000202064202384F83D3084F83E3010BD07
:101A580080F83C3001F0EEF9D8E70120704790F8A3
:101A68003D30DBB2202B16D1B9B1C2B190F83C3071
:101A7800012B16D001628284C284002303642122D0
:101A880080F83D2080F83C300168CA6842F0800246
:101A9800CA6018467047022070470120704701202D
:101AA80070470220704708B50168CA6822F04002F2
:101AB800CA60202280F83D2000F0CAFC002008BD42
:101AC800704708B5806B0023C385C384FFF7F8FF10
:101AD80008BD704710B504460268D36823F0C003F8
:101AE800D36003685A6912F0800F17D05A6922F040
:101AF80080025A61436B4BB10D4A1A65406BFFF780
:101B0800C3FD90B1606B036D98470EE00023C3845A
:101B1800202380F83D30FFF7DCFF06E00023C38474
:101B2800202380F83D30FFF7D4FF002010BD00BF10
:101B38003D1B000808B5806B0023C384202380F870
:101B48003D30FFF7C6FF08BD7047000010B50446DA
:101B58000268D36823F49073D3600268536923F052
:101B680001035361036B012B14D023685A6912F0E7
:101B7800400F1FD05A6922F040025A61A36B7BB113
:101B8800124A1A65A06BFFF77FFDE0B1A06B036DE9
:101B9800984718E00268D36823F01003D360E4E79D
:101BA8000023E385202284F83E2023632046FFF7A4
:101BB800CBFF08E00023E385202284F83E2023633E
:101BC8002046FFF7C1FF002010BD00BFD91B000849
:101BD80008B5806B0023C385202280F83E2003636C
:101BE800FFF7B2FF08BD704790F83E30DBB2222BFA
:101BF80053D110B504468368B3F5805F30D0A26A2C
:101C0800B3F5805F04D0002B37D12369002B34D182
:101C180023685B681370A36A0133A362E38D9BB2E8
:101C2800013B9BB2E385002B39D12268D36823F0AE
:101C38002003D3602268D36823F48073D3602268BA
:101C4800536923F001035361202384F83E30236B4A
:101C5800012B18D0204600F0E3FB002020631FE092
:101C68000269002ACBD1826A03685B68C3F3080360
:101C78001380836A02338362D0E723685B6803F0CA
:101C88007F031370C7E72268D36823F01003D3607B
:101C9800A18D2046FFF7A7FFDFE70220704700204D
:101CA80010BD000030B583B0044602681368D068E0
:101CB800516913F00F0505D113F0200F02D010F071
:101CC800200F19D12DB111F0010119D110F4907F15
:101CD80016D1216B012975D013F0800F03D010F0B5
:101CE800800F40F0D88013F0400F03D010F0400F61
:101CF80040F0D58003B030BD2046FFF775FFF9E707
:101D080013F0010F06D010F4807F03D0226C42F04C
:101D18000102226413F0040F04D019B1226C42F0BE
:101D28000202226413F0020F04D019B1226C42F0AF
:101D38000402226413F0080F07D010F0200F00D11E
:101D480019B1226C42F008022264226C002AD1D018
:101D580013F0200F02D010F0200F21D123685B6907
:101D680003F04003226C12F0080F00D123B3204681
:101D7800FFF76EFD23685A6912F0400F18D05A69B0
:101D880022F040025A61A36B73B1474A1A65A06BEF
:101D9800FFF77AFC0028ADD0A06B036D9847A9E740
:101DA8002046FFF721FFD9E72046FFF789FEA1E784
:101DB8002046FFF785FE9DE72046FFF781FE0023BA
:101DC800236497E713F0100F86D010F0100F83D01C
:101DD800002301931368019353680193019B53698E
:101DE80013F0400F33D0A16B0B685B689BB2002BDC
:101DF80080D0A08D98427FF67DAFE385CB69B3F59F
:101E0800807F08D1A18DE38D9BB2C91A89B2204683
:101E1800FFF7E9FE6EE7D36823F48073D360226886
:101E2800536923F0010353612268536923F0400387
:101E38005361202384F83E30002323632268D3684B
:101E480023F01003D360A06BFFF7D4FBDAE7A18D72
:101E5800E38D9BB2C91A89B2E38D9BB2002B3FF484
:101E680049AF00293FF446AFD36823F49073D36099
:101E78002268536923F001035361202384F83E301C
:101E8800002323632268D36823F01003D36020461D
:101E9800FFF7A9FE2EE72046FFF7F3FC2AE72046C6
:101EA800FFF701FE26E700BFCB1A00080346816250
:101EB8008285C28500201864222283F83E2083F898
:101EC8003C001968CA6842F48072CA6019684A6995
:101ED80042F001024A611A68D36843F02003D360D4
:101EE800704708B590F83E30DBB2202B0DD171B1A8
:101EF8007AB190F83C30012B0DD0012380F83C30AA
:101F080000230363FFF7D2FF00E0022008BD012091
:101F1800FCE70120FAE70220F8E70000034AD2F8BC
:101F2800883043F47003C2F88830704700ED00E051
:101F380038B50B88052B01D0032038BD0C464378F3
:101F4800817841EA0321013189B2C378027942EAF2
:101F58000322531E9BB240F2CE75AB4220D8002319
:101F680023800123037023880133238012F0070F95
:101F780010D0C2F3C7030133DDB2457023880133A3
:101F880023800023023000F071FD30B923882B44F0
:101F98002380D2E7C2F3C705EFE700F0D9F9CCE711
:101FA8000320CAE70B88052B01D00320704743782C
:101FB800817841EA0321013189B20379F3B9C27802
:101FC800531EDBB2FD2B1BD900B583B000238DF85F
:101FD8000530FF2A0BD000238DF8043001231A4660
:101FE80001A800F043FD30B903B05DF804FB0123FC
:101FF8008DF80430F2E700F0ABF9F5E703207047FD
:10200800032070470B88052B2AD970B50C464178F8
:10201800837843EA0123013399B2C278037943EA0A
:102028000222467913F0070F0CD0C2F3C705013519
:10203800EDB2531E9BB2B3F5F66F13D2B54204D07E
:10204800032070BDC2F3C705F3E70123063000F093
:102058000DFD10B905232380F3E700F079F9F0E7C7
:10206800032070470320ECE738B50B88052B01D017
:10207800032038BD0C464378817841EA03210131B9
:1020880089B2C378027942EA0322531E9BB240F216
:10209800CE75AB421FD80023238002230370238808
:1020A8000133238012F0070F0FD0C2F3C7030133A7
:1020B800DDB24570238801332380023000F034FDFF
:1020C80030B923882B442380D3E7C2F3C705F0E750
:1020D80000F03EF9CDE70320CBE708B50B88052BC8
:1020E80001D0032008BD4378817841EA03210131FA
:1020F80001231A4689B2033000F07AFC0028F1D097
:1021080000F026F9EEE738B50B88052B20D90C46E8
:102118004178837843EA0123013399B2C37802797D
:1021280042EA03224579531E9BB2772B12D85300FB
:10213800DBB2AB4201D003200BE00123063000F0F4
:1021480057FC10B90523238003E000F001F900E0F3
:10215800032038BD0320FCE70B88052B01D00320A2
:10216800704770B50C464378817841EA0321013104
:1021780089B2C378057945EA03256B1E9BB27C2B8F
:1021880001D9032070BD002323800646032206F8E8
:10219800022B2288013222806A0042702288013292
:1021A80022802A46304600F023FC20B9238803EB1E
:1021B80045052580E6E700F0CBF8E3E7F8B50B889E
:1021C800092B45D904460D464378817841EA032115
:1021D80001318EB2C378077947EA032743798179B9
:1021E80041EA0321013189B2C379027A42EA032222
:1021F800407A7B1E9BB27C2B2CD86AB3792A2DD8C7
:10220800B0EB420F01D0032023E0012304F10A00C0
:1022180000F0EEFB034618B1D8B100F099F818E0C9
:1022280028802046172200F8022B2A8801322A80AB
:102238007A0062702A8801322A803A46314600F0D4
:10224800D7FB0028E8D12B8803EB47072F80E3E76B
:102258000020F8BD0320FCE70320FAE70320F8E795
:1022680038B50B88052B01D0032038BD0C464378C0
:10227800817841EA0321013189B2C378057945EAB9
:1022880003256B1E9BB27B2B01D90320EDE70023AE
:1022980023800346042203F8022B2288013222807D
:1022A8006A0042702288013222802A46184600F0CD
:1022B8007BFB20B9238803EB45052580D5E700F093
:1022C80047F8D2E738B50D46054B1C882246054924
:1022D800013001F0B9F901342C80002038BD00BF6D
:1022E800CC000020AC00002070B4CD0801F0070439
:1022F80003FA04F6012404FA02F39BB2013B9BB2F1
:1023080001F0070103FA01F1435D2A19845C43EAED
:1023180004231BB223EA01031BB233434355C3F31F
:102328000723835470BC704710B4CC080123934032
:102338009BB2013B025D2044407842EA002001F054
:102348000701084180B21840C0B25DF8044B7047DD
:10235800012805D0072805D008B104207047704728
:102368000220704706207047024B00221A70012095
:10237800704700BFCF0000200123034A1370034AAF
:1023880010701846704700BFCF000020CE00002014
:102398000346054A107830B1044A12781A70024B85
:1023A80000221A7001207047CF000020CE000020C4
:1023B800014B1860012070471801002010B50C4629
:1023C80050B1012209490A4B1868FFF78AFD44B148
:1023D800084B1B68984710BD054B1868FFF7B6FBFC
:1023E800F5E7034B1868FFF775FBF4E7D00000200A
:1023F800180100202402002008B50A460146034BB4
:102408001868FFF72CFB012008BD00BF1801002049
:10241800024B1B7803700120704700BFD0000020DA
:1024280008B50268074B1B681B689A4200D008BDB4
:10243800054B1B68984701220449024B1868FFF7AF
:1024480050FDF4E7180100202C020020D0000020E5
:1024580008B50268044B1B681B689A4200D008BD87
:10246800024B1B689847FAE7180100202402002055
:10247800024B1960024B1880012070471C01002094
:10248800D400002008B5044B00221A80034B1868BA
:10249800FEF774F808BD00BFD20000201C01002020
:1024A80008B5024B1868FEF7ADF808BD1C010020FE
:1024B80008B50268084B9A4200D008BD074A13883D
:1024C8009BB201339BB21380054A12889342F4D31E
:1024D800044B1B689847F0E700080040D200002032
:1024E800D40000202802002072B6024A1368013383
:1024F80013607047D8000020034A1368013B13603B
:1025080003B962B6704700BFD800002030B4FF227C
:1025180015464B1E9CB249B110F8013B5340054A81
:10252800D25C6A400449CD5C2146F2E742EA0520C4
:1025380030BC704770390008703A000870B50E4614
:1025480014461D46FFF7D0FF2A4621463046FFF7BE
:102558002FFF012804D00324FFF7CEFF204670BDCB
:10256800B4F5964F0BD864000748B0FBF4F0294641
:1025780080B2FFF77DFF012803D00324ECE7232076
:10258800F5E70024E8E700BFA07F170008B5FFF7CC
:10259800ABFF0021044B19700120FFF70FFFFFF775
:1025A80071FFFFF7A9FF08BDDC00002008B5FFF7A1
:1025B8009BFF00210846FFF701FFFFF771FFFFF7B8
:1025C8009BFF08BD70B506460D461446FFF78CFF05
:1025D8000F4B1B889BB2032B04D80524FFF78CFFF5
:1025E800204670BD0A4B198889B20A48FFF78EFF4A
:1025F80058B9084A12F8013B3370054B1B889BB247
:10260800033B23802A600024E8E70524E6E700BFAF
:10261800E4000020240100202DE9F04106460F4681
:102628001446FFF761FF1C4B1B78DBB2012B05D06A
:102638000524FFF761FF2046BDE8F081781E174B9F
:102648001860174D4FF00108A5F8008007F8016CD5
:102658002A8814FA82F292B22A80298889B2FFF76E
:1026680055FF2B889BB203EB080292B22A80C2B2B4
:102678000C49CA542B889BB203EB080292B22A80F9
:10268800C0F30720C854084B83F800804146002057
:10269800FFF794FE0024CCE7DC000020E0000020D7
:1026A800E600002024010020DD00002000B583B0F2
:1026B8000DF10700FFF7ACFE1C4B1B78DBB2032BB8
:1026C80005D8DFE803F0020B1D08FFF7DBFE00204A
:1026D80003B05DF804FBFFF7D5FEF8E7144A0023C2
:1026E800138013889BB2591C89B211809DF807107A
:1026F800104AD1540D4B02221A70FFF7C3FEE6E7C9
:102708000B4B1B889BB2FF2B0CD809490B889BB23B
:102718005A1C92B20A809DF80710064AD154FFF756
:10272800B1FED4E7014B03221A70F8E7DC00002061
:10273800E40000202401002038B5144B1B7803F076
:10274800FF0423B1012C07D00024204638BD002106
:102758000120FFF733FEF8E70D4B1B889BB24BB106
:102768000B4D298889B20B4B1868FFF745FE0024EA
:102778002C80EAE70820FFF7FFFD0446002101202E
:10278800FFF71CFE014B00221A70DEE7DD00002077
:10279800E6000020E000002010B50C4B1B785BB170
:1027A80003F0FF02022A0CD00024FFF779FE074B42
:1027B80001221A70204610BD0120FFF7DDFD0446F6
:1027C800F3E70220FFF7D8FD0446EEE7DC0000201F
:1027D80038B5054608464C1EE4B2F62C2AD81146F0
:1027E8001A46174B18700DB1022424E0154B164CED
:1027F8001C60164B164C1C60164B174C1C60174B74
:10280800174C1C60174B00241C60174B174C1C609E
:10281800174B184C1C60184B184C1C60049BFFF796
:102828008DFE044638B9FFF79FFD30B1144B0122E5
:102838001A7000E00224204638BD0324FBE700BFDD
:1028480001010020F800002095250008FC00002068
:10285800B5250008F000002021260008EC00002023
:10286800CD250008F40000202C020020B526000821
:10287800240200204127000828020020A127000880
:102888000C00002008B5064B1B78012B01D0062050
:1028980008BD044B1B6898470020014B1870F7E7E8
:1028A8000C000020F800002070B582B0344B1C7872
:1028B800002C5ED10DF10700FFF76AFD012802D058
:1028C800204602B070BD9DF80730022B0BD0042BB8
:1028D800F6D12C4B186801782B4B19702B4B012221
:1028E8001A70002316E02A4B1B682A4A25492A48F1
:1028F800984705460028E3D1274B1B78274A1278CA
:10290800934201D0002B36D10420FFF735FD2C4629
:10291800D6E701330F2B0DDC214A12F833204AB1D8
:102928009142F6D11E4A02EBC3035B6819499847E6
:10293800164B1870184B1B78FBB1144B1B7873B1EE
:10294800114A11780F480568124A0126168041F08D
:1029580080012970006811888D1915804354114B26
:102968001B680C4A1288074909680C480078984780
:10297800A6E70624A4E70446A2E71C46A0E700BF92
:102988000C0000200401002000010020E8000020C5
:10299800EC0000200A0100200801002001010020AD
:1029A80010000020F000002030B40F4B1C884B1E94
:1029B8009BB299180A2915DC1B1B9BB27AB10B4DE7
:1029C80035F81340240A014601F8024B15F8134064
:1029D800447001339BB2013A92B20846EEE70020F8
:1029E80030BC70470120FBE7120100205402002090
:1029F80070B41C4C2588013989B28C180A2C2DDC3E
:102A0800491B89B293B1012B24D0002027E0164E30
:102A180036F811502D0A044604F8025B16F81150D6
:102A28004570013189B2013A92B22046002AEED1AE
:102A3800184614E0044614F8023B0B4D1B0225F817
:102A480011304078034325F81130013189B2013A39
:102A580092B22046002AEDD1002000E0012070BC8F
:102A6800704700BF10010020400200202DE9F04708
:102A780016461F46D4082A4B1A88013989B28B1981
:102A88000A2B4ADC0134891AC1F3CC0501F0070886
:102A9800A7B1012F32D0002040E005F1010A1FFA4A
:102AA8008AFA8146082241461E482844FFF73CFC22
:102AB80009F8010B013CA4B255464846002CECD15C
:102AC80006F0070210F8016CC2F108029640F6B24F
:102AD800164100F8016C384620E005F101091FFA9B
:102AE80089F9074617F8013B082241460D48284452
:102AF800FFF7FAFB013CA4B24D463846012CECD84E
:102B080016F0070201D1002008E003784146054885
:102B18002844FFF7E9FB002000E00120BDE8F0872A
:102B28000C010020380200202DE9F0419046D5081C
:102B3800174B1A884F1EBFB207EB08030A2B25DC78
:102B480004460135BF1AC7F3CC0307F007076DB178
:102B58005E1CB6B2082239460E481844FFF7E4FB5B
:102B680004F8010B013DADB23346F0E708F0070861
:102B780014F8013CC8F1080803FA08F3DBB243FA79
:102B880008F804F8018C0020BDE8F0810120FBE77B
:102B98000E0100203C02002030B589B000240394C7
:102BA80004940594069407940094194B1A6B42F008
:102BB80080021A631A6B02F080020092009A019454
:102BC8001A6B42F001021A631A6B02F001020192B9
:102BD800019A02941A6B42F002021A631B6B03F00B
:102BE80002030293029B0B4D01224FF40041284639
:102BF800FEF7FAFC4FF40043039301230493059472
:102C0800069403A92846FEF705FC09B030BD00BFAD
:102C1800003802400000024000B587B0002302934C
:102C2800039304930593009301931448144A026094
:102C38001722426083603122C26003618361FDF71D
:102C48001FFE90B94FF48053029302A90B48FDF779
:102C58001BFF68B900230093019369460748FEF7F4
:102C68005BF840B907B05DF804FBFDF7C3FAE9E784
:102C7800FDF7C0FAEEE7FDF7BDFAF3E768020020BA
:102C8800000800400368B3F1804F00D0704782B05D
:102C980000230193054B1A6C42F001021A641B6C65
:102CA80003F001030193019B02B070470038024012
:102CB80002680E4B9A4200D0704700B583B00021DD
:102CC800019103F50C331A6C42F004021A641B6C70
:102CD80003F004030193019B0A461E20FEF7FAFC49
:102CE8001E20FEF72BFD03B05DF804FB0008004032
:102CF80000B587B0002301930293039304930593CF
:102D08000368B3F1804F02D007B05DF804FB0023DD
:102D180000930B4A116B41F001011163126B02F031
:102D280001020092009A02220192029203930493F4
:102D38000123059301A90348FEF76CFBE4E700BFF4
:102D4800003802400000024000B58BB00023089311
:102D580009930193029303930493059306930793AE
:102D680019484FF0804202602F224260836063223C
:102D7800C26003618361FDF7AFFDD8B900230893F2
:102D8800099308A91048FDF7C7FFB0B9602301935C
:102D98000A23029300230393059304220DEB0201F7
:102DA8000948FDF7FDFD58B90748FFF7A1FF0BB02B
:102DB8005DF804FBFDF71EFAE0E7FDF71BFAE5E70F
:102DC800FDF718FAF0E700BFB002002008B50A487E
:102DD8000A4B03604FF4E133436000238360C36010
:102DE80003610C2242618361C361FEF709FE00B9E9
:102DF80008BDFDF7FFF9FBE7F802002000100140CD
:102E080008B50A480A4B03604FF4E13343600023D6
:102E18008360C36003610C2242618361C361FEF772
:102E2800EFFD00B908BDFDF7E5F9FBE73C0300201D
:102E38000044004010B58AB0002305930693079319
:102E4800089309930368304A934204D02F4A934267
:102E58002ED00AB010BD002401942D4B5A6C42F0BC
:102E680010025A645A6C02F010020192019A0294FC
:102E78001A6B42F001021A631B6B03F00103029301
:102E8800029B4FF4C0630593022306930794032320
:102E980008930723099305A91E48FEF7BBFA2246A3
:102EA80021462520FEF716FC2520FEF747FCD0E733
:102EB80000240394164B1A6C42F400321A641A6CFC
:102EC80002F400320392039A04941A6B42F001024E
:102ED8001A631B6B03F001030493049B0C230593F3
:102EE800022306930794032308930723099305A94C
:102EF8000848FEF78FFA224621462620FEF7EAFB0D
:102F08002620FEF71BFCA4E7001001400044004007
:102F1800003802400000024008B50D480D4B036020
:102F28004FF48273436000238360C360036143618D
:102F38004FF400728261C3610362436283620A23B1
:102F4800C36200F0DDF800B908BDFDF753F9FBE7EF
:102F5800800300200030014000B589B000230393AE
:102F680004930593069307930268154B9A4202D07F
:102F780009B05DF804FB0022019203F58433596C13
:102F880041F480515964596C01F4805101910199BF
:102F98000292196B41F0020119631B6B03F00203E3
:102FA8000293029B3823039302230493059203237D
:102FB80006930523079303A90248FEF72BFAD7E7E0
:102FC80000300140000402402DE9F04782B0054678
:102FD800884617461E46FEF721FC0A9B1B1A03EB80
:102FE8000609FEF71BFC82462A4B1B68C3F3CB334A
:102FF80009FB03F301932B689C6838EA04030CBFB0
:1030080001240024BC4240D0B6F1FF3FF3D0FEF7C4
:1030180005FCA0EB0A0048450AD2B9F1000F07D019
:10302800019A02B14A46019B013B01939146E2E7AE
:103038002A68536823F0E00353606B68B3F5827F16
:103048000BD0AB6AB3F5005F14D0012385F851307B
:10305800002385F85030032018E0AB68B3F5004F23
:1030680002D0B3F5806FECD12A68136823F04003CF
:103078001360E6E72A68136823F4005313602A688C
:10308800136843F400531360DFE7002002B0BDE883
:10309800F08700BF0800002030B585B00446164B05
:1030A8001868164BA3FB0030400D4FF47A7505FBEA
:1030B80000F003906368B3F5827F0BD0039BBBB12C
:1030C800039B013B039323689B6813F0800FF5D1A2
:1030D80000200EE000920B46002280212046FFF7D8
:1030E80073FF30B1636D43F020036365032000E094
:1030F800002005B030BD00BF08000020819F5E168B
:1031080000285AD010B50446436A33B94368B3F56A
:10311800827F05D00023C36102E00023036143617D
:103128000023A36294F85130002B40D0022384F886
:1031380051302268136823F040031360636803F476
:103148008273A26802F404421343E26802F4006244
:103158001343226902F002021343626902F001027A
:103168001343A26902F400721343E26902F03802C1
:103178001343226A02F080021343A26A02F4005247
:10318800216813430B60638B03F00403626A02F047
:103198001002216813434B602268D36923F400634B
:1031A800D36100206065012384F8513010BD84F894
:1031B80050302046FFF7D0FEB8E7012070472DE9D0
:1031C800F04383B01F460A9D90F85030012B00F061
:1031D8001081044688469146012380F85030FEF756
:1031E8001DFB064694F85130DBB26268012B0AD009
:1031F800B2F5827F40F0E380A268002A40F0E980BF
:10320800042B40F0E880B8F1000F00F0E680B9F137
:10321800000F00F0E480002F00F0E38094F85130B4
:10322800DBB2042B02D0052384F8513000236365F8
:10323800C4F83890E787A787C4F83080E786A78660
:103248002364636423681A6812F0400F03D11A6874
:1032580042F040021A60E368B3F5006F11D063686A
:103268000BB1012F0BD1226B236812781A73236BD1
:1032780001332363E38E9BB2013B9BB2E3860127B4
:103288006BE063680BB1012F0BD1226B23681288A6
:10329800DA60236B02332363E38E9BB2013B9BB25C
:1032A800E38601271CE023689A6812F0010F0ED00C
:1032B800E28F92B25AB1DA68A36B1A80A36B023319
:1032C800A363E38F9BB2013B9BB2E3870127FEF721
:1032D800A5FA801BA84203D3B5F1FF3F40F08380D5
:1032E800E38E9BB21BB9E38F9BB2002B53D02368AC
:1032F8009A6812F0020FD6D0E28E92B2002AD2D08B
:10330800002FD0D0226B1288DA60236B023323633C
:10331800E38E9BB2013B9BB2E3860027C3E7236899
:103328009A6812F0010F0ED0E28F92B25AB1DA68A1
:10333800A36B1A70A36B0133A363E38F9BB2013BAA
:103348009BB2E3870127FEF769FA831BAB4202D3DE
:10335800B5F1FF3F49D1002D49D0E38E9BB213B997
:10336800E38F9BB2BBB123689A6812F0020FD6D0E4
:10337800E28E92B2002AD2D0002FD0D0226B1278DF
:103388001A73236B01332363E38E9BB2013B9BB219
:10339800E3860027C3E7324629462046FFF77CFE2E
:1033A80048B9A36863B901932368DA6801929B68F6
:1033B8000193019B04E020236365012000E00220C3
:1033C800012384F85130002384F8503003B0BDE85D
:1033D800F0830220F4E70220F2E70120F0E7012061
:1033E800EEE70120ECE70320EAE70320E8E7032003
:1033F800E6E70220EAE7000000B587B08DF80F0085
:103408006423009301230DF117020DF10F01044805
:10341800FFF7D5FE9DF8170007B05DF804FB00BF65
:103428008003002010B50A4C00224FF400412046CA
:10343800FEF7DAF80620FFF7DFFF01224FF400411C
:103448002046FEF7D1F80120FEF7EEF910BD00BFC7
:103458000000024010B50120FEF7E6F900224FF403
:1034680000410D48FEF7C0F80520FFF7C5FFA5206D
:10347800FFF7C2FF094C84F824000120FEF7D4F9B5
:1034880094F8243013F0010FF1D101224FF40041D8
:103498000148FEF7A9F810BD00000240D80300203B
:1034A80070B505460C461E4B93F82730012B03D107
:1034B8000120FEF7B9F9F6E7194E012386F82730FF
:1034C800FFF7C8FFFFF7AEFF00224FF40041154891
:1034D800FEF78AF80220FFF78FFF3378082B1AD8F7
:1034E800C4F30740FFF788FFC4F30720FFF784FF02
:1034F800E0B2FFF781FF2846FFF77EFF01224FF475
:1035080000410848FEF770F8FFF7A4FF044B0022BB
:1035180083F8272070BD200EFFF76EFFE0E700BF9D
:10352800D80300200000024070B505460C461D4B2C
:1035380093F82730012B03D10120FEF775F9F6E740
:10354800184E012386F8273000224FF40041164810
:10355800FEF74AF80B20FFF74FFF3378082B1CD8EB
:10356800C4F30740FFF748FFC4F30720FFF744FF01
:10357800E0B2FFF741FF0020FFF73EFFA520FFF76D
:103588003BFF287001224FF400410748FEF72CF852
:10359800044B002283F8272070BD200EFFF72CFF74
:1035A800DEE700BFD803002000000240DFF834D077
:1035B8000D480E490E4A002302E0D458C450043383
:1035C800C4188C42F9D30B4A0B4C002301E013605A
:1035D8000432A242FBD3FEF7A1FC00F011F8FCF77D
:1035E8005BFE7047000002200000002090000020D1
:1035F800803B00089000002000040020FEE7000047
:1036080070B50D4D0D4C641BA4100026A64209D1BF
:103618000B4D0C4C00F090F9641BA4100026A64238
:1036280005D170BD55F8043B98470136EEE755F8CB
:10363800043B98470136F2E7783B0008783B0008DE
:10364800783B00087C3B00080A44914200F1FF33B4
:1036580000D1704710B511F8014B03F8014F9142A2
:10366800F9D110BD02440346934200D1704703F8D4
:10367800011BF9E72DE9F047089D04468C46002B0D
:1036880040F083808A42174647D9B2FA82F242B1A3
:10369800C2F1200024FA00F09140974040EA010C62
:1036A80094404FEA1748230CBCFBF8F61FFA87FE34
:1036B80008FB16C143EA014306FB0EF1994209D9FA
:1036C800FB1806F1FF3080F01981994240F216810B
:1036D800023E3B445B1AA4B2B3FBF8F008FB10337C
:1036E80044EA034400FB0EFEA64509D93C1900F143
:1036F800FF3380F00581A64540F2028102383C4440
:1037080040EA0640A4EB0E0400261DB1D440002375
:10371800C5E900433146BDE8F08702B9FFDEB2FAD9
:1037280082F2002A50D1CB1B4FEA174E1FFA87F8B6
:103738000126B3FBFEFC210C0EFB1C3341EA0341BE
:1037480008FB0CF38B4207D979180CF1FF3002D231
:103758008B4200F2E9808446C91AA3B2B1FBFEF09D
:103768000EFB101143EA014408FB00F8A04507D9F5
:103778003C1900F1FF3302D2A04500F2D980184667
:10378800A4EB080440EA0C40BFE78B4209D9002D9E
:1037980000F0B1800026C5E9000130463146BDE899
:1037A800F087B3FA83F6002E4AD18B4202D38242C5
:1037B80000F2B880841A61EB030101208C46002DC9
:1037C800A8D0C5E9004CA5E7C2F1200320FA03F60A
:1037D800974001FA02F04FEA174ED9403043030CE4
:1037E800B1FBFEF61FFA87F80EFB161143EA0143F8
:1037F80006FB08F1994204FA02F409D9FB1806F10C
:10380800FF3C80F08D80994240F28A80023E3B4422
:103818005B1A81B2B3FBFEF00EFB103341EA0341A1
:1038280000FB08F38B4207D9791800F1FF3C73D2EB
:103838008B4271D902383944CB1A40EA064678E7F8
:10384800C6F1200C03FA06F422FA0CF31C4320FA02
:103858000CF701FA06F34FEA144E21FA0CF11F4354
:103868003B0CB1FBFEF91FFA84F80EFB191143EA71
:10387800014109FB08FA8A4502FA06F200FA06F342
:1038880008D9611809F1FF3048D28A4546D9A9F10B
:1038980002092144A1EB0A01BFB2B1FBFEF00EFB05
:1038A800101147EA014700FB08F8B84507D9E7199E
:1038B80000F1FF312ED2B8452CD90238274440EA0E
:1038C8000940A7EB0807A0FB02894F45C6464946B1
:1038D8001AD317D05DB1B3EB0E0267EB010707FAF5
:1038E8000CFCF2404CEA0202F740C5E9002700262A
:1038F8003146BDE8F0872E4628460BE70646E9E63E
:103908001846FDE64345E5D2B8EB020E69EB040123
:103918000138DFE70846D2E760468DE78146B9E718
:10392800664675E730464AE7ACF1020C394413E7BE
:1039380002383C4424E700BFF8B500BFF8BC08BC17
:103948009E467047F8B500BFF8BC08BC9E46704755
:103958000000000000000000010203040607080937
:10396800000000000102030400C1814001C0804141
:1039780001C0804100C1814001C0804100C1814037
:1039880000C1814001C0804101C0804100C1814027
:1039980000C1814001C0804100C1814001C0804117
:1039A80001C0804100C1814001C0804100C1814007
:1039B80000C1814001C0804100C1814001C08041F7
:1039C80001C0804100C1814000C1814001C08041E7
:1039D80001C0804100C1814001C0804100C18140D7
:1039E80000C1814001C0804101C0804100C18140C7
:1039F80000C1814001C0804100C1814001C08041B7
:103A080001C0804100C1814000C1814001C08041A6
:103A180001C0804100C1814001C0804100C1814096
:103A280000C1814001C0804100C1814001C0804186
:103A380001C0804100C1814001C0804100C1814076
:103A480000C1814001C0804101C0804100C1814066
:103A580000C1814001C0804100C1814001C0804156
:103A680001C0804100C1814000C0C101C30302C23E
:103A7800C60607C705C5C404CC0C0DCD0FCFCE0EA6
:103A88000ACACB0BC90908C8D81819D91BDBDA1A16
:103A98001EDEDF1FDD1D1CDC14D4D515D71716D686
:103AA800D21213D311D1D010F03031F133F3F232F6
:103AB80036F6F737F53534F43CFCFD3DFF3F3EFE66
:103AC800FA3A3BFB39F9F83828E8E929EB2B2AEAD6
:103AD800EE2E2FEF2DEDEC2CE42425E527E7E62646
:103AE80022E2E323E12120E0A06061A163A3A262B6
:103AF80066A6A767A56564A46CACAD6DAF6F6EAE26
:103B0800AA6A6BAB69A9A86878B8B979BB7B7ABA95
:103B1800BE7E7FBF7DBDBC7CB47475B577B7B67605
:103B280072B2B373B17170B0509091519353529275
:103B380096565797559594549C5C5D9D5F9F9E5EE5
:103B48005A9A9B5B99595898884849894B8B8A4A55
:103B58004E8E8F4F8D4D4C8C4484854587474686C5
:083B6800824243834181804049
:083B70000CFBFF7F01000000C7
:043B7800E10100085F
:043B7C00BD0100087F
:103B800001000000100000000024F400020000000A
:103B900011000000CD220008040000006922000886
:103BA0000300000061210008100000000F21000840
:103BB00006000000E320000817000000C5210008EF
:103BC00001000000391F000805000000AD1F0008BB
:103BD0000F0000000D200008020000007120000806
:103BE00000000000000000000000000000000000D5
:103BF00000000000000000000000000000000000C5
:103C000000000000000000000000000000000000B4
:04000005080035B505
:00000001FF
