:020000040800F2
:1000000000000220A5360008250400082704000887
:10001000290400082B0400082D040008000000003B
:100020000000000000000000000000002F04000895
:100030003104000800000000330400083504000803
:10004000F5360008F5360008F5360008F5360008E4
:10005000F5360008F5360008F5360008F5360008D4
:10006000F5360008F5360008F5360008F5360008C4
:10007000F5360008F5360008F5360008F5360008B4
:10008000F5360008F5360008F5360008F5360008A4
:10009000F5360008F5360008F5360008F536000894
:1000A000F5360008F5360008F5360008F536000884
:1000B000F5360008F53600083D040008F53600085E
:1000C000F5360008F5360008F5360008F536000864
:1000D000F53600084D0400085D040008F5360008F8
:1000E000F5360008F5360008F5360008F536000844
:1000F000F5360008F5360008F5360008F536000834
:10010000F5360008F5360008F5360008F536000823
:10011000F5360008F5360008F5360008F536000813
:10012000F5360008F5360008F5360008F536000803
:10013000F5360008F5360008F5360008F5360008F3
:10014000F5360008F5360008F5360008F5360008E3
:10015000F5360008F5360008F5360008F5360008D3
:10016000F5360008F5360008F5360008F5360008C3
:10017000F5360008F5360008F536000800000000E6
:08018000F5360008F536000811
:10019000034613F8012B002AFBD1181A01387047C7
:1001A00001F0FF01102A2BDB10F0070F08D010F828
:1001B000013B013A8B422DD010F0070F42B3F6D12C
:1001C000F0B441EA012141EA014122F007047FF045
:1001D00000070023F0E80256083C85EA010586EA9C
:1001E000010685FA47F5A3FA87F586FA47F6A5FAD8
:1001F00087F68EB9EED1F0BC01F0FF0102F00702E4
:1002000032B110F8013B013A83EA010313B1F8D18E
:100210000020704701387047002D06BF354603386F
:10022000073815F0010F07D1013015F4807F02BFA8
:10023000013015F4C03F0130F0BC0138704700BFF9
:1002400053B94AB9002908BF00281CBF4FF0FF313D
:100250004FF0FF3000F00CB8ADF1080C6DE904CEA2
:1002600003F0C6FEDDF804E0DDE9022304B07047C8
:10027000704700BF10B5054C237833B9044B13B158
:100280000448AFF300800123237010BDF400002068
:1002900000000000B442000808B5034B1BB103493D
:1002A0000348AFF3008008BD00000000F800002004
:1002B000B442000872B6FEE700B595B030220021C6
:1002C00008A803F04BFA00230393049305930693C5
:1002D000079301931E4A116C41F080511164126C16
:1002E00002F080520192019A02931A4B1A6842F46A
:1002F00080421A601B6803F480430293029B01232F
:1003000008934FF48033099302230E934FF4800334
:100310000F9308231093C023119304231293139374
:1003200008A800F05BFB78B90F2303930223049322
:100330008023059300210691079103A800F0B0FDEA
:1003400020B915B05DF804FBFFF7B4FFFFF7B2FF6B
:10035000003802400070004000B593B001F05CF836
:10036000FFF7AAFF02F0DCFA02F01EFB02F072FBBC
:1003700002F08AFB02F014FC02F0FCFE234B009317
:100380004FF4E133224A0121002002F0E5F802F0A7
:100390003DF911E01F4B40F22F121A801CE01E4B5A
:1003A00000225A801921987903F0F6F818E01420F9
:1003B00001F05EF802F03CF90221184800F036FF27
:1003C000144B4FF4CA721A80134B40F2F9121A8080
:1003D000134B5B78012BDDD00F4B5B880F2BDED0EE
:1003E0000D4B9B88192BE2D100210B4B9980029178
:1003F0003C2203A803F0B2F9192102A803F010F976
:100400009DF80820034B5A80D1E700BF1803002055
:10041000A403002004030020F0020020000002409A
:10042000E8020020FEE7FEE7FEE7FEE7FEE7704792
:100430007047704708B501F009F808BD08B50248D3
:1004400000F0BFF808BD00BF1803002008B502483F
:1004500001F0ECFA08BD00BF6003002008B50248B7
:1004600001F0E4FA08BD00BFA403002082B000211F
:1004700000910B4B5A6C42F480425A645A6C02F45D
:1004800080420092009A01911A6C42F080521A64E4
:100490001B6C03F080530193019B02B0704700BFB7
:1004A0000038024030B4036A056A25F00105056290
:1004B000846924F0F00444EA021423F00A030B4395
:1004C0008461036230BC704730B4056A25F01005C2
:1004D00005628469036A24F4704444EA023423F018
:1004E000A00343EA01138461036230BC7047836850
:1004F00023F070030B4343F0070383607047000051
:1005000090F83D30DBB2012B37D1022380F83D302B
:100510000268D36843F00103D3600368194A934229
:1005200020D0B3F1804F1DD0A2F57C42934219D068
:1005300002F58062934215D002F58062934211D099
:1005400002F5784293420DD002F57052934209D0E1
:10055000A2F59432934205D01A6842F001021A6063
:10056000002070479A6802F00702062A07D01A682E
:1005700042F001021A6000207047012070470020FD
:10058000704700BF000001400268D36823F00103F8
:10059000D3600368196A41F21112114208D1196A35
:1005A00040F24442114203D11A6822F001021A605B
:1005B000012380F83D300020704770477047704736
:1005C000704710B5044603681A6912F0020F11D083
:1005D000DA6812F0020F0DD06FF002021A610123E7
:1005E000037703689B6913F0030F70D0FFF7E6FFF2
:1005F0000023237723681A6912F0040F12D0DA68F7
:1006000012F0040F0ED06FF004021A610223237758
:1006100023689B6913F4407F5FD02046FFF7CEFF2D
:100620000023237723681A6912F0080F12D0DA68C2
:1006300012F0080F0ED06FF008021A61042323771E
:100640002368DB6913F0030F4ED02046FFF7B6FF97
:100650000023237723681A6912F0100F12D0DA688A
:1006600012F0100F0ED06FF010021A6108232377DA
:100670002368DB6913F4407F3DD02046FFF79EFFDF
:100680000023237723681A6912F0010F03D0DA6878
:1006900012F0010F36D123681A6912F0800F03D0CF
:1006A000DA6812F0800F34D123681A6912F0400F13
:1006B00003D0DA6812F0400F32D123681A6912F0C1
:1006C000200F03D0DA6812F0200F30D110BDFFF7F1
:1006D00074FF2046FFF773FF8AE72046FFF76DFFA0
:1006E0002046FFF76CFF9BE72046FFF766FF20469A
:1006F000FFF765FFACE72046FFF75FFF2046FFF7F7
:100700005EFFBDE76FF001021A61204601F094FD23
:10071000C1E76FF080021A61204600F05EF9C3E77E
:100720006FF040021A612046FFF74AFFC5E76FF0FD
:1007300020021A61204600F04FF9C7E70368304AEB
:10074000904212D0B0F1804F0FD0A2F57C4290427F
:100750000BD002F58062904207D002F58062904291
:1007600003D002F57842904203D123F070034A6827
:100770001343234A90422AD0B0F1804F27D0A2F5EC
:100780007C42904223D002F5806290421FD002F555
:10079000806290421BD002F57842904217D002F559
:1007A0007052904213D002F5806290420FD002F551
:1007B000806290420BD0A2F59832904207D002F5A9
:1007C0008062904203D002F58062904203D123F40C
:1007D0004073CA68134323F080034A6913430360DC
:1007E0008B68C3620B688362054B984203D003F5A4
:1007F0008063984201D10B69036301234361704711
:100800000000014040B310B5044690F83D30F3B10C
:10081000022384F83D30214651F8040BFFF78EFF88
:10082000012384F8463084F83E3084F83F3084F861
:10083000403084F8413084F8423084F8433084F802
:10084000443084F8453084F83D30002010BD80F8F5
:100850003C3002F0DFF8DBE70120704710B4846819
:1008600024F47F4442EA03220A43224382605DF873
:10087000044B704790F83C30012B66D010B504460D
:10088000012380F83C30022380F83D3002689368F1
:1008900023F47F4323F0770393600B68602B40D0F1
:1008A00022D8402B47D00BD9502B0ED1CA684968AB
:1008B0000068FFF7F7FD50212068FFF718FE04E0FD
:1008C000202B0CD008D9302B09D0012384F83D30DF
:1008D000002084F83C0010BD0BB1102BF5D1194657
:1008E0002068FFF704FEF0E7702B0ED0B3F5005F31
:1008F000EBD1CB684A6889680068FFF7AFFF2268D0
:10090000936843F480439360DFE7CB684A68896863
:100910000068FFF7A3FF2268936843F077039360B2
:10092000D3E7CA6849680068FFF7CEFD60212068F8
:10093000FFF7DDFDC9E7CA6849680068FFF7B2FD47
:1009400040212068FFF7D3FDBFE702207047000079
:1009500090F83C30012B3BD030B4012380F83C3080
:10096000022380F83D3003685C689D6824F07004C1
:100970000A6822435A600368164A93421AD0B3F1B8
:10098000804F17D0A2F57C42934213D002F58062CB
:1009900093420FD002F5806293420BD002F5784269
:1009A000934207D002F57052934203D0A2F59432DD
:1009B000934204D125F080054A6815439D600123C8
:1009C00080F83D30002380F83C30184630BC70473A
:1009D000022070470000014070477047002800F077
:1009E000DF8170B582B00446036813F0010F3BD07D
:1009F000A64B9B6803F00C03042B2CD0A34B9B68E5
:100A000003F00C03082B21D06368B3F5803F4FD06F
:100A1000B3F5A02F52D09D4B1A6822F480321A6091
:100A20001A6822F480221A606368002B50D000F00C
:100A300019FD0546954B1B6813F4003F14D100F0D7
:100A400011FD401B6428F5D90320B0E18F4B5B6892
:100A500013F4800FD8D08D4B1B6813F4003F03D0E4
:100A60006368002B00F09E81236813F0020F54D0BE
:100A7000864B9B6813F00C0F3ED0844B9B6803F0B1
:100A80000C03082B33D0E368002B67D0804B012286
:100A90001A6000F0E7FC05467C4B1B6813F0020F60
:100AA00053D100F0DFFC401B0228F5D903207EE182
:100AB000764A136843F480331360B5E7734B1A68C2
:100AC00042F480221A601A6842F480321A60ABE75E
:100AD00000F0C8FC05466D4B1B6813F4003FC3D003
:100AE00000F0C0FC401B6428F5D903205FE1674B90
:100AF0005B6813F4800FC6D1644B1B6813F0020FC0
:100B000003D0E368012B40F04F81604A136823F063
:100B1000F803216943EAC1031360236813F0080F47
:100B200040D0636963B35B4B01221A6000F09AFC0A
:100B30000546564B5B6F13F0020F33D100F092FC69
:100B4000401B0228F5D9032031E1504A136823F0F5
:100B5000F803216943EAC1031360DEE74C4B00222E
:100B60001A6000F07FFC0546484B1B6813F0020F2B
:100B7000D3D000F077FC401B0228F5D9032016E102
:100B8000444B00221A6000F06DFC05463F4B5B6F42
:100B900013F0020F06D000F065FC401B0228F5D9C7
:100BA000032004E1236813F0040F78D0374B1B6C4B
:100BB00013F0805F0DD100230193344B1A6C42F087
:100BC00080521A641B6C03F080530193019B012532
:100BD00000E00025304B1B6813F4807F21D0A36810
:100BE000012B32D0052B36D0284B1A6F22F0010290
:100BF0001A671A6F22F004021A67A368002B34D018
:100C000000F030FC0646214B1B6F13F0020F45D15C
:100C100000F028FC801B41F288339842F3D903206E
:100C2000C5E01D4A136843F48073136000F01AFC9A
:100C30000646194B1B6813F4807FD0D100F012FCDC
:100C4000801B0228F5D90320B1E0104A136F43F04E
:100C500001031367D1E70D4B1A6F42F004021A67C4
:100C60001A6F42F001021A67C7E700F0FBFB064665
:100C7000064B1B6F13F0020F10D000F0F3FB801B2C
:100C800041F288339842F3D9032090E000380240C3
:100C900000004742800E474200700040EDB9A36952
:100CA000002B00F08380494A926802F00C02082A67
:100CB00051D0022B17D0464B00221A6000F0D2FB15
:100CC0000446424B1B6813F0007F42D000F0CAFB81
:100CD000001B0228F5D9032069E03C4A136C23F07D
:100CE00080531364DBE73A4B00221A6000F0BAFB32
:100CF0000546364B1B6813F0007F06D000F0B2FBB0
:100D0000401B0228F5D9032051E0E369226A13430E
:100D1000626A43EA8213A26A5208013A43EA024332
:100D2000E26A43EA0263294A5360294B01221A60AE
:100D300000F098FB0446254B1B6813F0007F06D19A
:100D400000F090FB001B0228F5D903202FE00020C3
:100D50002DE000202BE0012B2BD01C4B5B6803F413
:100D60008001E269914226D103F03F02216A8A4262
:100D700023D1616A47F6C0721A40B2EB811F1ED1BF
:100D800003F44031A26A5208013AB1EB024F18D184
:100D900003F07063E26AB3EB026F14D1002006E047
:100DA00001207047012002E0012000E0002002B095
:100DB00070BD0120FBE70120F9E70120F7E70120E2
:100DC000F5E70120F3E70120F1E700BF003802401A
:100DD00060004742F8B52F4B9B6803F00C03042BCF
:100DE00053D0082B53D12B4B5A6802F03F025B685B
:100DF00013F4800F28D0274B5B68C3F38813580186
:100E00000021C01A61F100018E0146EA9066870157
:100E10003C1A66EB0105E90041EA5471E000C01894
:100E200041F100014B0243EAD053440220461946E7
:100E30000023FFF705FA174B5B68C3F30143013347
:100E40005B00B0FBF3F023E0124B5B68C3F3881345
:100E50005C010025E41A65F10005AE0146EA9466DE
:100E6000A701381B66EB0501CC0044EA5074C500AD
:100E7000E81844F100018B0243EA905384022046B3
:100E800019460023FFF7DCF9D5E7034800E00348E3
:100E9000F8BD00BF0038024000127A000024F400C0
:100EA000002800F09B8070B50D4604464F4B1B6830
:100EB00003F007038B4208D2CBB24C4A137013687D
:100EC00003F007038B4240F08B80236813F0020F7E
:100ED00017D013F0040F04D0454A936843F4E0534D
:100EE0009360236813F0080F04D0414A936843F4D9
:100EF000604393603E4A936823F0F003A1680B437C
:100F00009360236813F0010F32D06368012B21D066
:100F10009A1E012A25D9364A126812F0020F61D0B2
:100F200033498A6822F0030213438B6000F09AFA77
:100F300006462F4B9B6803F00C036268B3EB820FED
:100F400016D000F08FFA801B41F288339842F0D916
:100F5000032042E0264A126812F4003FE0D101204B
:100F60003BE0234A126812F0007FD9D1012034E01F
:100F70001E4B1B6803F00703AB4207D9EAB21B4BB9
:100F80001A701B6803F00703AB422DD1236813F0DE
:100F9000040F06D0164A936823F4E053E1680B432C
:100FA0009360236813F0080F07D0114A936823F465
:100FB0006043216943EAC1039360FFF70BFF0C4BC9
:100FC0009B68C3F303130B4AD35CD8400A4B1860E9
:100FD0000A4B186800F0FAF9002070BD0120704734
:100FE0000120FAE70120F8E70120F6E7003C024083
:100FF00000380240CC420008080000200400002015
:10100000014B1868704700BF0800002008B5FFF7C3
:10101000F7FF044B9B68C3F38223034AD35CD84099
:1010200008BD00BF00380240DC42000808B5FFF7E9
:10103000E7FF044B9B68C3F34233034AD35CD840B9
:1010400008BD00BF00380240DC42000800230F2B1F
:1010500000F2DD80F0B482B05DE086685F000324BA
:10106000BC4026EA0406CC68BC4034438460466831
:1010700026EA02064C68C4F300129A4032434260EA
:1010800057E0DC08083450F8247003F0070296009B
:101090000F22B24027EA02070A69B2403A4340F8F9
:1010A00024205AE0072200E00022B2403A430234F2
:1010B000574E46F82420574A1468EA4324EA0506A6
:1010C0004F6817F4803F01D045EA0406514C266072
:1010D000646802EA04064F6817F4003F01D045EA4D
:1010E00004064C4C6660A46802EA04064F6817F4D4
:1010F000801F01D045EA0406464CA660E468224001
:101100004E6816F4001F01D045EA0402414CE2602B
:1011100001330F2B78D801229A400C6804EA0205AB
:1011200032EA0404F4D14C6804F00304013C012CBD
:1011300093D94A6802F00302032A09D0C4685E000A
:101140000322B24024EA02048A68B2402243C26009
:101150004A6802F00302022A93D004685E00032268
:10116000B24024EA02044A6802F00302B240224379
:1011700002604A6812F0805FCAD000220192264ABB
:10118000546C44F480445464526C02F480420192E2
:10119000019A9C08A61C1E4A52F8267003F003020E
:1011A00096000F22B24027EA02071C4A90423FF401
:1011B0007BAF02F5806290421AD002F580629042C5
:1011C00018D002F58062904216D002F580629042FB
:1011D00014D002F58062904212D002F580629042F3
:1011E00010D002F5806290423FF45CAF08225CE7C9
:1011F00001225AE7022258E7032256E7042254E765
:10120000052252E7062250E702B0F0BC7047704753
:1012100000380140003C014000380240000002401C
:101220000AB181617047090481617047436901EA2D
:10123000030221EA030141EA02418161704770B56E
:101240000446866D00F00EF994F83530DBB2022BBF
:1012500006D080236365002384F83430012070BDFC
:1012600005462268136823F0160313602268536949
:1012700023F080035361236CE3B12268136823F0E9
:10128000080313602268136823F0010313602368C6
:101290001B6813F0010F11D000F0E4F8431B052B7D
:1012A000F5D920236365002384F83430032084F8C3
:1012B0003500D4E7A36C002BDFD1E3E7E26D3F23D9
:1012C0009340B360002084F83400012384F8353063
:1012D000C5E790F83530DBB2022B03D0802343659D
:1012E00001207047052380F835300268136823F029
:1012F0000103136000207047074AD36823F4E063BA
:101300001B041B0C000200F4E060034343F0BF63C6
:1013100043F40033D360704700ED00E030B4174B66
:10132000DB68C3F30223C3F10704042C28BF0424A1
:101330001D1D062D18D9033B4FF0FF3505FA04F4A7
:1013400021EA0401994005FA03F322EA0303194351
:1013500000280BDB0901C9B200F1604000F56140D3
:1013600080F8001330BC70470023E5E700F00F0061
:101370000901C9B2024B1954F4E700BF00ED00E0C7
:1013800014ED00E0002807DB00F01F0240090123F4
:101390009340024A42F82030704700BF00E100E06D
:1013A0000138B0F1807F0AD2064B5860064AF0211E
:1013B00082F823100020986007221A6070470120ED
:1013C000704700BF10E000E000ED00E010B50446FB
:1013D0000E4B18784FF47A73B3FBF0F30C4A106895
:1013E000B0FBF3F0FFF7DCFF68B90F2C01D9012047
:1013F0000AE0002221464FF0FF30FFF78FFF054B38
:101400001C60002000E0012010BD00BF0000002093
:10141000080000200400002008B50B4B1A6842F4B5
:1014200000721A601A6842F480621A601A6842F404
:1014300080721A600320FFF75FFF0020FFF7C6FFEE
:10144000FFF714F8002008BD003C0240034A116871
:10145000034B1B780B441360704700BFC40100208E
:1014600000000020014B1868704700BFC401002035
:1014700038B50446FFF7F6FF0546B4F1FF3F02D04A
:10148000044B1B781C44FFF7EDFF401BA042FAD32E
:1014900038BD00BF000000200268D36823F49073B9
:1014A000D3600268536923F001035361036B012B7E
:1014B00005D0202380F83E30002303637047026884
:1014C000D36823F01003D360F3E790F83D30DBB22C
:1014D000212B01D0022070478368B3F5805F17D0BD
:1014E000036A5A1C02621A7803685A60C38C9BB262
:1014F000013B9BB2C3844BB90268D36823F08003DD
:10150000D3600268D36843F04003D3600020704783
:101510000369002BE4D1036A1B880268C3F3080344
:101520005360036A02330362E0E7000070B50446CB
:101530000268136923F44053C1680B431361836845
:101540000269134342691343C2691A430168CB68B5
:1015500023F4164323F00C031343CB600268536952
:1015600023F4407381690B4353610368344A934207
:1015700006D002F58062934202D0FFF747FD01E0FA
:10158000FFF754FDE369B3F5004F2AD00026051894
:1015900046EB06012D1846EB0101CB0043EA5573DB
:1015A000EA001546194663689A009B0F281846EB17
:1015B0000101FEF745FE234DA5FB003251096423CE
:1015C00003FB11031B013233A5FB03235B0903F06B
:1015D000F00202EB011203F00F03216813448B6049
:1015E00070BD0026051846EB06012D1846EB0101DB
:1015F000CB0043EA5573EA00154619466268334644
:10160000921846EB0303281846EB0101FEF718FE7B
:101610000C4DA5FB00325109642303FB1103DB00D1
:101620003233A5FB03235B095A0002F4F87202EB84
:10163000011203F00703216813448B60D0E700BF59
:10164000001001401F85EB512DE9F84305460F4678
:1016500016469946DDF820802C68246837EA040392
:101660000CBF01240024B4421FD1B8F1FF3FF3D0D6
:10167000B8F1000F05D0FFF7F5FEA0EB09004045DB
:10168000EAD92A68D36823F4D073D3602A685369EF
:1016900023F001035361202385F83D3085F83E3067
:1016A000002385F83C30032000E00020BDE8F883EB
:1016B00058B310B5044690F83D300BB3242384F89A
:1016C0003D302268D36823F40053D3602046FFF7EF
:1016D0002DFF2268136923F4904313612268536934
:1016E00023F02A0353612268D36843F40053D36084
:1016F00000202064202384F83D3084F83E3010BD63
:1017000080F83C3001F0DAF9D8E7012070472DE984
:10171000F04182B01E4690F83D30DBB2202B54D110
:1017200004460D469046002953D0002A53D090F825
:101730003C30012B51D0012380F83C30002303645E
:10174000212380F83D30FFF78DFE0746A4F8248062
:10175000A4F82680A368B3F5805F05D04FF0000899
:10176000002384F83C3012E0236913B14FF00008E5
:10177000F6E7A8460025F3E738F8023B2268C3F3F2
:1017800008035360E28C92B2013A92B2E284E38C95
:101790009BB273B100963B46002280212046FFF7A2
:1017A00053FFE0B9002DE7D015F8012B23685A60EC
:1017B000E8E700963B46002240212046FFF744FF21
:1017C00078B9202384F83D3000E0022002B0BDE863
:1017D000F0810120FAE70120F8E70220F6E7032074
:1017E000F4E70320F2E790F83D30DBB2202B16D16E
:1017F000B9B1C2B190F83C30012B16D0016282849D
:10180000C28400230364212280F83D2080F83C300C
:101810000168CA6842F08002CA6018467047022018
:10182000704701207047012070470220704708B5BB
:101830000168CA6822F04002CA60202280F83D2078
:1018400000F0CAFC002008BD704708B5806B00237B
:10185000C385C384FFF7F8FF08BD704710B5044681
:101860000268D36823F0C003D36003685A6912F09A
:10187000800F17D05A6922F080025A61436B4BB136
:101880000D4A1A65406BFFF724FD90B1606B036D44
:1018900098470EE00023C384202380F83D30FFF7F3
:1018A000DCFF06E00023C384202380F83D30FFF7EF
:1018B000D4FF002010BD00BFBD18000808B5806B24
:1018C0000023C384202380F83D30FFF7C6FF08BD06
:1018D0007047000010B504460268D36823F4907383
:1018E000D3600268536923F001035361036B012B3A
:1018F00014D023685A6912F0400F1FD05A6922F0A1
:1019000040025A61A36B7BB1124A1A65A06BFFF7C4
:10191000E0FCE0B1A06B036D984718E00268D36863
:1019200023F01003D360E4E70023E385202284F84A
:101930003E2023632046FFF7CBFF08E00023E3852A
:10194000202284F83E2023632046FFF7C1FF0020B9
:1019500010BD00BF5919000808B5806B0023C3856E
:10196000202280F83E200363FFF7B2FF08BD7047D6
:1019700090F83E30DBB2222B53D110B50446836879
:10198000B3F5805F30D0A26AB3F5805F04D0002B3E
:1019900037D12369002B34D123685B681370A36AA5
:1019A0000133A362E38D9BB2013B9BB2E385002B25
:1019B00039D12268D36823F02003D3602268D3682A
:1019C00023F48073D3602268536923F001035361C9
:1019D000202384F83E30236B012B18D0204600F0E2
:1019E000E3FB002020631FE00269002ACBD1826A5A
:1019F00003685B68C3F308031380836A023383625E
:101A0000D0E723685B6803F07F031370C7E72268A1
:101A1000D36823F01003D360A18D2046FFF7A7FF02
:101A2000DFE702207047002010BD000030B583B012
:101A3000044602681368D068516913F00F0505D198
:101A400013F0200F02D010F0200F19D12DB111F09A
:101A5000010119D110F4907F16D1216B012975D0A5
:101A600013F0800F03D010F0800F40F0D88013F0F7
:101A7000400F03D010F0400F40F0D58003B030BDD0
:101A80002046FFF775FFF9E713F0010F06D010F4B9
:101A9000807F03D0226C42F00102226413F0040F15
:101AA00004D019B1226C42F00202226413F0020F3A
:101AB00004D019B1226C42F00402226413F0080F22
:101AC00007D010F0200F00D119B1226C42F00802AB
:101AD0002264226C002AD1D013F0200F02D010F023
:101AE000200F21D123685B6903F04003226C12F0C0
:101AF000080F00D123B32046FFF7CEFC23685A69B4
:101B000012F0400F18D05A6922F040025A61A36BBC
:101B100073B1474A1A65A06BFFF7DBFB0028ADD015
:101B2000A06B036D9847A9E72046FFF721FFD9E78F
:101B30002046FFF789FEA1E72046FFF785FE9DE7D7
:101B40002046FFF781FE0023236497E713F0100F70
:101B500086D010F0100F83D00023019313680193F7
:101B600053680193019B536913F0400F33D0A16B6D
:101B70000B685B689BB2002B80D0A08D98427FF6EB
:101B80007DAFE385CB69B3F5807F08D1A18DE38D6F
:101B90009BB2C91A89B22046FFF7E9FE6EE7D36807
:101BA00023F48073D3602268536923F001035361E7
:101BB0002268536923F040035361202384F83E30A8
:101BC000002323632268D36823F01003D360A06B43
:101BD000FFF735FBDAE7A18DE38D9BB2C91A89B215
:101BE000E38D9BB2002B3FF449AF00293FF446AF91
:101BF000D36823F49073D3602268536923F0010300
:101C00005361202384F83E30002323632268D36885
:101C100023F01003D3602046FFF7A9FE2EE72046ED
:101C2000FFF753FC2AE72046FFF701FE26E700BF37
:101C30004B180008034681628285C2850020186423
:101C4000222283F83E2083F83C001968CA6842F4D7
:101C50008072CA6019684A6942F001024A611A68D2
:101C6000D36843F02003D360704708B590F83E3046
:101C7000DBB2202B0DD171B17AB190F83C30012B41
:101C80000DD0012380F83C3000230363FFF7D2FF1F
:101C900000E0022008BD0120FCE70120FAE7022055
:101CA000F8E70000034AD2F8883043F47003C2F822
:101CB0008830704700ED00E038B50B88052B01D067
:101CC000032038BD0C464378817841EA0321013175
:101CD00089B2C378027942EA0322531E9BB240F2D2
:101CE000CE75AB4220D800232380012303702388C4
:101CF0000133238012F0070F10D0C2F3C703013362
:101D0000DDB245702388013323800023023000F0C8
:101D100071FD30B923882B442380D2E7C2F3C70575
:101D2000EFE700F0D9F9CCE70320CAE70B88052BD1
:101D300001D0032070474378817841EA03210131C3
:101D400089B20379F3B9C278531EDBB2FD2B1BD9DC
:101D500000B583B000238DF80530FF2A0BD0002397
:101D60008DF8043001231A4601A800F043FD30B974
:101D700003B05DF804FB01238DF80430F2E700F0B6
:101D8000ABF9F5E703207047032070470B88052B5C
:101D90002AD970B50C464178837843EA0123013390
:101DA00099B2C278037943EA0222467913F0070F09
:101DB0000CD0C2F3C7050135EDB2531E9BB2B3F58B
:101DC000F66F13D2B54204D0032070BDC2F3C7052D
:101DD000F3E70123063000F00DFD10B90523238041
:101DE000F3E700F079F9F0E7032070470320ECE710
:101DF00038B50B88052B01D0032038BD0C4643783D
:101E0000817841EA0321013189B2C378027942EA3B
:101E10000322531E9BB240F2CE75AB421FD8002363
:101E200023800223037023880133238012F0070FDD
:101E30000FD0C2F3C7030133DDB2457023880133ED
:101E40002380023000F034FD30B923882B442380F6
:101E5000D3E7C2F3C705F0E700F03EF9CDE7032072
:101E6000CBE708B50B88052B01D0032008BD4378CC
:101E7000817841EA0321013101231A4689B20330F6
:101E800000F07AFC0028F1D000F026F9EEE738B532
:101E90000B88052B20D90C464178837843EA01232F
:101EA000013399B2C378027942EA03224579531E7D
:101EB0009BB2772B12D85300DBB2AB4201D0032088
:101EC0000BE00123063000F057FC10B905232380F6
:101ED00003E000F001F900E0032038BD0320FCE737
:101EE0000B88052B01D00320704770B50C46437852
:101EF000817841EA0321013189B2C378057945EA45
:101F000003256B1E9BB27C2B01D9032070BD0023DF
:101F100023800646032206F8022B22880132228003
:101F20006A0042702288013222802A46304600F040
:101F300023FC20B9238803EB45052580E6E700F064
:101F4000CBF8E3E7F8B50B88092B45D904460D46D5
:101F50004378817841EA032101318EB2C378077951
:101F600047EA03274379817941EA0321013189B2A4
:101F7000C379027A42EA0322407A7B1E9BB27C2B11
:101F80002CD86AB3792A2DD8B0EB420F01D00320A8
:101F900023E0012304F10A0000F0EEFB034618B130
:101FA000D8B100F099F818E028802046172200F8F0
:101FB000022B2A8801322A807A0062702A88013234
:101FC0002A803A46314600F0D7FB0028E8D12B881A
:101FD00003EB47072F80E3E70020F8BD0320FCE771
:101FE0000320FAE70320F8E738B50B88052B01D06A
:101FF000032038BD0C464378817841EA0321013142
:1020000089B2C378057945EA03256B1E9BB27B2B09
:1020100001D90320EDE7002323800346042203F8BF
:10202000022B2288013222806A004270228801320B
:1020300022802A46184600F07BFB20B9238803EB58
:1020400045052580D5E700F047F8D2E738B50D46BD
:10205000054B1C8822460549013001F071FB013413
:102060002C80002038BD00BF30010020100100206E
:1020700070B4CD0801F0070403FA04F6012404FA51
:1020800002F39BB2013B9BB201F0070103FA01F19D
:10209000435D2A19845C43EA04231BB223EA01034B
:1020A0001BB233434355C3F30723835470BC7047BB
:1020B00010B4CC08012393409BB2013B025D204445
:1020C000407842EA002001F00701084180B2184040
:1020D000C0B25DF8044B7047012805D0072805D031
:1020E00008B10420704770470220704706207047EF
:1020F000024B00221A700120704700BF33010020FC
:102100000123034A1370034A10701846704700BF3A
:1021100033010020320100200346054A107830B117
:10212000044A12781A70024B00221A70012070477C
:102130003301002032010020014B1860012070475C
:10214000C801002010B50C4650B1012209490A4BC4
:102150001868FFF78AFD44B1084B1B68984710BD0B
:10216000054B1868FFF7B6FBF5E7034B1868FFF758
:1021700075FBF4E734010020C8010020D4020020E0
:1021800008B50A460146034B1868FFF72CFB0120EF
:1021900008BD00BFC8010020024B1B78037001205E
:1021A000704700BF3401002008B50268074B1B6868
:1021B0001B689A4200D008BD054B1B689847012256
:1021C0000449024B1868FFF750FDF4E7C8010020EE
:1021D000DC0200203401002008B50268044B1B68B3
:1021E0001B689A4200D008BD024B1B689847FAE76B
:1021F000C8010020D4020020024B1960024B188055
:1022000001207047CC0100203801002008B5044BA4
:1022100000221A80034B1868FEF772F908BD00BF50
:1022200036010020CC01002008B5024B1868FEF7EB
:10223000ABF908BDCC01002008B50268084B9A42F2
:1022400000D008BD074A13889BB201339BB21380AC
:10225000054A12889342F4D3044B1B689847F0E771
:10226000000800403601002038010020D80200207C
:1022700072B6024A13680133136070473C010020B4
:10228000034A1368013B136003B962B6704700BF8D
:102290003C01002030B4FF2215464B1E9CB249B1D0
:1022A00010F8013B5340054AD25C6A400449CD5CBA
:1022B0002146F2E742EA052030BC7047E4420008BC
:1022C000E443000870B50E4614461D46FFF7D0FFE4
:1022D0002A4621463046FFF72FFF012804D0032469
:1022E000FFF7CEFF204670BDB4F5964F0BD86400C3
:1022F0000748B0FBF4F0294680B2FFF77DFF0128C4
:1023000003D00324ECE72320F5E70024E8E700BF2F
:10231000A07F170008B5FFF7ABFF0021044B197031
:102320000120FFF70FFFFFF771FFFFF7A9FF08BDBF
:102330004001002008B5FFF79BFF00210846FFF78A
:1023400001FFFFF771FFFFF79BFF08BD70B5064661
:102350000D461446FFF78CFF0F4B1B889BB2032BD7
:1023600004D80524FFF78CFF204670BD0A4B19885E
:1023700089B20A48FFF78EFF58B9084A12F8013BA4
:102380003370054B1B889BB2033B23802A600024DB
:10239000E8E70524E6E700BF48010020D40100205B
:1023A0002DE9F04106460F461446FFF761FF1C4B2E
:1023B0001B78DBB2012B05D00524FFF761FF204617
:1023C000BDE8F081781E174B1860174D4FF00108DB
:1023D000A5F8008007F8016C2A8814FA82F292B2FC
:1023E0002A80298889B2FFF755FF2B889BB203EB1F
:1023F000080292B22A80C2B20C49CA542B889BB2FE
:1024000003EB080292B22A80C0F30720C854084B9D
:1024100083F8008041460020FFF794FE0024CCE7BB
:1024200040010020440100204A010020D401002086
:102430004101002000B583B00DF10700FFF7ACFEAD
:102440001C4B1B78DBB2032B05D8DFE803F0020B33
:102450001D08FFF7DBFE002003B05DF804FBFFF76B
:10246000D5FEF8E7144A0023138013889BB2591C49
:1024700089B211809DF80710104AD1540D4B0222E9
:102480001A70FFF7C3FEE6E70B4B1B889BB2FF2BCE
:102490000CD809490B889BB25A1C92B20A809DF84D
:1024A0000710064AD154FFF7B1FED4E7014B0322CF
:1024B0001A70F8E74001002048010020D4010020F4
:1024C00038B5144B1B7803F0FF0423B1012C07D05F
:1024D0000024204638BD00210120FFF733FEF8E735
:1024E0000D4B1B889BB24BB10B4D298889B20B4B0E
:1024F0001868FFF745FE00242C80EAE70820FFF764
:10250000FFFD044600210120FFF71CFE014B0022C5
:102510001A70DEE7410100204A010020440100203A
:1025200010B50C4B1B785BB103F0FF02022A0CD0F4
:102530000024FFF779FE074B01221A70204610BDD8
:102540000120FFF7DDFD0446F3E70220FFF7D8FD89
:102550000446EEE74001002038B5054608464C1E0B
:10256000E4B2F62C2AD811461A46174B18700DB152
:10257000022424E0154B164C1C60164B164C1C60B4
:10258000164B174C1C60174B174C1C60174B002444
:102590001C60174B174C1C60174B184C1C60184BD9
:1025A000184C1C60049BFFF78DFE044638B9FFF7FA
:1025B0009FFD30B1144B01221A7000E00224204626
:1025C00038BD0324FBE700BF650100205C0100204B
:1025D0001523000860010020352300085401002065
:1025E000A1230008500100204D23000858010020BD
:1025F000DC02002035240008D4020020C124000899
:10260000D8020020212500080C00002008B5064B48
:102610001B78012B01D0062008BD044B1B6898478E
:102620000020014B1870F7E70C0000205C0100202F
:1026300070B582B0344B1C78002C5ED10DF10700D0
:10264000FFF76AFD012802D0204602B070BD9DF858
:102650000730022B0BD0042BF6D12C4B18680178D5
:102660002B4B19702B4B01221A70002316E02A4BBA
:102670001B682A4A25492A48984705460028E3D17D
:10268000274B1B78274A1278934201D0002B36D172
:102690000420FFF735FD2C46D6E701330F2B0DDC68
:1026A000214A12F833204AB19142F6D11E4A02EB78
:1026B000C3035B6819499847164B1870184B1B7871
:1026C000FBB1144B1B7873B1114A11780F480568A0
:1026D000124A0126168041F0800129700068118895
:1026E0008D1915804354114B1B680C4A12880749F9
:1026F00009680C4800789847A6E70624A4E7044632
:10270000A2E71C46A0E700BF0C00002068010020E3
:10271000640100204C010020500100206E010020C7
:102720006C010020650100201000002054010020F1
:1027300030B40F4B1C884B1E9BB299180A2915DC2C
:102740001B1B9BB27AB10B4D35F81340240A01468E
:1027500001F8024B15F81340447001339BB2013A63
:1027600092B20846EEE7002030BC70470120FBE73C
:10277000760100200403002070B41C4C2588013928
:1027800089B28C180A2C2DDC491B89B293B1012B1C
:1027900024D0002027E0164E36F811502D0A0446AA
:1027A00004F8025B16F811504570013189B2013A04
:1027B00092B22046002AEED1184614E0044614F8DE
:1027C000023B0B4D1B0225F811304078034325F8DE
:1027D0001130013189B2013A92B22046002AEDD17E
:1027E000002000E0012070BC704700BF7401002091
:1027F000F00200202DE9F04716461F46D4082A4B68
:102800001A88013989B28B190A2B4ADC0134891ADA
:10281000C1F3CC0501F00708A7B1012F32D0002089
:1028200040E005F1010A1FFA8AFA81460822414672
:102830001E482844FFF73CFC09F8010B013CA4B2F8
:1028400055464846002CECD106F0070210F8016C02
:10285000C2F108029640F6B2164100F8016C384603
:1028600020E005F101091FFA89F9074617F8013B35
:10287000082241460D482844FFF7FAFB013CA4B268
:102880004D463846012CECD816F0070201D1002045
:1028900008E00378414605482844FFF7E9FB00209B
:1028A00000E00120BDE8F08770010020E802002070
:1028B0002DE9F0419046D508174B1A884F1EBFB23C
:1028C00007EB08030A2B25DC04460135BF1AC7F3C2
:1028D000CC0307F007076DB15E1CB6B2082239467B
:1028E0000E481844FFF7E4FB04F8010B013DADB2BC
:1028F0003346F0E708F0070814F8013CC8F108086F
:1029000003FA08F3DBB243FA08F804F8018C00205C
:10291000BDE8F0810120FBE772010020EC020020FD
:1029200030B589B000240394049405940694079468
:1029300000941B4B1A6B42F080021A631A6B02F070
:1029400080020092009A01941A6B42F001021A630D
:102950001A6B02F001020192019A02941A6B42F082
:1029600002021A631B6B03F002030293029B0D4DDC
:10297000224602212846FEF753FC01224FF4004173
:102980002846FEF74DFC48F202030393012304930B
:102990000594069403A92846FEF758FB09B030BDFC
:1029A000003802400000024000B587B000230293C7
:1029B000039304930593009301931448144A02600F
:1029C0001722426083603122C26003618361FDF798
:1029D00019FF90B94FF48053029302A90B48FDF7F9
:1029E00049FF68B900230093019369460748FDF742
:1029F000AFFF40B907B05DF804FBFDF75BFCE9E70A
:102A0000FDF758FCEEE7FDF755FCF3E7180300204F
:102A10000008004002680E4B9A4200D0704700B593
:102A200083B00021019103F50C331A6C42F00402CB
:102A30001A641B6C03F004030193019B0A461E20D9
:102A4000FEF76CFC1E20FEF79DFC03B05DF804FB56
:102A50000008004008B50A480A4B03604FF4E13310
:102A6000436000238360C36003610C224261836181
:102A7000C361FEF71DFE00B908BDFDF71BFCFBE7B7
:102A8000600300200010014008B50A480A4B0360AB
:102A90004FF4E133436000238360C36003610C2281
:102AA00042618361C361FEF703FE00B908BDFDF713
:102AB00001FCFBE7A40300200044004010B58AB0ED
:102AC0000023059306930793089309930368304AFC
:102AD000934204D02F4A93422ED00AB010BD002456
:102AE00001942D4B5A6C42F010025A645A6C02F059
:102AF00010020192019A02941A6B42F001021A63C9
:102B00001B6B03F001030293029B4FF4C063059318
:102B1000022306930794032308930723099305A927
:102B20001E48FEF793FA224621462520FEF7F6FBC3
:102B30002520FEF727FCD0E700240394164B1A6CDF
:102B400042F400321A641A6C02F400320392039ABF
:102B500004941A6B42F001021A631B6B03F0010329
:102B60000493049B0C2305930223069307940323E9
:102B700008930723099305A90848FEF767FA224638
:102B800021462620FEF7CAFB2620FEF7FBFBA4E722
:102B900000100140004400400038024000000240A4
:102BA00008B50D480D4B03604FF48273436000235A
:102BB0008360C360036143614FF400728261C3614B
:102BC0000362436283620A23C36200F0DDF800B946
:102BD00008BDFDF76FFBFBE7E80300200030014074
:102BE00000B589B0002303930493059306930793DC
:102BF0000268154B9A4202D009B05DF804FB00222E
:102C0000019203F58433596C41F480515964596C35
:102C100001F48051019101990292196B41F0020176
:102C200019631B6B03F002030293029B3823039387
:102C3000022304930592032306930523079303A914
:102C40000248FEF703FAD7E70030014000040240D3
:102C50002DE9F04782B00546884617461E46FEF726
:102C600001FC0A9B1B1A03EB0609FEF7FBFB8246DD
:102C70002A4B1B68C3F3CB3309FB03F301932B6887
:102C80009C6838EA04030CBF01240024BC4240D0F5
:102C9000B6F1FF3FF3D0FEF7E5FBA0EB0A00484595
:102CA0000AD2B9F1000F07D0019A02B14A46019B3E
:102CB000013B01939146E2E72A68536823F0E00361
:102CC00053606B68B3F5827F0BD0AB6AB3F5005FDE
:102CD00014D0012385F85130002385F850300320AB
:102CE00018E0AB68B3F5004F02D0B3F5806FECD1BC
:102CF0002A68136823F040031360E6E72A68136824
:102D000023F4005313602A68136843F400531360DC
:102D1000DFE7002002B0BDE8F08700BF0800002018
:102D200030B585B00446164B1868164BA3FB00302F
:102D3000400D4FF47A7505FB00F003906368B3F51E
:102D4000827F0BD0039BBBB1039B013B03932368A2
:102D50009B6813F0800FF5D100200EE000920B4627
:102D6000002280212046FFF773FF30B1636D43F0EE
:102D700020036365032000E0002005B030BD00BFE4
:102D800008000020819F5E1600285AD010B5044626
:102D9000436A33B94368B3F5827F05D00023C3612A
:102DA00002E00023036143610023A36294F85130E1
:102DB000002B40D0022384F851302268136823F09E
:102DC00040031360636803F48273A26802F4044250
:102DD0001343E26802F400621343226902F0020224
:102DE0001343626902F001021343A26902F4007204
:102DF0001343E26902F038021343226A02F08002B0
:102E00001343A26A02F40052216813430B60638BE0
:102E100003F00403626A02F01002216813434B605E
:102E20002268D36923F40063D36100206065012325
:102E300084F8513010BD84F850302046FFF7D0FEA2
:102E4000B8E7012070472DE9F04383B01F460A9D83
:102E500090F85030012B00F01081044688469146CE
:102E6000012380F85030FEF7FDFA064694F8513001
:102E7000DBB26268012B0AD0B2F5827F40F0E380BA
:102E8000A268002A40F0E980042B40F0E880B8F105
:102E9000000F00F0E680B9F1000F00F0E480002F91
:102EA00000F0E38094F85130DBB2042B02D005230C
:102EB00084F8513000236365C4F83890E787A7870A
:102EC000C4F83080E786A7862364636423681A68A1
:102ED00012F0400F03D11A6842F040021A60E36812
:102EE000B3F5006F11D063680BB1012F0BD1226BCA
:102EF000236812781A73236B01332363E38E9BB22A
:102F0000013B9BB2E38601276BE063680BB1012FA5
:102F10000BD1226B23681288DA60236B02332363A0
:102F2000E38E9BB2013B9BB2E38601271CE0236842
:102F30009A6812F0010F0ED0E28F92B25AB1DA689D
:102F4000A36B1A80A36B0233A363E38F9BB2013B95
:102F50009BB2E3870127FEF785FA801BA84203D3C3
:102F6000B5F1FF3F40F08380E38E9BB21BB9E38F46
:102F70009BB2002B53D023689A6812F0020FD6D070
:102F8000E28E92B2002AD2D0002FD0D0226B1288CB
:102F9000DA60236B02332363E38E9BB2013B9BB267
:102FA000E3860027C3E723689A6812F0010F0ED06A
:102FB000E28F92B25AB1DA68A36B1A70A36B013335
:102FC000A363E38F9BB2013B9BB2E3870127FEF72C
:102FD00049FA831BAB4202D3B5F1FF3F49D1002D23
:102FE00049D0E38E9BB213B9E38F9BB2BBB1236888
:102FF0009A6812F0020FD6D0E28E92B2002AD2D096
:10300000002FD0D0226B12781A73236B0133236305
:10301000E38E9BB2013B9BB2E3860027C3E73246B7
:1030200029462046FFF77CFE48B9A36863B901939F
:103030002368DA6801929B680193019B04E02023D6
:103040006365012000E00220012384F85130002351
:1030500084F8503003B0BDE8F0830220F4E702208A
:10306000F2E70120F0E70120EEE70120ECE7032082
:10307000EAE70320E8E70320E6E70220EAE70000AA
:1030800000B587B08DF80F006423009301230DF184
:1030900017020DF10F010448FFF7D5FE9DF8170048
:1030A00007B05DF804FB00BFE8030020F8B5114F3E
:1030B00000224FF400413846FEF7B2F89F20FFF798
:1030C000DFFFA520FFF7DCFF0646A520FFF7D8FFAE
:1030D0000446A520FFF7D4FF054601224FF4004126
:1030E0003846FEF79DF8240244EA064444EA050007
:1030F000F8BD00BF0000024010B50A4C00224FF49A
:1031000000412046FEF78CF80620FFF7B9FF0122A8
:103110004FF400412046FEF783F80120FEF7A8F99E
:1031200010BD00BF0000024010B50120FEF7A0F95D
:1031300000224FF400410D48FEF772F80520FFF71A
:103140009FFFA520FFF79CFF094C84F82400012075
:10315000FEF78EF994F8243013F0010FF1D101221B
:103160004FF400410148FEF75BF810BD000002403B
:103170004004002070B5B94B012283F82720FEF7E8
:1031800071F9632803D80120FEF772F9F7E70122ED
:103190004FF40041B248FEF743F86420FEF768F9A7
:1031A000B04E4FF47A730E22AF493046FEF7AFFAB5
:1031B000FFF77CFF0446AD4D0346AD4A402128464B
:1031C00000F0D4FA2846FCF7E3FF4FF47A7382B29A
:1031D00029463046FEF79BFAA0B243F21703984205
:1031E00018D944F21A03984218D844F211039842AD
:1031F00014D3A0F58040113809280FD8DFE810F06B
:103200005E01210114010701FA00ED00E000D20087
:10321000C400280043F2110398420BD24FF47A7392
:103220000B2294498F48FEF772FA00208B4B83F8EB
:103230002700A8E0A0F5405011380628EED8DFE8B6
:1032400010F08C01810176016B01600155014A018A
:10325000824B0A221A704FF48062DA614FF47A735B
:103260000E2285497F48FEF752FA7C4D4FF4807359
:103270006B814FF480522A61EA691101696112047D
:10328000110AE9604FF48031A961920A2A62774CF1
:103290007A4A4021204600F069FA2046FCF778FF80
:1032A000704E4FF47A7382B221463046FEF72FFA01
:1032B000EB68734A4021204600F058FA2046FCF79C
:1032C00067FF4FF47A7382B221463046FEF71FFA49
:1032D0002B696C4A4021204600F048FA2046FCF752
:1032E00057FF4FF47A7382B221463046FEF70FFA49
:1032F0006B69654A4021204600F038FA2046FCF709
:1033000047FF4FF47A7382B221463046FEF7FFF949
:10331000AB695E4A4021204600F028FA2046FCF7BF
:1033200037FF4FF47A7382B221463046FEF7EFF949
:10333000EB69574A4021204600F018FA2046FCF776
:1033400027FF4FF47A7382B221463046FEF7DFF949
:103350002B6A504A4021204600F008FA2046FCF72C
:1033600017FF4FF47A7382B221463046FEF7CFF949
:103370004FF47A730A2248493046FEF7C8F9002311
:1033800085F82730012070BD344B09221A704FF4A4
:103390000072DA614FF47A730E2240493148FEF729
:1033A000B6F962E72D4B08221A704FF48072DA6189
:1033B0004FF47A730E223A492A48FEF7A8F954E7E7
:1033C000264B07221A708022DA614FF47A730D229D
:1033D00034492448FEF79BF947E7204B06221A7030
:1033E0004022DA614FF47A730D222F491D48FEF70F
:1033F0008EF93AE7194B05221A702022DA614FF450
:103400007A730D2229491748FEF781F92DE7134BEE
:1034100004221A701022DA614FF47A730D222449C3
:103420001048FEF774F920E70C4B03221A700822AB
:10343000DA614FF47A730D221E490A48FEF767F9E4
:1034400013E7064B02221A700422DA614FF47A73F2
:103450000D2219490348FEF75AF906E740040020F7
:103460000000024060030020E444000878010020CE
:10347000F444000810460008004500081C460008F7
:1034800034460008484600086046000874460008B4
:103490008C460008A0460008B84600081045000801
:1034A0002045000830450008404500085045000808
:1034B0006045000870450008804500082C4B01223B
:1034C0001A700222DA614FF47A730D2229492A48D0
:1034D000FEF71DF9C9E6264B8022DA614FF47A73B4
:1034E0000D2226492448FEF712F9BEE6204B402261
:1034F000DA614FF47A730D2221491F48FEF707F96C
:10350000B3E61B4B2022DA614FF47A730D221D497A
:103510001948FEF7FCF8A8E6154B1022DA614FF4C3
:103520007A730D2218491448FEF7F1F89DE6104B06
:103530000822DA614FF47A730D2214490E48FEF71F
:10354000E6F892E60A4B0422DA614FF47A730D2210
:103550000F490948FEF7DBF887E6054B0222DA61DE
:103560004FF47A730D220B490348FEF7D0F87CE63E
:10357000400400209045000860030020A04500089A
:10358000B0450008C0450008D0450008E0450008E7
:10359000F04500080046000870B505460C461E4B75
:1035A00093F82730012B03D10120FDF761FFF6E7E7
:1035B000194E012386F82730FFF7B6FDFFF79CFD73
:1035C00000224FF400411548FDF72AFE0220FFF7C4
:1035D00057FD3378082B1AD8C4F30740FFF750FD86
:1035E000C4F30720FFF74CFDE0B2FFF749FD284682
:1035F000FFF746FD01224FF400410848FDF710FE99
:10360000FFF792FD044B002283F8272070BD200EA7
:10361000FFF736FDE0E700BF400400200000024055
:1036200070B505460C461D4B93F82730012B03D18E
:103630000120FDF71DFFF6E7184E012386F827301D
:1036400000224FF400411648FDF7EAFD0B20FFF77A
:1036500017FD3378082B1CD8C4F30740FFF710FD83
:10366000C4F30720FFF70CFDE0B2FFF709FD0020CF
:10367000FFF706FDA520FFF703FD287001224FF498
:1036800000410748FDF7CCFD044B002283F82720BA
:1036900070BD200EFFF7F4FCDEE700BF4004002001
:1036A00000000240DFF834D00D480E490E4A0023D6
:1036B00002E0D458C4500433C4188C42F9D30B4AE6
:1036C0000B4C002301E013600432A242FBD3FEF74F
:1036D000E9FA00F011F8FCF73FFE70470000022005
:1036E00000000020F400002008470008F40000203B
:1036F00078040020FEE7000070B50D4D0D4C641BF2
:10370000A4100026A64209D10B4D0C4C00F0D2FDAE
:10371000641BA4100026A64205D170BD55F8043BD9
:1037200098470136EEE755F8043B98470136F2E733
:103730000047000800470008004700080447000849
:103740000A44914200F1FF3300D1704710B511F8DF
:10375000014B03F8014F9142F9D110BD02440346D9
:10376000934200D1704703F8011BF9E70CB430B560
:10377000174B0C1E1D689DB008DA8B232B604FF091
:10378000FF301DB0BDE8304002B070474FF4027307
:10379000ADF8143014BF04F1FF33234604930793AC
:1037A0004FF6FF7302900690ADF81630209A21ABC9
:1037B00002A92846019300F069F8431CBCBF8B2383
:1037C0002B60002CDDD0029B00221A70D9E700BFCD
:1037D000900000202DE9F0478E689E4282460C46FC
:1037E00090461F4638D88A8912F4906F32D02568E7
:1037F0000969A5EB0109656905EB450505EBD5757B
:1038000001334B446D109D4238BF1D46530531D5E1
:10381000294600F039FB064650B90C23CAF800309F
:10382000A38943F04003A3814FF0FF30BDE8F08748
:1038300021694A46FFF784FFA38923F4906343F08C
:103840008003A381266165614E44A5EB09052660CE
:10385000A5603E46BE4200D93E46324620684146FB
:1038600000F0A8FAA36822689B1B3244A360226080
:103870000020DBE72A4600F061FB06460028E1D184
:103880002169504600F0B0FAC7E700002DE9F04F7B
:1038900098468B891B069DB007460D4614460ED5EB
:1038A0000B6963B9402100F0EFFA2860286120B964
:1038B0000C233B604FF0FF30D1E040236B610023CD
:1038C000099320238DF82930CDF80C803023DFF8C0
:1038D000A8818DF82A304FF0010923469A4613F843
:1038E000012B0AB1252AF9D1BAEB040B0BD05B46A8
:1038F000224629463846FFF76DFF013000F0AA80C6
:10390000099A5A4409929AF80030002B00F0A280DC
:1039100000234FF0FF32CDE905230AF1010A049399
:1039200007938DF853301A935446052214F8011B5F
:103930005148FCF735FC049AD8B9D00644BF20237F
:103940008DF85330110744BF2B238DF853309AF86C
:1039500000302A2B15D0079A544600204FF00A0C4D
:10396000214611F8013B303B092B4ED9B0B10792EB
:1039700014E0A0EB080309FA03F313430493A246EF
:10398000D2E7039B191D1B680391002BBBBF5B4251
:1039900042F0020207930793B8BF049223782E2BBC
:1039A0000CD163782A2B35D1039B1A1D1B68039217
:1039B000002BB8BF4FF0FF3302340593DFF8C8A0E7
:1039C000217803225046FCF7EBFB40B14023A0EBEB
:1039D0000A0003FA00F0049B03430134049314F833
:1039E000011B26488DF828100622FCF7D9FB002879
:1039F00038D0234B1BBB039B073323F0070308334B
:103A00000393099B3344099367E70CFB02320C468E
:103A10000120A5E700230134059319464FF00A0C55
:103A2000204610F8012B303A092A03D9002BC5D0C3
:103A30000591C3E70CFB012104460123F0E703AB2A
:103A400000932A460F4B04A93846AFF30080421C6E
:103A50000646D6D1AB895B063FF52CAF09981DB061
:103A6000BDE8F08F03AB00932A46064B04A9384605
:103A700000F07AF8EBE700BFC3460008CD46000827
:103A800000000000D5370008C94600082DE9F047BE
:103A9000164699468A680B69DDF820809342B8BFC4
:103AA0001346336091F8432007460C460AB10133B0
:103AB00033602368990642BF336802333360256858
:103AC00015F0060506D104F1190AE36832689B1A5D
:103AD000AB4226DC94F84320131E226818BF012352
:103AE00092062BD404F1430249463846C0470130C0
:103AF0001ED02368E568326803F00603042B08BF74
:103B0000AD1AA36822690CBF25EAE575002593422A
:103B1000C4BF9B1AED1800261A34B5421AD10020F2
:103B200008E00123524649463846C047013003D1D8
:103B30004FF0FF30BDE8F0870135C6E7E1185A1CA9
:103B4000302081F84300224494F8451082F8431055
:103B50000233C7E70123224649463846C0470130B1
:103B6000E6D00136D9E700002DE9FF470C46914623
:103B7000277E0C99782F80469A4604F1430207D895
:103B8000622F0AD8002F00F0D880582F00F0A380B1
:103B900004F1420684F842703AE0A7F16303152B62
:103BA000F6D801A050F823F0013C0008153C0008AD
:103BB000913B0008913B0008913B0008913B0008B5
:103BC000153C0008913B0008913B0008913B000820
:103BD000913B0008213D0008453C0008033D0008DA
:103BE000913B0008913B0008433D0008913B0008D1
:103BF000453C0008913B0008913B00080B3D000844
:103C00000B681A1D1B680A6004F1420684F84230F2
:103C10000123A3E0256808682E0600F104030AD5F5
:103C200005680B60002D03DA2D236D4284F84330C4
:103C30005E480A2319E015F0400F05680B6018BFB5
:103C40002DB2EFE70B682568181D0860280601D51E
:103C50001D6802E06906FBD51D8854486F2F0CBF14
:103C600008230A23002184F843106668A660002E0A
:103C7000A2BF216821F0040121600DB9002E4DD0B2
:103C80001646B5FBF3F103FB1157C75D06F8017D3E
:103C90002F46BB420D46F4D9082B0BD12368DF0712
:103CA00008D5236961689942DEBF302306F8013CDC
:103CB00006F1FF36921B2261CDF800A04B4603AA05
:103CC00021464046FFF7E2FE01304CD14FF0FF3075
:103CD00004B0BDE8F087354884F8457023680E6865
:103CE0001F0656F8045B0E6014D5D90744BF43F095
:103CF000200323601DB9236823F0200323601023D1
:103D0000B0E7236843F0200323607823284884F831
:103D10004530E3E75E0648BFADB2E6E71646BBE7CF
:103D20000B68266860691D1D0D6035061B6801D58E
:103D3000186002E07106FBD5188000232361164647
:103D4000BAE70B681A1D0A601E68626800213046D7
:103D5000FCF726FA08B1801B6060636823610023CA
:103D600084F84330A8E72369324649464046D047A5
:103D70000130ABD023689B0713D4E068039B9842C3
:103D8000B8BF1846A4E70123324649464046D0470B
:103D900001309BD00135E36803995B1AAB42F2DC3A
:103DA000EBE7002504F11906F5E700BFD44600084B
:103DB000E5460008884210B501EB020402D98442AE
:103DC000234607D8431EA14208D011F8012B03F85F
:103DD000012FF8E7024401468A4200D110BD13F8D2
:103DE000014D02F8014DF7E737B5002948D051F8E9
:103DF000043C0190002BA1F10404B8BFE41800F0CA
:103E0000D3F8204A01981368154633B963601460EB
:103E100003B0BDE8304000F0CDB8A3420BD9216813
:103E20006218934204BF1A685B68636004BF52184B
:103E300022602C60ECE71A465B680BB1A342FAD90A
:103E400011685518A5420BD1246821445418A34287
:103E50001160DDD11C685B68536021441160D7E7B5
:103E600002D90C230360D3E7256861198B4204BF94
:103E700019685B68636004BF491921605460C7E733
:103E800003B030BDB8010020F8B5CD1C25F0030506
:103E900008350C2D38BF0C25002D064601DBA94244
:103EA00003D90C2333600020F8BD00F07DF82149D0
:103EB0000A6814469CB9204F3B6823B92146304616
:103EC00000F062F838602946304600F05DF8431C87
:103ED00023D10C233360304600F06CF8E3E723680D
:103EE0005B1B17D40B2B03D923601C44256004E013
:103EF0006368A2420CBF0B605360304600F05AF872
:103F000004F10B00231D20F00700C21ACCD01B1AAD
:103F1000A350C9E722466468CCE7C41C24F003041C
:103F2000A042E3D0211A304600F02EF80130DDD156
:103F3000CFE700BFB8010020BC010020F8B507465C
:103F400014460E4621B9BDE8F8401146FFF79CBF64
:103F500022B9FFF749FF25462846F8BD00F030F8A2
:103F6000A0420FD221463846FFF78EFF05460028B3
:103F7000F2D031462246FFF7E3FB31463846FFF7E1
:103F800033FFE9E73546E7E738B5064D0023044639
:103F900008462B6000F01EF8431C02D12B6803B1C9
:103FA000236038BD68040020014800F011B800BF4C
:103FB00070040020014800F00CB800BF700400201D
:103FC00051F8043C181F002BBCBF0B58C018704799
:103FD00070477047044A05491368002B08BF0B4619
:103FE0001844106018467047C00100207804002073
:103FF0002DE9F047089D04468C46002B40F0838055
:104000008A42174647D9B2FA82F242B1C2F1200081
:1040100024FA00F09140974040EA010C94404FEAA6
:104020001748230CBCFBF8F61FFA87FE08FB16C1E5
:1040300043EA014306FB0EF1994209D9FB1806F148
:10404000FF3080F01981994240F21681023E3B44D4
:104050005B1AA4B2B3FBF8F008FB103344EA034444
:1040600000FB0EFEA64509D93C1900F1FF3380F094
:104070000581A64540F2028102383C4440EA0640F0
:10408000A4EB0E0400261DB1D4400023C5E9004373
:104090003146BDE8F08702B9FFDEB2FA82F2002AAB
:1040A00050D1CB1B4FEA174E1FFA87F80126B3FBFE
:1040B000FEFC210C0EFB1C3341EA034108FB0CF310
:1040C0008B4207D979180CF1FF3002D28B4200F2F3
:1040D000E9808446C91AA3B2B1FBFEF00EFB1011B1
:1040E00043EA014408FB00F8A04507D93C1900F158
:1040F000FF3302D2A04500F2D9801846A4EB080491
:1041000040EA0C40BFE78B4209D9002D00F0B18096
:104110000026C5E9000130463146BDE8F087B3FA14
:1041200083F6002E4AD18B4202D3824200F2B8803D
:10413000841A61EB030101208C46002DA8D0C5E94B
:10414000004CA5E7C2F1200320FA03F6974001FADC
:1041500002F04FEA174ED9403043030CB1FBFEF694
:104160001FFA87F80EFB161143EA014306FB08F11C
:10417000994204FA02F409D9FB1806F1FF3C80F0D9
:104180008D80994240F28A80023E3B445B1A81B2A4
:10419000B3FBFEF00EFB103341EA034100FB08F3D2
:1041A0008B4207D9791800F1FF3C73D28B4271D949
:1041B00002383944CB1A40EA064678E7C6F1200CAB
:1041C00003FA06F422FA0CF31C4320FA0CF701FA66
:1041D00006F34FEA144E21FA0CF11F433B0CB1FBDE
:1041E000FEF91FFA84F80EFB191143EA014109FB9D
:1041F00008FA8A4502FA06F200FA06F308D96118AD
:1042000009F1FF3048D28A4546D9A9F10209214473
:10421000A1EB0A01BFB2B1FBFEF00EFB101147EAA1
:10422000014700FB08F8B84507D9E71900F1FF314D
:104230002ED2B8452CD90238274440EA0940A7EBD2
:104240000807A0FB02894F45C64649461AD317D036
:104250005DB1B3EB0E0267EB010707FA0CFCF2400D
:104260004CEA0202F740C5E9002700263146BDE8C6
:10427000F0872E4628460BE70646E9E61846FDE697
:104280004345E5D2B8EB020E69EB04010138DFE7E4
:104290000846D2E760468DE78146B9E7664675E78E
:1042A00030464AE7ACF1020C394413E702383C448B
:1042B00024E700BFF8B500BFF8BC08BC9E467047B5
:0C42C000F8B500BFF8BC08BC9E46704773
:1042CC0000000000000000000102030406070809BA
:1042DC00000000000102030400C1814001C08041C4
:1042EC0001C0804100C1814001C0804100C18140BA
:1042FC0000C1814001C0804101C0804100C18140AA
:10430C0000C1814001C0804100C1814001C0804199
:10431C0001C0804100C1814001C0804100C1814089
:10432C0000C1814001C0804100C1814001C0804179
:10433C0001C0804100C1814000C1814001C0804169
:10434C0001C0804100C1814001C0804100C1814059
:10435C0000C1814001C0804101C0804100C1814049
:10436C0000C1814001C0804100C1814001C0804139
:10437C0001C0804100C1814000C1814001C0804129
:10438C0001C0804100C1814001C0804100C1814019
:10439C0000C1814001C0804100C1814001C0804109
:1043AC0001C0804100C1814001C0804100C18140F9
:1043BC0000C1814001C0804101C0804100C18140E9
:1043CC0000C1814001C0804100C1814001C08041D9
:1043DC0001C0804100C1814000C0C101C30302C2C1
:1043EC00C60607C705C5C404CC0C0DCD0FCFCE0E29
:1043FC000ACACB0BC90908C8D81819D91BDBDA1A99
:10440C001EDEDF1FDD1D1CDC14D4D515D71716D608
:10441C00D21213D311D1D010F03031F133F3F23278
:10442C0036F6F737F53534F43CFCFD3DFF3F3EFEE8
:10443C00FA3A3BFB39F9F83828E8E929EB2B2AEA58
:10444C00EE2E2FEF2DEDEC2CE42425E527E7E626C8
:10445C0022E2E323E12120E0A06061A163A3A26238
:10446C0066A6A767A56564A46CACAD6DAF6F6EAEA8
:10447C00AA6A6BAB69A9A86878B8B979BB7B7ABA18
:10448C00BE7E7FBF7DBDBC7CB47475B577B7B67688
:10449C0072B2B373B17170B05090915193535292F8
:1044AC0096565797559594549C5C5D9D5F9F9E5E68
:1044BC005A9A9B5B99595898884849894B8B8A4AD8
:1044CC004E8E8F4F8D4D4C8C448485458747468648
:1044DC008242438341818040496E69742042656702
:1044EC00696E2E2E2E0A000049443A3078256C58FD
:1044FC000A000000436869703A2077323571353113
:10450C00320A0000436869703A20773235713235CF
:10451C00360A0000436869703A20773235713132BF
:10452C00380A0000436869703A20773235713634A6
:10453C000A000000436869703A20773235713332D3
:10454C000A000000436869703A20773235713136C1
:10455C000A000000436869703A20773235713830B0
:10456C000A000000436869703A20773235713430A4
:10457C000A000000436869703A2077323571323096
:10458C000A000000436869703A2077323571313087
:10459C000A000000436869703A2077323578363467
:1045AC000A000000436869703A207732357833325C
:1045BC000A000000436869703A207732357831364A
:1045CC000A000000436869703A2077323578383039
:1045DC000A000000436869703A207732357834302D
:1045EC000A000000436869703A207732357832301F
:1045FC000A000000436869703A2077323578313010
:10460C000A000000556E6B6E6F776E2049440A00ED
:10461C00506167652053697A653A20256420427998
:10462C007465730A000000005061676520436F7564
:10463C006E743A20256C750A000000005365637493
:10464C006F722053697A653A20256C752042797413
:10465C0065730A00536563746F7220436F756E74D3
:10466C003A20256C750A0000426C6F636B2053690D
:10467C007A653A20256C752042797465730A0000BE
:10468C00426C6F636B20436F756E743A20256C75AA
:10469C000A00000043617061636974793A20256CEB
:1046AC0075204B42797465730A000000496E697479
:1046BC0020446F6E650A00232D302B2000686C4C53
:1046CC00006566674546470030313233343536373E
:1046DC003839414243444546003031323334353663
:0C46EC00373839616263646566000000C5
:0846F800F8F8FF7F010000004B
:044700009902000812
:044704007502000832
:1047080001000000100000000024F4000200000076
:10471800110000004D20000804000000E91F0008F7
:1047280003000000E11E0008100000008F1E0008B2
:1047380006000000631E000817000000451F00085F
:1047480001000000B91C0008050000002D1D00082C
:104758000F0000008D1D000802000000F11D000878
:104768000000000000000000000000000000000041
:104778000000000000000000000000000000000031
:104788000000000000000000000000000000000021
:10479800940000200000000000000000000000005D
:1047A8000000000000000000000000000000000001
:1047B80000000000000000000000000000000000F1
:1047C80000000000000000000000000000000000E1
:1047D80000000000000000000000000000000000D1
:1047E80000000000000000000000000000000000C1
:0447F80000000000BD
:04000005080036A514
:00000001FF
