:020000040800F2
:1000000000000220A5400008A10B0008A30B000877
:10001000A50B0008A70B0008A90B000800000000B2
:10002000000000000000000000000000AB0B000812
:10003000AD0B000800000000AF0B0008B10B00087A
:10004000F5400008F5400008F5400008F5400008BC
:10005000F5400008F5400008F5400008F5400008AC
:10006000F5400008F5400008F5400008F54000089C
:10007000F5400008F5400008F5400008F54000088C
:10008000F5400008F5400008F5400008F54000087C
:10009000F5400008F5400008F5400008F54000086C
:1000A000F5400008F5400008F5400008F54000085C
:1000B000F5400008B90B0008950C0008F540000851
:1000C000F5400008F5400008F5400008F54000083C
:1000D000F5400008A50C0008B50C0008F540000824
:1000E000F5400008F5400008F5400008F54000081C
:1000F000F5400008F5400008F5400008F54000080C
:10010000F5400008F5400008F5400008F5400008FB
:10011000F5400008F5400008F5400008F5400008EB
:10012000F5400008F5400008F5400008F5400008DB
:10013000F5400008F5400008F5400008F5400008CB
:10014000F5400008F5400008F5400008F5400008BB
:10015000F5400008F5400008F5400008F5400008AB
:10016000F5400008F5400008F5400008F54000089B
:10017000F5400008F5400008F540000800000000C8
:08018000F5400008F5400008FD
:1001880081F0004102E000BF83F0004330B54FEA40
:1001980041044FEA430594EA050F08BF90EA020FAD
:1001A8001FBF54EA000C55EA020C7FEA645C7FEA40
:1001B800655C00F0E2804FEA5454D4EB5555B8BF63
:1001C8006D420CDD2C4480EA020281EA030382EAD4
:1001D800000083EA010180EA020281EA0303362D66
:1001E80088BF30BD11F0004F4FEA01314FF4801C39
:1001F8004CEA113102D0404261EB410113F0004F4B
:100208004FEA03334CEA133302D0524263EB430301
:1002180094EA050F00F0A780A4F10104D5F1200E9F
:100228000DDB02FA0EFC22FA05F2801841F10001FA
:1002380003FA0EF2801843FA05F359410EE0A5F1CE
:1002480020050EF1200E012A03FA0EFC28BF4CF0FF
:10025800020C43FA05F3C01851EBE37101F00045B5
:1002680007D54FF0000EDCF1000C7EEB00006EEBC2
:100278000101B1F5801F1BD3B1F5001F0CD349084C
:100288005FEA30004FEA3C0C04F101044FEA4452A3
:1002980012F5800F80F09A80BCF1004F08BF5FEA2A
:1002A800500C50F1000041EB045141EA050130BD0A
:1002B8005FEA4C0C404141EB0101013C28BFB1F51C
:1002C800801FE9D291F0000F04BF01460020B1FA67
:1002D80081F308BF2033A3F10B03B3F120020CDA3A
:1002E8000C3208DD02F1140CC2F10C0201FA0CF018
:1002F80021FA02F10CE002F11402D8BFC2F1200C7D
:1003080001FA02F120FA0CFCDCBF41EA0C01904032
:10031800E41AA2BF01EB0451294330BD6FEA04047B
:100328001F3C1CDA0C340EDC04F11404C4F1200266
:1003380020FA04F001FA02F340EA030021FA04F378
:1003480045EA030130BDC4F10C04C4F1200220FACF
:1003580002F001FA04F340EA0300294630BD21FA0D
:1003680004F0294630BD94F0000F83F4801306BFD3
:1003780081F480110134013D4EE77FEA645C18BFC7
:100388007FEA655C29D094EA050F08BF90EA020F5E
:1003980005D054EA000C04BF1946104630BD91EA56
:1003A800030F1EBF0021002030BD5FEA545C05D159
:1003B8004000494128BF41F0004130BD14F5800498
:1003C8003CBF01F5801130BD01F0004545F0FE410C
:1003D80041F470014FF0000030BD7FEA645C1ABF41
:1003E800194610467FEA655C1CBF0B46024650EA78
:1003F800013406BF52EA033591EA030F41F40021A4
:1004080030BD00BF90F0000F04BF0021704730B529
:100418004FF4806404F132044FF000054FF00001FE
:1004280050E700BF90F0000F04BF0021704730B5BF
:100438004FF4806404F1320410F0004548BF404294
:100448004FF000013EE700BF42004FEAE2014FEAE9
:1004580031014FEA02701FBF12F07F4393F07F4FC4
:1004680081F06051704732F07F4208BF704793F0C7
:100478007F4F04BF41F40021704730B54FF46074DA
:1004880001F0004521F000411CE700BF50EA0102DD
:1004980008BF704730B54FF000050AE050EA010286
:1004A80008BF704730B511F0004502D5404261EBF6
:1004B80041014FF4806404F132045FEA915C3FF437
:1004C800D8AE4FF003025FEADC0C18BF03325FEAD4
:1004D800DC0C18BF033202EBDC02C2F1200300FA85
:1004E80003FC20FA02F001FA03FE40EA0E0021FAAA
:1004F80002F11444BDE600BF70B54FF0FF0C4CF498
:10050800E06C1CEA11541DBF1CEA135594EA0C0F49
:1005180095EA0C0F00F0DEF82C4481EA030621EA84
:100528004C5123EA4C5350EA013518BF52EA0335BF
:1005380041F4801143F4801338D0A0FB02CE4FF071
:100548000005E1FB02E506F00042E0FB03E54FF0A1
:100558000006E1FB03569CF0000F18BF4EF0010E99
:10056800A4F1FF04B6F5007F64F5407404D25FEA95
:100578004E0E6D4146EB060642EAC62141EA555148
:100588004FEAC52040EA5E504FEACE2EB4F1FD0C8A
:1005980088BFBCF5E06F1ED8BEF1004F08BF5FEA08
:1005A800500E50F1000041EB045170BD06F00046BA
:1005B80046EA010140EA020081EA0301B4EB5C0467
:1005C800C2BFD4EB0C0541EA045170BD41F480115F
:1005D8004FF0000E013C00F3AB8014F1360FDEBF84
:1005E800002001F0004170BDC4F10004203C35DA60
:1005F8000C341BDC04F11404C4F1200500FA05F3E3
:1006080020FA04F001FA05F240EA020001F0004283
:1006180021F0004110EBD37021FA04F642EB0601F9
:100628005EEA430E08BF20EAD37070BDC4F10C0423
:10063800C4F1200500FA04F320FA05F001FA04F2E7
:1006480040EA020001F0004110EBD37041F10001D3
:100658005EEA430E08BF20EAD37070BDC4F12005DE
:1006680000FA05F24EEA020E20FA04F301FA05F246
:1006780043EA020321FA04F001F0004121FA04F2EE
:1006880020EA020000EBD3705EEA430E08BF20EABE
:10069800D37070BD94F0000F0FD101F000464000F8
:1006A80041EB010111F4801F08BF013CF7D041EA7A
:1006B800060195F0000F18BF704703F0004652007E
:1006C80043EB030313F4801F08BF013DF7D043EA4F
:1006D8000603704794EA0C0F0CEA135518BF95EA05
:1006E8000C0F0CD050EA410618BF52EA4306D1D18C
:1006F80081EA030101F000414FF0000070BD50EAAB
:10070800410606BF1046194652EA430619D094EA34
:100718000C0F02D150EA013613D195EA0C0F05D11E
:1007280052EA03361CBF104619460AD181EA030172
:1007380001F0004141F0FE4141F470014FF000002A
:1007480070BD41F0FE4141F4780170BD70B54FF0C5
:10075800FF0C4CF4E06C1CEA11541DBF1CEA135545
:1007680094EA0C0F95EA0C0F00F0A7F8A4EB050427
:1007780081EA030E52EA03354FEA013100F088801E
:100788004FEA03334FF0805545EA131343EA1263E7
:100798004FEA022245EA111545EA10654FEA00269C
:1007A8000EF000419D4208BF964244F1FD0404F555
:1007B800407402D25B084FEA3202B61A65EB0305B1
:1007C8005B084FEA32024FF480104FF4002CB6EB6E
:1007D800020E75EB030E22BFB61A754640EA0C00EE
:1007E8005B084FEA3202B6EB020E75EB030E22BF2E
:1007F800B61A754640EA5C005B084FEA3202B6EB6F
:10080800020E75EB030E22BFB61A754640EA9C002D
:100818005B084FEA3202B6EB020E75EB030E22BFFD
:10082800B61A754640EADC0055EA060E18D04FEABB
:10083800051545EA16754FEA06164FEAC30343EA5B
:1008480052734FEAC2025FEA1C1CC0D111F4801F28
:100858000BD141EA00014FF000004FF0004CB6E721
:1008680011F4801F04BF01430020B4F1FD0C88BFC0
:10087800BCF5E06F3FF6AFAEB5EB030C04BFB6EBCB
:10088800020C5FEA500C50F1000041EB045170BDBE
:100898000EF0004E4EEA113114EB5C04C2BFD4EBEB
:1008A8000C0541EA045170BD41F480114FF0000E6F
:1008B800013C90E645EA060E8DE60CEA135594EAEB
:1008C8000C0F08BF95EA0C0F3FF43BAF94EA0C0FEE
:1008D8000AD150EA01347FF434AF95EA0C0F7FF463
:1008E80025AF104619462CE795EA0C0F06D152EAB7
:1008F80003353FF4FDAE1046194622E750EA41069B
:1009080018BF52EA43067FF4C5AE50EA41047FF4AB
:100918000DAF52EA43057FF4EBAE12E74FEA41020E
:10092800B2F1E04324BFB3F5001CDCF1FE5C0DD945
:1009380001F0004C4FEAC0024CEA5070B2F1004F8F
:1009480040EB830008BF20F00100704711F0804F92
:1009580021D113F13872BCBF01F00040704741F457
:1009680080114FEA5252C2F11802C2F1200C10FA5B
:100978000CF320FA02F018BF40F001004FEAC1233F
:100988004FEAD32303FA0CFC40EA0C0023FA02F3E3
:100998004FEA4303CCE77FEA625307D150EA0133B9
:1009A8001EBF4FF0FE4040F44000704701F0004089
:1009B80040F0FE4040F40000704700BF53B94AB908
:1009C800002908BF00281CBF4FF0FF314FF0FF304F
:1009D80000F00CB8ADF1080C6DE904CE03F0C2FBD1
:1009E800DDF804E0DDE9022304B07047704700BF7A
:1009F80010B5054C237833B9044B13B10448AFF351
:100A080000800123237010BD90000020000000002A
:100A18003044000808B5034B1BB103490348AFF342
:100A2800008008BD00000000940000203044000849
:100A380072B6FEE700B595B03022002108A803F091
:100A480089FB00230393049305930693079301936B
:100A58001F4A116C41F080511164126C02F08052EF
:100A68000192019A02931B4B1A6842F480421A6061
:100A78001B6803F480430293029B012308934FF4FD
:100A88008033099302230E934FF480030F930823B6
:100A98001093C023119304231293139308A800F012
:100AA800C5FB88B90F23039302230493802305937E
:100AB800002106914FF48053079303A800F018FE15
:100AC80020B915B05DF804FBFFF7B2FFFFF7B0FFE0
:100AD800003802400070004010B592B001F0C4F830
:100AE800FFF7A8FF02F0BAFA02F034FB02F0A2FB0B
:100AF80002F0BAFB02F044FC02F0D2FF02F0F2FA74
:100B08001F4B00934FF4E1331E4A0121002002F0ED
:100B1800ABF802F003F91C4800F01AF913E01B4C7B
:100B28000020608002F0F0FE1921A07902F032FF67
:100B380010E09FED170A062002F07AFA142001F05F
:100B4800BFF802F0FDF8114B40F2F9121A805B88E9
:100B58000F2BE4D00D4B9B88192BEAD100210B4BAE
:100B6800998002913C2203A803F0F4FA192102A803
:100B780002F054FF9DF80820064B5A80D9E700BFC1
:100B8800780200204C030020C00200205002002000
:100B9800AE370B4464020020FEE7FEE7FEE7FEE7FF
:100BA800FEE770477047704708B501F077F808BD51
:100BB80010B502212C4800F061FF2C4C204603F0B0
:100BC80083F86421204603F041F950B1274803F027
:100BD8001DF9274A938801339380264800F019F9B4
:100BE80010BD204603F08EF907EE900AF8EE677AFA
:100BF8009FED217A67EE877A17EE900AFFF724FCBB
:100C080013A3D3E90023FFF777FCFFF787FE1B4BFD
:100C18001860FFF719FC10A3D3E90023FFF7B4FA13
:100C28000FA3D3E90023FFF791FD0022144BFFF730
:100C3800ADFAFFF773FE00EE100A124B1860124B64
:100C48001860002002F0F4F9C0E700BFAFF300809D
:100C58006666666666660A4052B81E85EB51E83FCE
:100C68007B14AE47E17A643F000002401004002084
:100C780064020020C002002000008039B00000207B
:100C88000000394020010020AC00002008B50248CF
:100C980000F0BFF808BD00BF7802002008B5024880
:100CA80001F04CFA08BD00BF0803002008B502484F
:100CB80001F044FA08BD00BF4C03002082B00021B7
:100CC80000910B4B5A6C42F480425A645A6C02F4FD
:100CD80080420092009A01911A6C42F080521A6484
:100CE8001B6C03F080530193019B02B0704700BF57
:100CF8000038024030B4036A056A25F00105056230
:100D0800846924F0F00444EA021423F00A030B4334
:100D18008461036230BC704730B4056A25F0100561
:100D280005628469036A24F4704444EA023423F0B7
:100D3800A00343EA01138461036230BC70478368EF
:100D480023F070030B4343F00703836070470000F0
:100D580090F83D30DBB2012B37D1022380F83D30CB
:100D68000268D36843F00103D3600368194A9342C9
:100D780020D0B3F1804F1DD0A2F57C42934219D008
:100D880002F58062934215D002F58062934211D039
:100D980002F5784293420DD002F57052934209D081
:100DA800A2F59432934205D01A6842F001021A6003
:100DB800002070479A6802F00702062A07D01A68CE
:100DC80042F001021A60002070470120704700209D
:100DD800704700BF000001400268D36823F0010398
:100DE800D3600368196A41F21112114208D1196AD5
:100DF80040F24442114203D11A6822F001021A60FB
:100E0800012380F83D3000207047704770477047D5
:100E1800704710B5044603681A6912F0020F11D022
:100E2800DA6812F0020F0DD06FF002021A61012386
:100E3800037703689B6913F0030F70D0FFF7E6FF91
:100E48000023237723681A6912F0040F12D0DA6896
:100E580012F0040F0ED06FF004021A6102232377F8
:100E680023689B6913F4407F5FD02046FFF7CEFFCD
:100E78000023237723681A6912F0080F12D0DA6862
:100E880012F0080F0ED06FF008021A6104232377BE
:100E98002368DB6913F0030F4ED02046FFF7B6FF37
:100EA8000023237723681A6912F0100F12D0DA682A
:100EB80012F0100F0ED06FF010021A61082323777A
:100EC8002368DB6913F4407F3DD02046FFF79EFF7F
:100ED8000023237723681A6912F0010F03D0DA6818
:100EE80012F0010F36D123681A6912F0800F03D06F
:100EF800DA6812F0800F34D123681A6912F0400FB3
:100F080003D0DA6812F0400F32D123681A6912F060
:100F1800200F03D0DA6812F0200F30D110BDFFF790
:100F280074FF2046FFF773FF8AE72046FFF76DFF3F
:100F38002046FFF76CFF9BE72046FFF766FF204639
:100F4800FFF765FFACE72046FFF75FFF2046FFF796
:100F58005EFFBDE76FF001021A61204601F0F4FC64
:100F6800C1E76FF080021A61204600F05EF9C3E71E
:100F78006FF040021A612046FFF74AFFC5E76FF09D
:100F880020021A61204600F04FF9C7E70368304A8B
:100F9800904212D0B0F1804F0FD0A2F57C4290421F
:100FA8000BD002F58062904207D002F58062904231
:100FB80003D002F57842904203D123F070034A68C7
:100FC8001343234A90422AD0B0F1804F27D0A2F58C
:100FD8007C42904223D002F5806290421FD002F5F5
:100FE800806290421BD002F57842904217D002F5F9
:100FF8007052904213D002F5806290420FD002F5F1
:10100800806290420BD0A2F59832904207D002F548
:101018008062904203D002F58062904203D123F4AB
:101028004073CA68134323F080034A69134303607B
:101038008B68C3620B688362054B984203D003F543
:101048008063984201D10B690363012343617047B0
:101058000000014040B310B5044690F83D30F3B1AC
:10106800022384F83D30214651F8040BFFF78EFF28
:10107800012384F8463084F83E3084F83F3084F801
:10108800403084F8413084F8423084F8433084F8A2
:10109800443084F8453084F83D30002010BD80F895
:1010A8003C3002F08DF8DBE70120704710B484680B
:1010B80024F47F4442EA03220A43224382605DF813
:1010C800044B704790F83C30012B66D010B50446AD
:1010D800012380F83C30022380F83D300268936891
:1010E80023F47F4323F0770393600B68602B40D091
:1010F80022D8402B47D00BD9502B0ED1CA6849684B
:101108000068FFF7F7FD50212068FFF718FE04E09C
:10111800202B0CD008D9302B09D0012384F83D307E
:10112800002084F83C0010BD0BB1102BF5D11946F6
:101138002068FFF704FEF0E7702B0ED0B3F5005FD0
:10114800EBD1CB684A6889680068FFF7AFFF22686F
:10115800936843F480439360DFE7CB684A68896803
:101168000068FFF7A3FF2268936843F07703936052
:10117800D3E7CA6849680068FFF7CEFD6021206898
:10118800FFF7DDFDC9E7CA6849680068FFF7B2FDE7
:1011980040212068FFF7D3FDBFE702207047000019
:1011A80090F83C30012B3BD030B4012380F83C3020
:1011B800022380F83D3003685C689D6824F0700461
:1011C8000A6822435A600368164A93421AD0B3F158
:1011D800804F17D0A2F57C42934213D002F580626B
:1011E80093420FD002F5806293420BD002F5784209
:1011F800934207D002F57052934203D0A2F594327D
:10120800934204D125F080054A6815439D60012367
:1012180080F83D30002380F83C30184630BC7047D9
:10122800022070470000014070477047002800F016
:10123800DF8170B582B00446036813F0010F3BD01C
:10124800A64B9B6803F00C03042B2CD0A34B9B6884
:1012580003F00C03082B21D06368B3F5803F4FD00F
:10126800B3F5A02F52D09D4B1A6822F480321A6031
:101278001A6822F480221A606368002B50D000F0AC
:1012880019FD0546954B1B6813F4003F14D100F077
:1012980011FD401B6428F5D90320B0E18F4B5B6832
:1012A80013F4800FD8D08D4B1B6813F4003F03D084
:1012B8006368002B00F09E81236813F0020F54D05E
:1012C800864B9B6813F00C0F3ED0844B9B6803F051
:1012D8000C03082B33D0E368002B67D0804B012226
:1012E8001A6000F0E7FC05467C4B1B6813F0020F00
:1012F80053D100F0DFFC401B0228F5D903207EE122
:10130800764A136843F480331360B5E7734B1A6861
:1013180042F480221A601A6842F480321A60ABE7FD
:1013280000F0C8FC05466D4B1B6813F4003FC3D0A2
:1013380000F0C0FC401B6428F5D903205FE1674B2F
:101348005B6813F4800FC6D1644B1B6813F0020F5F
:1013580003D0E368012B40F04F81604A136823F003
:10136800F803216943EAC1031360236813F0080FE7
:1013780040D0636963B35B4B01221A6000F09AFCAA
:101388000546564B5B6F13F0020F33D100F092FC09
:10139800401B0228F5D9032031E1504A136823F095
:1013A800F803216943EAC1031360DEE74C4B0022CE
:1013B8001A6000F07FFC0546484B1B6813F0020FCB
:1013C800D3D000F077FC401B0228F5D9032016E1A2
:1013D800444B00221A6000F06DFC05463F4B5B6FE2
:1013E80013F0020F06D000F065FC401B0228F5D967
:1013F800032004E1236813F0040F78D0374B1B6CEB
:1014080013F0805F0DD100230193344B1A6C42F026
:1014180080521A641B6C03F080530193019B0125D1
:1014280000E00025304B1B6813F4807F21D0A368AF
:10143800012B32D0052B36D0284B1A6F22F001022F
:101448001A671A6F22F004021A67A368002B34D0B7
:1014580000F030FC0646214B1B6F13F0020F45D1FC
:1014680000F028FC801B41F288339842F3D903200E
:10147800C5E01D4A136843F48073136000F01AFC3A
:101488000646194B1B6813F4807FD0D100F012FC7C
:10149800801B0228F5D90320B1E0104A136F43F0EE
:1014A80001031367D1E70D4B1A6F42F004021A6764
:1014B8001A6F42F001021A67C7E700F0FBFB064605
:1014C800064B1B6F13F0020F10D000F0F3FB801BCC
:1014D80041F288339842F3D9032090E00038024063
:1014E80000004742800E474200700040EDB9A369F2
:1014F800002B00F08380494A926802F00C02082A07
:1015080051D0022B17D0464B00221A6000F0D2FBB4
:101518000446424B1B6813F0007F42D000F0CAFB20
:10152800001B0228F5D9032069E03C4A136C23F01C
:1015380080531364DBE73A4B00221A6000F0BAFBD1
:101548000546364B1B6813F0007F06D000F0B2FB4F
:10155800401B0228F5D9032051E0E369226A1343AE
:10156800626A43EA8213A26A5208013A43EA0243D2
:10157800E26A43EA0263294A5360294B01221A604E
:1015880000F098FB0446254B1B6813F0007F06D13A
:1015980000F090FB001B0228F5D903202FE0002063
:1015A8002DE000202BE0012B2BD01C4B5B6803F4B3
:1015B8008001E269914226D103F03F02216A8A4202
:1015C80023D1616A47F6C0721A40B2EB811F1ED15F
:1015D80003F44031A26A5208013AB1EB024F18D124
:1015E80003F07063E26AB3EB026F14D1002006E0E7
:1015F80001207047012002E0012000E0002002B035
:1016080070BD0120FBE70120F9E70120F7E7012081
:10161800F5E70120F3E70120F1E700BF00380240B9
:1016280060004742F8B52F4B9B6803F00C03042B6E
:1016380053D0082B53D12B4B5A6802F03F025B68FA
:1016480013F4800F28D0274B5B68C3F38813580125
:101658000021C01A61F100018E0146EA90668701F7
:101668003C1A66EB0105E90041EA5471E000C01834
:1016780041F100014B0243EAD05344022046194687
:101688000023FFF79BF9174B5B68C3F30143013352
:101698005B00B0FBF3F023E0124B5B68C3F38813E5
:1016A8005C010025E41A65F10005AE0146EA94667E
:1016B800A701381B66EB0501CC0044EA5074C5004D
:1016C800E81844F100018B0243EA90538402204653
:1016D80019460023FFF772F9D5E7034800E00348ED
:1016E800F8BD00BF0038024000127A000024F40060
:1016F800002800F09B8070B50D4604464F4B1B68D0
:1017080003F007038B4208D2CBB24C4A137013681C
:1017180003F007038B4240F08B80236813F0020F1D
:1017280017D013F0040F04D0454A936843F4E053EC
:101738009360236813F0080F04D0414A936843F478
:10174800604393603E4A936823F0F003A1680B431B
:101758009360236813F0010F32D06368012B21D006
:101768009A1E012A25D9364A126812F0020F61D052
:1017780033498A6822F0030213438B6000F09AFA17
:1017880006462F4B9B6803F00C036268B3EB820F8D
:1017980016D000F08FFA801B41F288339842F0D9B6
:1017A800032042E0264A126812F4003FE0D10120EB
:1017B8003BE0234A126812F0007FD9D1012034E0BF
:1017C8001E4B1B6803F00703AB4207D9EAB21B4B59
:1017D8001A701B6803F00703AB422DD1236813F07E
:1017E800040F06D0164A936823F4E053E1680B43CC
:1017F8009360236813F0080F07D0114A936823F405
:101808006043216943EAC1039360FFF70BFF0C4B68
:101818009B68C3F303130B4AD35CD8400A4B186088
:101828000A4B186800F0FAF9002070BD01207047D3
:101838000120FAE70120F8E70120F6E7003C024022
:101848000038024048440008080000200400002036
:10185800014B1868704700BF0800002008B5FFF763
:10186800F7FF044B9B68C3F38223034AD35CD84039
:1018780008BD00BF003802405844000808B5FFF70B
:10188800E7FF044B9B68C3F34233034AD35CD84059
:1018980008BD00BF003802405844000800230F2B41
:1018A80000F2DD80F0B482B05DE086685F0003245A
:1018B800BC4026EA0406CC68BC40344384604668D1
:1018C80026EA02064C68C4F300129A40324342608A
:1018D80057E0DC08083450F8247003F0070296003B
:1018E8000F22B24027EA02070A69B2403A4340F899
:1018F80024205AE0072200E00022B2403A43023492
:10190800574E46F82420574A1468EA4324EA050645
:101918004F6817F4803F01D045EA0406514C266011
:10192800646802EA04064F6817F4003F01D045EAEC
:1019380004064C4C6660A46802EA04064F6817F473
:10194800801F01D045EA0406464CA660E4682240A0
:101958004E6816F4001F01D045EA0402414CE260CB
:1019680001330F2B78D801229A400C6804EA02054B
:1019780032EA0404F4D14C6804F00304013C012C5D
:1019880093D94A6802F00302032A09D0C4685E00AA
:101998000322B24024EA02048A68B2402243C260A9
:1019A8004A6802F00302022A93D004685E00032208
:1019B800B24024EA02044A6802F00302B240224319
:1019C80002604A6812F0805FCAD000220192264A5B
:1019D800546C44F480445464526C02F48042019282
:1019E800019A9C08A61C1E4A52F8267003F00302AE
:1019F80096000F22B24027EA02071C4A90423FF4A1
:101A08007BAF02F5806290421AD002F58062904264
:101A180018D002F58062904216D002F5806290429A
:101A280014D002F58062904212D002F58062904292
:101A380010D002F5806290423FF45CAF08225CE768
:101A480001225AE7022258E7032256E7042254E704
:101A5800052252E7062250E702B0F0BC70477047F3
:101A680000380140003C01400038024000000240BC
:101A78000AB181617047090481617047436901EACD
:101A8800030221EA030141EA02418161704770B50E
:101A98000446866D00F00EF994F83530DBB2022B5F
:101AA80006D080236365002384F83430012070BD9C
:101AB80005462268136823F01603136022685369E9
:101AC80023F080035361236CE3B12268136823F089
:101AD800080313602268136823F001031360236866
:101AE8001B6813F0010F11D000F0E4F8431B052B1D
:101AF800F5D920236365002384F83430032084F863
:101B08003500D4E7A36C002BDFD1E3E7E26D3F2378
:101B18009340B360002084F83400012384F8353002
:101B2800C5E790F83530DBB2022B03D0802343653C
:101B380001207047052380F835300268136823F0C8
:101B48000103136000207047074AD36823F4E06359
:101B58001B041B0C000200F4E060034343F0BF6366
:101B680043F40033D360704700ED00E030B4174B06
:101B7800DB68C3F30223C3F10704042C28BF042441
:101B88001D1D062D18D9033B4FF0FF3505FA04F447
:101B980021EA0401994005FA03F322EA03031943F1
:101BA80000280BDB0901C9B200F1604000F5614073
:101BB80080F8001330BC70470023E5E700F00F0001
:101BC8000901C9B2024B1954F4E700BF00ED00E067
:101BD80014ED00E0002807DB00F01F024009012394
:101BE8009340024A42F82030704700BF00E100E00D
:101BF8000138B0F1807F0AD2064B5860064AF021BE
:101C080082F823100020986007221A60704701208C
:101C1800704700BF10E000E000ED00E010B504469A
:101C28000E4B18784FF47A73B3FBF0F30C4A106834
:101C3800B0FBF3F0FFF7DCFF68B90F2C01D90120E6
:101C48000AE0002221464FF0FF30FFF78FFF054BD7
:101C58001C60002000E0012010BD00BF0000002033
:101C6800080000200400002008B50B4B1A6842F455
:101C780000721A601A6842F480621A601A6842F4A4
:101C880080721A600320FFF75FFF0020FFF7C6FF8E
:101C9800FFF714F8002008BD003C0240034A116811
:101CA800034B1B780B441360704700BF24010020CE
:101CB80000000020014B1868704700BF2401002075
:101CC80038B50446FFF7F6FF0546B4F1FF3F02D0EA
:101CD800044B1B781C44FFF7EDFF401BA042FAD3CE
:101CE80038BD00BF000000200268D36823F4907359
:101CF800D3600268536923F001035361036B012B1E
:101D080005D0202380F83E30002303637047026823
:101D1800D36823F01003D360F3E790F83D30DBB2CB
:101D2800212B01D0022070478368B3F5805F17D05C
:101D3800036A5A1C02621A7803685A60C38C9BB201
:101D4800013B9BB2C3844BB90268D36823F080037C
:101D5800D3600268D36843F04003D3600020704723
:101D68000369002BE4D1036A1B880268C3F30803E4
:101D78005360036A02330362E0E7000070B504466B
:101D88000268136923F44053C1680B4313618368E5
:101D98000269134342691343C2691A430168CB6855
:101DA80023F4164323F00C031343CB6002685369F2
:101DB80023F4407381690B4353610368344A9342A7
:101DC80006D002F58062934202D0FFF747FD01E09A
:101DD800FFF754FDE369B3F5004F2AD00026051834
:101DE80046EB06012D1846EB0101CB0043EA55737B
:101DF800EA001546194663689A009B0F281846EBB7
:101E08000101FEF7DBFD234DA5FB003251096423D8
:101E180003FB11031B013233A5FB03235B0903F00A
:101E2800F00202EB011203F00F03216813448B60E8
:101E380070BD0026051846EB06012D1846EB01017A
:101E4800CB0043EA5573EA001546194662683346E3
:101E5800921846EB0303281846EB0101FEF7AEFD86
:101E68000C4DA5FB00325109642303FB1103DB0071
:101E78003233A5FB03235B095A0002F4F87202EB24
:101E8800011203F00703216813448B60D0E700BFF9
:101E9800001001401F85EB5158B310B5044690F867
:101EA8003D300BB3242384F83D302268D36823F4F3
:101EB8000053D3602046FFF761FF2268136923F4BB
:101EC800904313612268536923F02A0353612268FF
:101ED800D36843F40053D36000202064202384F89F
:101EE8003D3084F83E3010BD80F83C3001F0D6F922
:101EF800D8E70120704790F83D30DBB2202B16D18F
:101F0800B9B1C2B190F83C30012B16D0016282847D
:101F1800C28400230364212280F83D2080F83C30ED
:101F28000168CA6842F08002CA60184670470220F9
:101F3800704701207047012070470220704708B59C
:101F48000168CA6822F04002CA60202280F83D2059
:101F580000F0CAFC002008BD704708B5806B00235C
:101F6800C385C384FFF7F8FF08BD704710B5044662
:101F78000268D36823F0C003D36003685A6912F07B
:101F8800800F17D05A6922F080025A61436B4BB117
:101F98000D4A1A65406BFFF7C4FD90B1606B036D85
:101FA80098470EE00023C384202380F83D30FFF7D4
:101FB800DCFF06E00023C384202380F83D30FFF7D0
:101FC800D4FF002010BD00BFD51F000808B5806BE6
:101FD8000023C384202380F83D30FFF7C6FF08BDE7
:101FE8007047000010B504460268D36823F4907364
:101FF800D3600268536923F001035361036B012B1B
:1020080014D023685A6912F0400F1FD05A6922F081
:1020180040025A61A36B7BB1124A1A65A06BFFF7A5
:1020280080FDE0B1A06B036D984718E00268D368A3
:1020380023F01003D360E4E70023E385202284F82B
:102048003E2023632046FFF7CBFF08E00023E3850B
:10205800202284F83E2023632046FFF7C1FF00209A
:1020680010BD00BF7120000808B5806B0023C38530
:10207800202280F83E200363FFF7B2FF08BD7047B7
:1020880090F83E30DBB2222B53D110B5044683685A
:10209800B3F5805F30D0A26AB3F5805F04D0002B1F
:1020A80037D12369002B34D123685B681370A36A86
:1020B8000133A362E38D9BB2013B9BB2E385002B06
:1020C80039D12268D36823F02003D3602268D3680B
:1020D80023F48073D3602268536923F001035361AA
:1020E800202384F83E30236B012B18D0204600F0C3
:1020F800E3FB002020631FE00269002ACBD1826A3B
:1021080003685B68C3F308031380836A023383623E
:10211800D0E723685B6803F07F031370C7E7226882
:10212800D36823F01003D360A18D2046FFF7A7FFE3
:10213800DFE702207047002010BD000030B583B0F3
:10214800044602681368D068516913F00F0505D179
:1021580013F0200F02D010F0200F19D12DB111F07B
:10216800010119D110F4907F16D1216B012975D086
:1021780013F0800F03D010F0800F40F0D88013F0D8
:10218800400F03D010F0400F40F0D58003B030BDB1
:102198002046FFF775FFF9E713F0010F06D010F49A
:1021A800807F03D0226C42F00102226413F0040FF6
:1021B80004D019B1226C42F00202226413F0020F1B
:1021C80004D019B1226C42F00402226413F0080F03
:1021D80007D010F0200F00D119B1226C42F008028C
:1021E8002264226C002AD1D013F0200F02D010F004
:1021F800200F21D123685B6903F04003226C12F0A1
:10220800080F00D123B32046FFF76EFD23685A69F3
:1022180012F0400F18D05A6922F040025A61A36B9D
:1022280073B1474A1A65A06BFFF77BFC0028ADD055
:10223800A06B036D9847A9E72046FFF721FFD9E770
:102248002046FFF789FEA1E72046FFF785FE9DE7B8
:102258002046FFF781FE0023236497E713F0100F51
:1022680086D010F0100F83D00023019313680193D8
:1022780053680193019B536913F0400F33D0A16B4E
:102288000B685B689BB2002B80D0A08D98427FF6CC
:102298007DAFE385CB69B3F5807F08D1A18DE38D50
:1022A8009BB2C91A89B22046FFF7E9FE6EE7D368E8
:1022B80023F48073D3602268536923F001035361C8
:1022C8002268536923F040035361202384F83E3089
:1022D800002323632268D36823F01003D360A06B24
:1022E800FFF7D5FBDAE7A18DE38D9BB2C91A89B256
:1022F800E38D9BB2002B3FF449AF00293FF446AF72
:10230800D36823F49073D3602268536923F00103E0
:102318005361202384F83E30002323632268D36866
:1023280023F01003D3602046FFF7A9FE2EE72046CE
:10233800FFF7F3FC2AE72046FFF701FE26E700BF78
:10234800631F0008034681628285C28500201864E5
:10235800222283F83E2083F83C001968CA6842F4B8
:102368008072CA6019684A6942F001024A611A68B3
:10237800D36843F02003D360704708B590F83E3027
:10238800DBB2202B0DD171B17AB190F83C30012B22
:102398000DD0012380F83C3000230363FFF7D2FF00
:1023A80000E0022008BD0120FCE70120FAE7022036
:1023B800F8E70000034AD2F8883043F47003C2F803
:1023C8008830704700ED00E038B50B88052B01D048
:1023D800032038BD0C464378817841EA0321013156
:1023E80089B2C378027942EA0322531E9BB240F2B3
:1023F800CE75AB4220D800232380012303702388A5
:102408000133238012F0070F10D0C2F3C703013342
:10241800DDB245702388013323800023023000F0A9
:1024280071FD30B923882B442380D2E7C2F3C70556
:10243800EFE700F0D9F9CCE70320CAE70B88052BB2
:1024480001D0032070474378817841EA03210131A4
:1024580089B20379F3B9C278531EDBB2FD2B1BD9BD
:1024680000B583B000238DF80530FF2A0BD0002378
:102478008DF8043001231A4601A800F043FD30B955
:1024880003B05DF804FB01238DF80430F2E700F097
:10249800ABF9F5E703207047032070470B88052B3D
:1024A8002AD970B50C464178837843EA0123013371
:1024B80099B2C278037943EA0222467913F0070FEA
:1024C8000CD0C2F3C7050135EDB2531E9BB2B3F56C
:1024D800F66F13D2B54204D0032070BDC2F3C7050E
:1024E800F3E70123063000F00DFD10B90523238022
:1024F800F3E700F079F9F0E7032070470320ECE7F1
:1025080038B50B88052B01D0032038BD0C4643781D
:10251800817841EA0321013189B2C378027942EA1C
:102528000322531E9BB240F2CE75AB421FD8002344
:1025380023800223037023880133238012F0070FBE
:102548000FD0C2F3C7030133DDB2457023880133CE
:102558002380023000F034FD30B923882B442380D7
:10256800D3E7C2F3C705F0E700F03EF9CDE7032053
:10257800CBE708B50B88052B01D0032008BD4378AD
:10258800817841EA0321013101231A4689B20330D7
:1025980000F07AFC0028F1D000F026F9EEE738B513
:1025A8000B88052B20D90C464178837843EA012310
:1025B800013399B2C378027942EA03224579531E5E
:1025C8009BB2772B12D85300DBB2AB4201D0032069
:1025D8000BE00123063000F057FC10B905232380D7
:1025E80003E000F001F900E0032038BD0320FCE718
:1025F8000B88052B01D00320704770B50C46437833
:10260800817841EA0321013189B2C378057945EA25
:1026180003256B1E9BB27C2B01D9032070BD0023C0
:1026280023800646032206F8022B228801322280E4
:102638006A0042702288013222802A46304600F021
:1026480023FC20B9238803EB45052580E6E700F045
:10265800CBF8E3E7F8B50B88092B45D904460D46B6
:102668004378817841EA032101318EB2C378077932
:1026780047EA03274379817941EA0321013189B285
:10268800C379027A42EA0322407A7B1E9BB27C2BF2
:102698002CD86AB3792A2DD8B0EB420F01D0032089
:1026A80023E0012304F10A0000F0EEFB034618B111
:1026B800D8B100F099F818E028802046172200F8D1
:1026C800022B2A8801322A807A0062702A88013215
:1026D8002A803A46314600F0D7FB0028E8D12B88FB
:1026E80003EB47072F80E3E70020F8BD0320FCE752
:1026F8000320FAE70320F8E738B50B88052B01D04B
:10270800032038BD0C464378817841EA0321013122
:1027180089B2C378057945EA03256B1E9BB27B2BEA
:1027280001D90320EDE7002323800346042203F8A0
:10273800022B2288013222806A00427022880132EC
:1027480022802A46184600F07BFB20B9238803EB39
:1027580045052580D5E700F047F8D2E738B50D469E
:10276800054B1C8822460549013001F0E5FC01347F
:102778002C80002038BD00BFD4000020B400002009
:1027880070B4CD0801F0070403FA04F6012404FA32
:1027980002F39BB2013B9BB201F0070103FA01F17E
:1027A800435D2A19845C43EA04231BB223EA01032C
:1027B8001BB233434355C3F30723835470BC70479C
:1027C80010B4CC08012393409BB2013B025D204426
:1027D800407842EA002001F00701084180B2184021
:1027E800C0B25DF8044B7047012805D0072805D012
:1027F80008B10420704770470220704706207047D0
:10280800024B00221A700120704700BFD700002039
:102818000123034A1370034A10701846704700BF1B
:10282800D7000020D60000200346054A107830B1B2
:10283800044A12781A70024B00221A70012070475D
:10284800D7000020D6000020014B186001207047F7
:102858002801002010B50C4650B1012209490A4B45
:102868001868FFF78AFD44B1084B1B68984710BDEC
:10287800054B1868FFF7B6FBF5E7034B1868FFF739
:1028880075FBF4E7D800002028010020340200205E
:1028980008B50A460146034B1868FFF72CFB0120D0
:1028A80008BD00BF28010020024B1B7803700120DF
:1028B800704700BFD800002008B50268074B1B68A6
:1028C8001B689A4200D008BD054B1B689847012237
:1028D8000449024B1868FFF750FDF4E7280100206F
:1028E8003C020020D800002008B50268044B1B6891
:1028F8001B689A4200D008BD024B1B689847FAE74C
:102908002801002034020020024B1960024B188075
:10291800012070472C010020DC00002008B5044B82
:1029280000221A80034B1868FEF712FA08BD00BF90
:10293800DA0000202C01002008B5024B1868FEF7C9
:102948004BFA08BD2C01002008B50268084B9A42D2
:1029580000D008BD074A13889BB201339BB213808D
:10296800054A12889342F4D3044B1B689847F0E752
:1029780000080040DA000020DC00002038020020B7
:1029880072B6024A1368013313607047E0000020F2
:10299800034A1368013B136003B962B6704700BF6E
:1029A800E000002030B4FF2215464B1E9CB249B10E
:1029B80010F8013B5340054AD25C6A400449CD5C9B
:1029C8002146F2E742EA052030BC7047604400081F
:1029D8006045000870B50E4614461D46FFF7D0FF47
:1029E8002A4621463046FFF72FFF012804D003244A
:1029F800FFF7CEFF204670BDB4F5964F0BD86400A4
:102A08000748B0FBF4F0294680B2FFF77DFF0128A4
:102A180003D00324ECE72320F5E70024E8E700BF10
:102A2800A07F170008B5FFF7ABFF0021044B197012
:102A38000120FFF70FFFFFF771FFFFF7A9FF08BDA0
:102A4800E400002008B5FFF79BFF00210846FFF7C8
:102A580001FFFFF771FFFFF79BFF08BD70B5064642
:102A68000D461446FFF78CFF0F4B1B889BB2032BB8
:102A780004D80524FFF78CFF204670BD0A4B19883F
:102A880089B20A48FFF78EFF58B9084A12F8013B85
:102A98003370054B1B889BB2033B23802A600024BC
:102AA800E8E70524E6E700BFEC0000203401002039
:102AB8002DE9F04106460F461446FFF761FF1C4B0F
:102AC8001B78DBB2012B05D00524FFF761FF2046F8
:102AD800BDE8F081781E174B1860174D4FF00108BC
:102AE800A5F8008007F8016C2A8814FA82F292B2DD
:102AF8002A80298889B2FFF755FF2B889BB203EB00
:102B0800080292B22A80C2B20C49CA542B889BB2DE
:102B180003EB080292B22A80C0F30720C854084B7E
:102B280083F8008041460020FFF794FE0024CCE79C
:102B3800E4000020E8000020EE000020340100201E
:102B4800E500002000B583B00DF10700FFF7ACFEEB
:102B58001C4B1B78DBB2032B05D8DFE803F0020B14
:102B68001D08FFF7DBFE002003B05DF804FBFFF74C
:102B7800D5FEF8E7144A0023138013889BB2591C2A
:102B880089B211809DF80710104AD1540D4B0222CA
:102B98001A70FFF7C3FEE6E70B4B1B889BB2FF2BAF
:102BA8000CD809490B889BB25A1C92B20A809DF82E
:102BB8000710064AD154FFF7B1FED4E7014B0322B0
:102BC8001A70F8E7E4000020EC000020340100202F
:102BD80038B5144B1B7803F0FF0423B1012C07D040
:102BE8000024204638BD00210120FFF733FEF8E716
:102BF8000D4B1B889BB24BB10B4D298889B20B4BEF
:102C08001868FFF745FE00242C80EAE70820FFF744
:102C1800FFFD044600210120FFF71CFE014B0022A6
:102C28001A70DEE7E5000020EE000020E800002032
:102C380010B50C4B1B785BB103F0FF02022A0CD0D5
:102C48000024FFF779FE074B01221A70204610BDB9
:102C58000120FFF7DDFD0446F3E70220FFF7D8FD6A
:102C68000446EEE7E400002038B5054608464C1E49
:102C7800E4B2F62C2AD811461A46174B18700DB133
:102C8800022424E0154B164C1C60164B164C1C6095
:102C9800164B174C1C60174B174C1C60174B002425
:102CA8001C60174B174C1C60174B184C1C60184BBA
:102CB800184C1C60049BFFF78DFE044638B9FFF7DB
:102CC8009FFD30B1144B01221A7000E00224204607
:102CD80038BD0324FBE700BF0901002000010020E4
:102CE8002D2A0008040100204D2A0008F8000020C1
:102CF800B92A0008F4000020652A0008FC0000201A
:102D08003C0200204D2B000834020020D92B00087B
:102D180038020020392C00080C00002008B5064BAA
:102D28001B78012B01D0062008BD044B1B6898476F
:102D38000020014B1870F7E70C000020000100206C
:102D480070B582B0344B1C78002C5ED10DF10700B1
:102D5800FFF76AFD012802D0204602B070BD9DF839
:102D68000730022B0BD0042BF6D12C4B18680178B6
:102D78002B4B19702B4B01221A70002316E02A4B9B
:102D88001B682A4A25492A48984705460028E3D15E
:102D9800274B1B78274A1278934201D0002B36D153
:102DA8000420FFF735FD2C46D6E701330F2B0DDC49
:102DB800214A12F833204AB19142F6D11E4A02EB59
:102DC800C3035B6819499847164B1870184B1B7852
:102DD800FBB1144B1B7873B1114A11780F48056881
:102DE800124A0126168041F0800129700068118876
:102DF8008D1915804354114B1B680C4A12880749DA
:102E080009680C4800789847A6E70624A4E7044612
:102E1800A2E71C46A0E700BF0C0000200C01002020
:102E280008010020F0000020F4000020120100201A
:102E3800100100200901002010000020F8000020E7
:102E480030B40F4B1C884B1E9BB299180A2915DC0D
:102E58001B1B9BB27AB10B4D35F81340240A01466F
:102E680001F8024B15F81340447001339BB2013A44
:102E780092B20846EEE7002030BC70470120FBE71D
:102E88001A0100206402002070B41C4C2588013906
:102E980089B28C180A2C2DDC491B89B293B1012BFD
:102EA80024D0002027E0164E36F811502D0A04468B
:102EB80004F8025B16F811504570013189B2013AE5
:102EC80092B22046002AEED1184614E0044614F8BF
:102ED800023B0B4D1B0225F811304078034325F8BF
:102EE8001130013189B2013A92B22046002AEDD15F
:102EF800002000E0012070BC704700BF18010020CE
:102F0800500200202DE9F04716461F46D4082A4BE8
:102F18001A88013989B28B190A2B4ADC0134891ABB
:102F2800C1F3CC0501F00708A7B1012F32D000206A
:102F380040E005F1010A1FFA8AFA81460822414653
:102F48001E482844FFF73CFC09F8010B013CA4B2D9
:102F580055464846002CECD106F0070210F8016CE3
:102F6800C2F108029640F6B2164100F8016C3846E4
:102F780020E005F101091FFA89F9074617F8013B16
:102F8800082241460D482844FFF7FAFB013CA4B249
:102F98004D463846012CECD816F0070201D1002026
:102FA80008E00378414605482844FFF7E9FB00207C
:102FB80000E00120BDE8F08714010020480200204D
:102FC8002DE9F0419046D508174B1A884F1EBFB21D
:102FD80007EB08030A2B25DC04460135BF1AC7F3A3
:102FE800CC0307F007076DB15E1CB6B2082239465C
:102FF8000E481844FFF7E4FB04F8010B013DADB29D
:103008003346F0E708F0070814F8013CC8F108084F
:1030180003FA08F3DBB243FA08F804F8018C00203D
:10302800BDE8F0810120FBE7160100204C020020DA
:1030380082B08DED010A074B01AA1A60BDF8042081
:10304800054B23F810200130BDF8062023F8102086
:1030580002B070471C0100206402002030B589B01E
:1030680000240394049405940694079400941B4B3D
:103078001A6B42F080021A631A6B02F08002009207
:10308800009A01941A6B42F001021A631A6B02F05B
:1030980001020192019A02941A6B42F002021A6329
:1030A8001B6B03F002030293029B0D4D2246022183
:1030B8002846FEF7DDFC01224FF400412846FEF7C2
:1030C800D7FC48F202030393012304930594069462
:1030D80003A92846FEF7E2FB09B030BD00380240DC
:1030E8000000024000B587B00023029303930493C5
:1030F8000593009301931548154A026040F65F1244
:103108004260836044F61F62C26003618361FDF719
:10311800A1FF90B94FF48053029302A90B48FDF721
:10312800D1FF68B900230093019369460748FEF769
:1031380037F840B907B05DF804FBFDF779FCE9E71B
:10314800FDF776FCEEE7FDF773FCF3E7C00200201D
:103158000004004000B587B0002302930393049352
:103168000593009301931448144A026017224260A1
:1031780083603122C26003618361FDF76BFF90B900
:103188004FF48053029302A90B48FDF79BFF68B9DF
:1031980000230093019369460748FEF701F840B9F8
:1031A80007B05DF804FBFDF743FCE9E7FDF740FCD9
:1031B800EEE7FDF73DFCF3E7780200200008004049
:1031C80000B583B00368184A934205D0174A934262
:1031D80016D003B05DF804FB00210091144B1A6C63
:1031E80042F002021A641B6C03F002030093009B76
:1031F8000A461D20FEF7BAFC1D20FEF7EBFCE8E7A7
:10320800002101910A4B1A6C42F004021A641B6CEB
:1032180003F004030193019B0A461E20FEF7A6FC57
:103228001E20FEF7D7FCD4E7000400400008004049
:103238000038024008B50A480A4B03604FF4E133EE
:10324800436000238360C36003610C224261836191
:10325800C361FEF721FE00B908BDFDF7E9FBFBE7F6
:10326800080300200010014008B50A480A4B036013
:103278004FF4E133436000238360C36003610C2291
:1032880042618361C361FEF707FE00B908BDFDF71F
:10329800CFFBFBE74C0300200044004010B58AB088
:1032A8000023059306930793089309930368304A0C
:1032B800934204D02F4A93422ED00AB010BD002466
:1032C80001942D4B5A6C42F010025A645A6C02F069
:1032D80010020192019A02941A6B42F001021A63D9
:1032E8001B6B03F001030293029B4FF4C063059329
:1032F800022306930794032308930723099305A938
:103308001E48FEF7CBFA224621462520FEF72EFC62
:103318002520FEF75FFCD0E700240394164B1A6CB7
:1033280042F400321A641A6C02F400320392039ACF
:1033380004941A6B42F001021A631B6B03F0010339
:103348000493049B0C2305930223069307940323F9
:1033580008930723099305A90848FEF79FFA224610
:1033680021462620FEF702FC2620FEF733FCA4E7C0
:1033780000100140004400400038024000000240B4
:1033880008B50D480D4B03604FF48273436000236A
:103398008360C360036143614FF400728261C3615B
:1033A8000362436283620A23C36200F0DDF800B956
:1033B80008BDFDF73DFBFBE790030020003001400E
:1033C80000B589B0002303930493059306930793EC
:1033D8000268154B9A4202D009B05DF804FB00223E
:1033E800019203F58433596C41F480515964596C46
:1033F80001F48051019101990292196B41F0020187
:1034080019631B6B03F002030293029B3823039397
:10341800022304930592032306930523079303A924
:103428000248FEF73BFAD7E70030014000040240AB
:103438002DE9F04782B00546884617461E46FEF736
:1034480039FC0A9B1B1A03EB0609FEF733FC82467C
:103458002A4B1B68C3F3CB3309FB03F301932B6897
:103468009C6838EA04030CBF01240024BC4240D005
:10347800B6F1FF3FF3D0FEF71DFCA0EB0A0048456C
:103488000AD2B9F1000F07D0019A02B14A46019B4E
:10349800013B01939146E2E72A68536823F0E00371
:1034A80053606B68B3F5827F0BD0AB6AB3F5005FEE
:1034B80014D0012385F85130002385F850300320BB
:1034C80018E0AB68B3F5004F02D0B3F5806FECD1CC
:1034D8002A68136823F040031360E6E72A68136834
:1034E80023F4005313602A68136843F400531360ED
:1034F800DFE7002002B0BDE8F08700BF0800002029
:1035080030B585B00446164B1868164BA3FB00303F
:10351800400D4FF47A7505FB00F003906368B3F52E
:10352800827F0BD0039BBBB1039B013B03932368B2
:103538009B6813F0800FF5D100200EE000920B4637
:10354800002280212046FFF773FF30B1636D43F0FE
:1035580020036365032000E0002005B030BD00BFF4
:1035680008000020819F5E1600285AD010B5044636
:10357800436A33B94368B3F5827F05D00023C3613A
:1035880002E00023036143610023A36294F85130F1
:10359800002B40D0022384F851302268136823F0AE
:1035A80040031360636803F48273A26802F4044260
:1035B8001343E26802F400621343226902F0020234
:1035C8001343626902F001021343A26902F4007214
:1035D8001343E26902F038021343226A02F08002C0
:1035E8001343A26A02F40052216813430B60638BF1
:1035F80003F00403626A02F01002216813434B606F
:103608002268D36923F40063D36100206065012335
:1036180084F8513010BD84F850302046FFF7D0FEB2
:10362800B8E7012070472DE9F04383B01F460A9D93
:1036380090F85030012B00F01081044688469146DE
:10364800012380F85030FEF735FB064694F85130D8
:10365800DBB26268012B0AD0B2F5827F40F0E380CA
:10366800A268002A40F0E980042B40F0E880B8F115
:10367800000F00F0E680B9F1000F00F0E480002FA1
:1036880000F0E38094F85130DBB2042B02D005231C
:1036980084F8513000236365C4F83890E787A7871A
:1036A800C4F83080E786A7862364636423681A68B1
:1036B80012F0400F03D11A6842F040021A60E36822
:1036C800B3F5006F11D063680BB1012F0BD1226BDA
:1036D800236812781A73236B01332363E38E9BB23A
:1036E800013B9BB2E38601276BE063680BB1012FB6
:1036F8000BD1226B23681288DA60236B02332363B1
:10370800E38E9BB2013B9BB2E38601271CE0236852
:103718009A6812F0010F0ED0E28F92B25AB1DA68AD
:10372800A36B1A80A36B0233A363E38F9BB2013BA5
:103738009BB2E3870127FEF7BDFA801BA84203D39B
:10374800B5F1FF3F40F08380E38E9BB21BB9E38F56
:103758009BB2002B53D023689A6812F0020FD6D080
:10376800E28E92B2002AD2D0002FD0D0226B1288DB
:10377800DA60236B02332363E38E9BB2013B9BB277
:10378800E3860027C3E723689A6812F0010F0ED07A
:10379800E28F92B25AB1DA68A36B1A70A36B013345
:1037A800A363E38F9BB2013B9BB2E3870127FEF73C
:1037B80081FA831BAB4202D3B5F1FF3F49D1002DFB
:1037C80049D0E38E9BB213B9E38F9BB2BBB1236898
:1037D8009A6812F0020FD6D0E28E92B2002AD2D0A6
:1037E800002FD0D0226B12781A73236B0133236316
:1037F800E38E9BB2013B9BB2E3860027C3E73246C8
:1038080029462046FFF77CFE48B9A36863B90193AF
:103818002368DA6801929B680193019B04E02023E6
:103828006365012000E00220012384F85130002361
:1038380084F8503003B0BDE8F0830220F4E702209A
:10384800F2E70120F0E70120EEE70120ECE7032092
:10385800EAE70320E8E70320E6E70220EAE70000BA
:1038680000B587B08DF80F006423009301230DF194
:1038780017020DF10F010448FFF7D5FE9DF8170058
:1038880007B05DF804FB00BF9003002010B50A4C98
:1038980000224FF400412046FEF7EAF80620FFF721
:1038A800DFFF01224FF400412046FEF7E1F8012036
:1038B800FEF706FA10BD00BF0000024010B5012057
:1038C800FEF7FEF900224FF400410D48FEF7D0F84C
:1038D8000520FFF7C5FFA520FFF7C2FF094C84F8B4
:1038E80024000120FEF7ECF994F8243013F0010FBE
:1038F800F1D101224FF400410148FEF7B9F810BD9B
:1039080000000240E803002038B504461F4B93F836
:103918002730012B03D10120FEF7D2F9F6E71B4D22
:10392800012385F82730FFF7C9FF286904FB00F455
:10393800FFF7ACFF00224FF400411548FEF798F856
:103948002020FFF78DFF2B78082B1AD8C4F30740E7
:10395800FFF786FFC4F30720FFF782FFE0B2FFF707
:103968007FFF01224FF400410948FEF781F8FFF775
:10397800A5FF0120FEF7A4F9044B002283F82720B5
:1039880038BD200EFFF76CFFE0E700BFE80300201A
:103998000000024070B505460C461E4B93F82730D0
:1039A800012B03D10120FEF78BF9F6E7194E01230D
:1039B80086F82730FFF782FFFFF768FF00224FF4F1
:1039C80000411548FEF754F80220FFF749FF337805
:1039D800082B1AD8C4F30740FFF742FFC4F30720A7
:1039E800FFF73EFFE0B2FFF73BFF2846FFF738FF3F
:1039F80001224FF400410848FEF73AF8FFF75EFF4E
:103A0800044B002283F8272070BD200EFFF728FF03
:103A1800E0E700BFE80300200000024070B505465B
:103A28000C461D4B93F82730012B03D10120FEF7DC
:103A380047F9F6E7184E012386F8273000224FF49D
:103A480000411648FEF714F80B20FFF709FF3378FA
:103A5800082B1CD8C4F30740FFF702FFC4F3072064
:103A6800FFF7FEFEE0B2FFF7FBFE0020FFF7F8FECF
:103A7800A520FFF7F5FE287001224FF40041074802
:103A8800FDF7F6FF044B002283F8272070BD200EB7
:103A9800FFF7E6FEDEE700BFE80300200000024073
:103AA80000B585B000230093019302930393144853
:103AB800144A0260436083600361037680F8203013
:103AC800C362114A8262C3600122C26180F8303049
:103AD800426100F0CDF868B91023009301230193E7
:103AE800002302936946064800F010FA28B905B089
:103AF8005DF804FBFCF79CFFEEE7FCF799FFF6E79F
:103B080010040020002001400100000F0268094B4A
:103B18009A4200D0704782B000230193064B5A6C3A
:103B280042F480725A645B6C03F480730193019BC6
:103B380002B0704700200140003802404A4B5A68E2
:103B480022F440325A605A6841680A435A6002684F
:103B5800536823F48073536002685368016943EA29
:103B6800012353600268536823F04073536002686E
:103B7800536881680B4353600268936823F40063B9
:103B8800936002689368C1680B439360826A374BFD
:103B98009A4257D00268936823F070639360026872
:103BA8009368816A0B4393600268936823F04053DB
:103BB800936002689368C16A0B43936002689368D4
:103BC80023F00203936002689368017E43EA41038D
:103BD800936090F82030002B3FD00268536843F47C
:103BE800006353600268536823F4604353600168BC
:103BF8004B68426A013A43EA42334B600268D36A2F
:103C080023F47003D3620168CB6AC269013A43EABC
:103C18000253CB620268936823F4007393600268CE
:103C2800936890F8301043EA4123936002689368E0
:103C380023F48063936002689368416943EA8123AF
:103C4800936070470268936823F07063936002681A
:103C5800936823F040539360B0E70268536823F4F5
:103C680000635360CAE700BF002301400100000F52
:103C780038B310B50446036C43B1236C13F0100F2E
:103C88000BD00120002384F83C3010BDFFF73EFF25
:103C98000023636484F83C30EFE7236C23F48853F3
:103CA80023F0020343F0020323642046FFF746FF94
:103CB80000206064236C23F0030343F001032364B2
:103CC800E0E701207047000082B00023019390F8DC
:103CD8003C30012B00F08980012380F83C300368D8
:103CE8009A6812F0010F13D19A6842F001029A60A3
:103CF800414B1B68414AA2FB03239B0C03EB430384
:103D0800019302E0019B013B0193019B002BF9D138
:103D18000268936813F0010F5CD0036C23F4E0632E
:103D280023F0010343F480730364536813F4806F32
:103D380005D0036C23F4405343F480530364036CAD
:103D480013F4805F1BD0436C23F006034364002305
:103D580080F83C306FF022031360294B5B6813F046
:103D68001F0F27D10368274A934211D002F58072AA
:103D7800934207D0244A934214D0002033E0002312
:103D88004364E4E702F50072526812F01F0FF1D1A4
:103D98009A6812F0405F2AD19A6842F080429A608D
:103DA800002020E002F58072526812F0100FEFD068
:103DB800002018E00368134A934201D0002012E063
:103DC8009A6812F0405F14D19A6842F080429A6073
:103DD800002008E0036C43F010030364436C43F0D5
:103DE80001034364002002B070470220FBE7002073
:103DF800F9E70020F7E700BF0800002083DE1B4337
:103E080000230140002001400022014090F83C308E
:103E1800012B19D0012380F83C300268936823F005
:103E28000103936003689B6813F0010F07D1036CCB
:103E380023F4885323F0010343F0010303640023B0
:103E480080F83C30184670470220704770B5044629
:103E58000D4603689A6812F4806F03D09B6813F4C8
:103E6800807F19D1FDF726FF064623681A6812F0ED
:103E7800020F20D1B5F1FF3FF7D0B5B923681B6811
:103E880013F0020FF1D1236C43F0040323640023E1
:103E980084F83C30032032E0036C43F020030364D1
:103EA800002380F83C30012029E0FDF703FF801B48
:103EB800A842DAD9E2E76FF012021A60236C43F4E1
:103EC8000073236423689A6812F0405F16D1207E3D
:103ED800B0B9DA6A12F4700F03D09B6813F4806FDC
:103EE8000DD1236C23F480732364236C13F4805F57
:103EF80005D1236C43F00103236400E0002070BD6A
:103F08000020FCE70368D86C7047000030B482B02A
:103F18000023019390F83C30012B00F0B780012377
:103F280080F83C300B68092B3ED90568EA689BB2DB
:103F380003EB43031E3B072404FA03F322EA0303BB
:103F4800EB600568EA688C680B8803EB43031E3B4B
:103F580004FA03F31343EB604B68062B3AD8056861
:103F68006A6B03EB8303053B1F2404FA03F322EA7D
:103F780003036B6305686A6B4B6803EB8303053BBC
:103F88000C8804FA03F313436B630268404B9A42AC
:103F980050D002683E4B9A4255D0002380F83C30FE
:103FA800184602B030BC704705682A699BB203EB1B
:103FB8004303072404FA03F322EA03032B61056889
:103FC8002A698C680B8803EB430304FA03F3134351
:103FD8002B61C1E70C2B16D805682A6B03EB83030A
:103FE800233B1F2404FA03F322EA03032B63056827
:103FF8002A6B4B6803EB8303233B0C8804FA03F317
:1040080013432B63C1E70568EA6A03EB8303413B6B
:104018001F2404FA03F322EA0303EB620568EA6A41
:104028004B6803EB8303413B0C8804FA03F3134307
:10403800EB62AAE70B68122BABD1164A536843F41C
:1040480080035360A5E70B68103B012BA5D8114AE4
:10405800536843F4000353600B68102B9DD10E4B3B
:104068001B6802F1467202F52E3202F28332A2FB7D
:1040780003239B0C03EB83035B00019302E0019B8A
:10408800013B0193019B002BF9D186E7022088E7C9
:10409800002001400023014008000020DFF834D050
:1040A8000D480E490E4A002302E0D458C450043388
:1040B800C4188C42F9D30B4A0B4C002301E013605F
:1040C8000432A242FBD3FEF775F900F011F8FCF7B1
:1040D80003FD70470000022000000020900000202F
:1040E800704600089000002058040020FEE70000F9
:1040F80070B50D4D0D4C641BA4100026A64209D1C5
:104108000B4D0C4C00F090F9641BA4100026A6423D
:1041180005D170BD55F8043B98470136EEE755F8D0
:10412800043B98470136F2E76846000868460008ED
:10413800684600086C4600080A44914200F1FF33C3
:1041480000D1704710B511F8014B03F8014F9142A7
:10415800F9D110BD02440346934200D1704703F8D9
:10416800011BF9E72DE9F047089D04468C46002B12
:1041780040F083808A42174647D9B2FA82F242B1A8
:10418800C2F1200024FA00F09140974040EA010C67
:1041980094404FEA1748230CBCFBF8F61FFA87FE39
:1041A80008FB16C143EA014306FB0EF1994209D9FF
:1041B800FB1806F1FF3080F01981994240F2168110
:1041C800023E3B445B1AA4B2B3FBF8F008FB103381
:1041D80044EA034400FB0EFEA64509D93C1900F148
:1041E800FF3380F00581A64540F2028102383C4445
:1041F80040EA0640A4EB0E0400261DB1D44000237B
:10420800C5E900433146BDE8F08702B9FFDEB2FADE
:1042180082F2002A50D1CB1B4FEA174E1FFA87F8BB
:104228000126B3FBFEFC210C0EFB1C3341EA0341C3
:1042380008FB0CF38B4207D979180CF1FF3002D236
:104248008B4200F2E9808446C91AA3B2B1FBFEF0A2
:104258000EFB101143EA014408FB00F8A04507D9FA
:104268003C1900F1FF3302D2A04500F2D98018466C
:10427800A4EB080440EA0C40BFE78B4209D9002DA3
:1042880000F0B1800026C5E9000130463146BDE89E
:10429800F087B3FA83F6002E4AD18B4202D38242CA
:1042A80000F2B880841A61EB030101208C46002DCE
:1042B800A8D0C5E9004CA5E7C2F1200320FA03F60F
:1042C800974001FA02F04FEA174ED9403043030CE9
:1042D800B1FBFEF61FFA87F80EFB161143EA0143FD
:1042E80006FB08F1994204FA02F409D9FB1806F111
:1042F800FF3C80F08D80994240F28A80023E3B4428
:104308005B1A81B2B3FBFEF00EFB103341EA0341A6
:1043180000FB08F38B4207D9791800F1FF3C73D2F0
:104328008B4271D902383944CB1A40EA064678E7FD
:10433800C6F1200C03FA06F422FA0CF31C4320FA07
:104348000CF701FA06F34FEA144E21FA0CF11F4359
:104358003B0CB1FBFEF91FFA84F80EFB191143EA76
:10436800014109FB08FA8A4502FA06F200FA06F347
:1043780008D9611809F1FF3048D28A4546D9A9F110
:1043880002092144A1EB0A01BFB2B1FBFEF00EFB0A
:10439800101147EA014700FB08F8B84507D9E719A3
:1043A80000F1FF312ED2B8452CD90238274440EA13
:1043B8000940A7EB0807A0FB02894F45C6464946B6
:1043C8001AD317D05DB1B3EB0E0267EB010707FAFA
:1043D8000CFCF2404CEA0202F740C5E9002700262F
:1043E8003146BDE8F0872E4628460BE70646E9E643
:1043F8001846FDE64345E5D2B8EB020E69EB040129
:104408000138DFE70846D2E760468DE78146B9E71D
:10441800664675E730464AE7ACF1020C394413E7C3
:1044280002383C4424E700BFF8B500BFF8BC08BC1C
:104438009E467047F8B500BFF8BC08BC9E4670475A
:10444800000000000000000001020304060708093C
:10445800000000000102030400C1814001C0804146
:1044680001C0804100C1814001C0804100C181403C
:1044780000C1814001C0804101C0804100C181402C
:1044880000C1814001C0804100C1814001C080411C
:1044980001C0804100C1814001C0804100C181400C
:1044A80000C1814001C0804100C1814001C08041FC
:1044B80001C0804100C1814000C1814001C08041EC
:1044C80001C0804100C1814001C0804100C18140DC
:1044D80000C1814001C0804101C0804100C18140CC
:1044E80000C1814001C0804100C1814001C08041BC
:1044F80001C0804100C1814000C1814001C08041AC
:1045080001C0804100C1814001C0804100C181409B
:1045180000C1814001C0804100C1814001C080418B
:1045280001C0804100C1814001C0804100C181407B
:1045380000C1814001C0804101C0804100C181406B
:1045480000C1814001C0804100C1814001C080415B
:1045580001C0804100C1814000C0C101C30302C243
:10456800C60607C705C5C404CC0C0DCD0FCFCE0EAB
:104578000ACACB0BC90908C8D81819D91BDBDA1A1B
:104588001EDEDF1FDD1D1CDC14D4D515D71716D68B
:10459800D21213D311D1D010F03031F133F3F232FB
:1045A80036F6F737F53534F43CFCFD3DFF3F3EFE6B
:1045B800FA3A3BFB39F9F83828E8E929EB2B2AEADB
:1045C800EE2E2FEF2DEDEC2CE42425E527E7E6264B
:1045D80022E2E323E12120E0A06061A163A3A262BB
:1045E80066A6A767A56564A46CACAD6DAF6F6EAE2B
:1045F800AA6A6BAB69A9A86878B8B979BB7B7ABA9B
:10460800BE7E7FBF7DBDBC7CB47475B577B7B6760A
:1046180072B2B373B17170B050909151935352927A
:1046280096565797559594549C5C5D9D5F9F9E5EEA
:104638005A9A9B5B99595898884849894B8B8A4A5A
:104648004E8E8F4F8D4D4C8C4484854587474686CA
:0846580082424383418180404E
:084660000CFBFF7F01000000CC
:044668001D0A00081F
:04466C00F909000840
:1046700001000000100000000024F400020000000F
:104680001100000065270008040000000127000851
:1046900003000000F925000810000000A72500080D
:1046A000060000007B250008170000005D260008BA
:1046B00001000000D1230008050000004524000887
:1046C0000F000000A52400080200000009250008D2
:1046D00000000000000000000000000000000000DA
:1046E00000000000000000000000000000000000CA
:1046F00000000000000000000000000000000000BA
:04000005080040A50A
:00000001FF
